{
  "address": "0x7746898067864b0cd3F3FfB3693c4Ec6A715b5E4",
  "abi": [
    {
      "inputs": [
        {
          "internalType": "uint32",
          "name": "_rescueDelay",
          "type": "uint32"
        },
        {
          "internalType": "contract IERC20",
          "name": "_accessToken",
          "type": "address"
        }
      ],
      "stateMutability": "nonpayable",
      "type": "constructor"
    },
    {
      "inputs": [
        {
          "internalType": "address",
          "name": "target",
          "type": "address"
        }
      ],
      "name": "AddressEmptyCode",
      "type": "error"
    },
    {
      "inputs": [
        {
          "internalType": "address",
          "name": "account",
          "type": "address"
        }
      ],
      "name": "AddressInsufficientBalance",
      "type": "error"
    },
    {
      "inputs": [],
      "name": "FailedInnerCall",
      "type": "error"
    },
    {
      "inputs": [],
      "name": "InvalidAmount",
      "type": "error"
    },
    {
      "inputs": [],
      "name": "InvalidParameters",
      "type": "error"
    },
    {
      "inputs": [],
      "name": "InvalidSecret",
      "type": "error"
    },
    {
      "inputs": [],
      "name": "InvalidSecretHash",
      "type": "error"
    },
    {
      "inputs": [],
      "name": "ReentrancyGuardReentrantCall",
      "type": "error"
    },
    {
      "inputs": [
        {
          "internalType": "address",
          "name": "token",
          "type": "address"
        }
      ],
      "name": "SafeERC20FailedOperation",
      "type": "error"
    },
    {
      "inputs": [],
      "name": "SwapAlreadyExists",
      "type": "error"
    },
    {
      "inputs": [],
      "name": "SwapDoesNotExist",
      "type": "error"
    },
    {
      "inputs": [],
      "name": "SwapNotOpen",
      "type": "error"
    },
    {
      "inputs": [],
      "name": "TimelockNotExpired",
      "type": "error"
    },
    {
      "inputs": [],
      "name": "TimelockTooLong",
      "type": "error"
    },
    {
      "inputs": [],
      "name": "TransferFailed",
      "type": "error"
    },
    {
      "inputs": [],
      "name": "Unauthorized",
      "type": "error"
    },
    {
      "inputs": [],
      "name": "XCMBridgeNotSet",
      "type": "error"
    },
    {
      "anonymous": false,
      "inputs": [
        {
          "indexed": true,
          "internalType": "bytes32",
          "name": "swapId",
          "type": "bytes32"
        },
        {
          "indexed": false,
          "internalType": "address",
          "name": "token",
          "type": "address"
        },
        {
          "indexed": false,
          "internalType": "uint256",
          "name": "amount",
          "type": "uint256"
        }
      ],
      "name": "FundsRescued",
      "type": "event"
    },
    {
      "anonymous": false,
      "inputs": [
        {
          "indexed": true,
          "internalType": "bytes32",
          "name": "swapId",
          "type": "bytes32"
        }
      ],
      "name": "SwapCancelled",
      "type": "event"
    },
    {
      "anonymous": false,
      "inputs": [
        {
          "indexed": true,
          "internalType": "bytes32",
          "name": "swapId",
          "type": "bytes32"
        },
        {
          "indexed": false,
          "internalType": "bytes32",
          "name": "secret",
          "type": "bytes32"
        }
      ],
      "name": "SwapCompleted",
      "type": "event"
    },
    {
      "anonymous": false,
      "inputs": [
        {
          "indexed": true,
          "internalType": "bytes32",
          "name": "swapId",
          "type": "bytes32"
        },
        {
          "indexed": true,
          "internalType": "bytes32",
          "name": "secretHash",
          "type": "bytes32"
        },
        {
          "indexed": true,
          "internalType": "address",
          "name": "maker",
          "type": "address"
        },
        {
          "indexed": false,
          "internalType": "address",
          "name": "taker",
          "type": "address"
        },
        {
          "indexed": false,
          "internalType": "address",
          "name": "token",
          "type": "address"
        },
        {
          "indexed": false,
          "internalType": "uint256",
          "name": "amount",
          "type": "uint256"
        },
        {
          "indexed": false,
          "internalType": "uint256",
          "name": "unlockTime",
          "type": "uint256"
        }
      ],
      "name": "SwapCreated",
      "type": "event"
    },
    {
      "inputs": [],
      "name": "MAX_TIMELOCK",
      "outputs": [
        {
          "internalType": "uint256",
          "name": "",
          "type": "uint256"
        }
      ],
      "stateMutability": "view",
      "type": "function"
    },
    {
      "inputs": [],
      "name": "accessToken",
      "outputs": [
        {
          "internalType": "contract IERC20",
          "name": "",
          "type": "address"
        }
      ],
      "stateMutability": "view",
      "type": "function"
    },
    {
      "inputs": [
        {
          "internalType": "bytes32",
          "name": "swapId",
          "type": "bytes32"
        }
      ],
      "name": "canCancel",
      "outputs": [
        {
          "internalType": "bool",
          "name": "",
          "type": "bool"
        }
      ],
      "stateMutability": "view",
      "type": "function"
    },
    {
      "inputs": [
        {
          "internalType": "bytes32",
          "name": "swapId",
          "type": "bytes32"
        }
      ],
      "name": "cancelSwap",
      "outputs": [],
      "stateMutability": "nonpayable",
      "type": "function"
    },
    {
      "inputs": [
        {
          "internalType": "bytes32",
          "name": "swapId",
          "type": "bytes32"
        },
        {
          "internalType": "bytes32",
          "name": "secret",
          "type": "bytes32"
        },
        {
          "internalType": "address",
          "name": "target",
          "type": "address"
        }
      ],
      "name": "completeSwap",
      "outputs": [],
      "stateMutability": "nonpayable",
      "type": "function"
    },
    {
      "inputs": [
        {
          "internalType": "bytes32",
          "name": "swapId",
          "type": "bytes32"
        },
        {
          "internalType": "bytes32",
          "name": "secretHash",
          "type": "bytes32"
        },
        {
          "internalType": "address payable",
          "name": "maker",
          "type": "address"
        },
        {
          "internalType": "uint256",
          "name": "timelock",
          "type": "uint256"
        }
      ],
      "name": "createNativeSwap",
      "outputs": [],
      "stateMutability": "payable",
      "type": "function"
    },
    {
      "inputs": [
        {
          "internalType": "bytes32",
          "name": "swapId",
          "type": "bytes32"
        },
        {
          "internalType": "bytes32",
          "name": "secretHash",
          "type": "bytes32"
        },
        {
          "internalType": "address payable",
          "name": "maker",
          "type": "address"
        },
        {
          "internalType": "contract IERC20",
          "name": "token",
          "type": "address"
        },
        {
          "internalType": "uint256",
          "name": "amount",
          "type": "uint256"
        },
        {
          "internalType": "uint256",
          "name": "timelock",
          "type": "uint256"
        }
      ],
      "name": "createSwap",
      "outputs": [],
      "stateMutability": "payable",
      "type": "function"
    },
    {
      "inputs": [
        {
          "internalType": "bytes32",
          "name": "swapId",
          "type": "bytes32"
        }
      ],
      "name": "getSwap",
      "outputs": [
        {
          "components": [
            {
              "internalType": "bytes32",
              "name": "secretHash",
              "type": "bytes32"
            },
            {
              "internalType": "address payable",
              "name": "maker",
              "type": "address"
            },
            {
              "internalType": "address payable",
              "name": "taker",
              "type": "address"
            },
            {
              "internalType": "contract IERC20",
              "name": "token",
              "type": "address"
            },
            {
              "internalType": "uint256",
              "name": "amount",
              "type": "uint256"
            },
            {
              "internalType": "uint256",
              "name": "safetyDeposit",
              "type": "uint256"
            },
            {
              "internalType": "uint256",
              "name": "unlockTime",
              "type": "uint256"
            },
            {
              "internalType": "enum DotFusionPolkadotEscrow.SwapState",
              "name": "state",
              "type": "uint8"
            },
            {
              "internalType": "bytes32",
              "name": "swapId",
              "type": "bytes32"
            },
            {
              "internalType": "bool",
              "name": "isNative",
              "type": "bool"
            }
          ],
          "internalType": "struct DotFusionPolkadotEscrow.Swap",
          "name": "swap",
          "type": "tuple"
        }
      ],
      "stateMutability": "view",
      "type": "function"
    },
    {
      "inputs": [
        {
          "internalType": "bytes32",
          "name": "swapId",
          "type": "bytes32"
        },
        {
          "internalType": "bytes32",
          "name": "secret",
          "type": "bytes32"
        }
      ],
      "name": "isValidSecret",
      "outputs": [
        {
          "internalType": "bool",
          "name": "",
          "type": "bool"
        }
      ],
      "stateMutability": "view",
      "type": "function"
    },
    {
      "inputs": [],
      "name": "owner",
      "outputs": [
        {
          "internalType": "address",
          "name": "",
          "type": "address"
        }
      ],
      "stateMutability": "view",
      "type": "function"
    },
    {
      "inputs": [
        {
          "internalType": "bytes32",
          "name": "swapId",
          "type": "bytes32"
        },
        {
          "internalType": "bytes32",
          "name": "secret",
          "type": "bytes32"
        }
      ],
      "name": "propagateSecretToEthereum",
      "outputs": [],
      "stateMutability": "nonpayable",
      "type": "function"
    },
    {
      "inputs": [
        {
          "internalType": "bytes32",
          "name": "swapId",
          "type": "bytes32"
        }
      ],
      "name": "publicCancelSwap",
      "outputs": [],
      "stateMutability": "nonpayable",
      "type": "function"
    },
    {
      "inputs": [
        {
          "internalType": "bytes32",
          "name": "swapId",
          "type": "bytes32"
        },
        {
          "internalType": "bytes32",
          "name": "secretHash",
          "type": "bytes32"
        },
        {
          "internalType": "address payable",
          "name": "",
          "type": "address"
        },
        {
          "internalType": "uint256",
          "name": "",
          "type": "uint256"
        },
        {
          "internalType": "bytes32",
          "name": "",
          "type": "bytes32"
        }
      ],
      "name": "receiveSwap",
      "outputs": [],
      "stateMutability": "payable",
      "type": "function"
    },
    {
      "inputs": [],
      "name": "rescueDelay",
      "outputs": [
        {
          "internalType": "uint32",
          "name": "",
          "type": "uint32"
        }
      ],
      "stateMutability": "view",
      "type": "function"
    },
    {
      "inputs": [
        {
          "internalType": "bytes32",
          "name": "swapId",
          "type": "bytes32"
        }
      ],
      "name": "rescueFunds",
      "outputs": [],
      "stateMutability": "nonpayable",
      "type": "function"
    },
    {
      "inputs": [
        {
          "internalType": "address",
          "name": "_xcmBridge",
          "type": "address"
        }
      ],
      "name": "setXCMBridge",
      "outputs": [],
      "stateMutability": "nonpayable",
      "type": "function"
    },
    {
      "inputs": [
        {
          "internalType": "bytes32",
          "name": "",
          "type": "bytes32"
        }
      ],
      "name": "swaps",
      "outputs": [
        {
          "internalType": "bytes32",
          "name": "secretHash",
          "type": "bytes32"
        },
        {
          "internalType": "address payable",
          "name": "maker",
          "type": "address"
        },
        {
          "internalType": "address payable",
          "name": "taker",
          "type": "address"
        },
        {
          "internalType": "contract IERC20",
          "name": "token",
          "type": "address"
        },
        {
          "internalType": "uint256",
          "name": "amount",
          "type": "uint256"
        },
        {
          "internalType": "uint256",
          "name": "safetyDeposit",
          "type": "uint256"
        },
        {
          "internalType": "uint256",
          "name": "unlockTime",
          "type": "uint256"
        },
        {
          "internalType": "enum DotFusionPolkadotEscrow.SwapState",
          "name": "state",
          "type": "uint8"
        },
        {
          "internalType": "bytes32",
          "name": "swapId",
          "type": "bytes32"
        },
        {
          "internalType": "bool",
          "name": "isNative",
          "type": "bool"
        }
      ],
      "stateMutability": "view",
      "type": "function"
    },
    {
      "inputs": [],
      "name": "xcmBridge",
      "outputs": [
        {
          "internalType": "contract DotFusionXCMBridge",
          "name": "",
          "type": "address"
        }
      ],
      "stateMutability": "view",
      "type": "function"
    },
    {
      "stateMutability": "payable",
      "type": "receive"
    }
  ],
  "transactionHash": "0xbcaa6c9567255d690ad6a2869dc6582709421fc293e111a19d251ba89598e558",
  "args": [
    604800,
    "0x0000000000000000000000000000000000000000"
  ],
  "numDeployments": 3,
  "solcInputHash": "2253f14f9c5ba2e897770faa462c7bec",
  "bytecode": "0x60e060405234801561001057600080fd5b50604051611cc4380380611cc483398101604081905261002f91610054565b60016000553360805263ffffffff90911660a0526001600160a01b031660c0526100a3565b6000806040838503121561006757600080fd5b825163ffffffff8116811461007b57600080fd5b60208401519092506001600160a01b038116811461009857600080fd5b809150509250929050565b60805160a05160c051611bc16101036000396000818161033c0152818161106f01526110b501526000818161040601526107fc015260008181610291015281816107360152818161088f015281816109340152610fe70152611bc16000f3fe60806040526004361061010d5760003560e01c80638b8a8af611610095578063bffbf4dc11610064578063bffbf4dc146102ea578063d541beb31461030a578063e243c5fb1461032a578063eb84e7f21461035e578063f143d8a0146103f457600080fd5b80638b8a8af61461025f5780638da5cb5b1461027f5780638fc9fef1146102b357806394f1825b146102c657600080fd5b80634287e358116100dc5780634287e358146101a4578063541cb23e146101d45780635d5520ae146101e75780636476fd3c146102075780637b6639851461022757600080fd5b80631b4858a514610119578063219229311461013b5780633394edd31461015b5780633da0e66e1461016e57600080fd5b3661011457005b600080fd5b34801561012557600080fd5b50610139610134366004611840565b61043d565b005b34801561014757600080fd5b50610139610156366004611879565b61072b565b610139610169366004611892565b6109ae565b34801561017a57600080fd5b5061018e610189366004611879565b610bee565b60405161019b9190611909565b60405180910390f35b3480156101b057600080fd5b506101c46101bf3660046119b4565b610d04565b604051901515815260200161019b565b6101396101e23660046119d6565b610d40565b3480156101f357600080fd5b50610139610202366004611a32565b610fdc565b34801561021357600080fd5b50610139610222366004611879565b61106d565b34801561023357600080fd5b50600254610247906001600160a01b031681565b6040516001600160a01b03909116815260200161019b565b34801561026b57600080fd5b5061013961027a3660046119b4565b611370565b34801561028b57600080fd5b506102477f000000000000000000000000000000000000000000000000000000000000000081565b6101396102c1366004611a4f565b611499565b3480156102d257600080fd5b506102dc61546081565b60405190815260200161019b565b3480156102f657600080fd5b506101c4610305366004611879565b6114da565b34801561031657600080fd5b50610139610325366004611879565b61151c565b34801561033657600080fd5b506102477f000000000000000000000000000000000000000000000000000000000000000081565b34801561036a57600080fd5b506103de610379366004611879565b600160208190526000918252604090912080549181015460028201546003830154600484015460058501546006860154600787015460088801546009909801546001600160a01b0397881698968816979095169593949293919260ff9182169291168a565b60405161019b9a99989796959493929190611a98565b34801561040057600080fd5b506104287f000000000000000000000000000000000000000000000000000000000000000081565b60405163ffffffff909116815260200161019b565b6104456115f4565b600083815260016020526040812090600782015460ff16600381111561046d5761046d6118d1565b0361048b57604051631a40316d60e01b815260040160405180910390fd5b6001600782015460ff1660038111156104a6576104a66118d1565b146104c457604051638d393d0b60e01b815260040160405180910390fd5b805460408051602081018690520160405160208183030381529060405280519060200120146105065760405163abab6bd760e01b815260040160405180910390fd5b60018101546001600160a01b03163314610532576040516282b42960e81b815260040160405180910390fd5b60078101805460ff19166002179055600981015460038201546004830154600584015460ff909316926001600160a01b039092169183156105e7576000866001600160a01b03168360405160006040518083038185875af1925050503d80600081146105ba576040519150601f19603f3d011682016040523d82523d6000602084013e6105bf565b606091505b50509050806105e1576040516312171d8360e31b815260040160405180910390fd5b5061066c565b6105fb6001600160a01b038416878461161e565b801561066c57604051600090339083908381818185875af1925050503d8060008114610643576040519150601f19603f3d011682016040523d82523d6000602084013e610648565b606091505b505090508061066a576040516312171d8360e31b815260040160405180910390fd5b505b877f7430d80e0e3cfb925010ff8993f6a56392199211e297fc7825278f29980ccf518860405161069e91815260200190565b60405180910390a26002546001600160a01b0316156107175760025460405163c995439760e01b8152600481018a9052602481018990526001600160a01b039091169063c995439790604401600060405180830381600087803b15801561070457600080fd5b505af1925050508015610715575060015b505b50505050506107266001600055565b505050565b336001600160a01b037f00000000000000000000000000000000000000000000000000000000000000001614610773576040516282b42960e81b815260040160405180910390fd5b61077b6115f4565b600081815260016020526040812090600782015460ff1660038111156107a3576107a36118d1565b036107c157604051631a40316d60e01b815260040160405180910390fd5b6002600782015460ff1660038111156107dc576107dc6118d1565b036107fa57604051638d393d0b60e01b815260040160405180910390fd5b7f000000000000000000000000000000000000000000000000000000000000000063ffffffff1681600601546108309190611b00565b4210156108505760405163621e25c360e01b815260040160405180910390fd5b600981015460038083015460048401805460078601805460ff19169094179093556000905560ff909216916001600160a01b03169082156109255760007f00000000000000000000000000000000000000000000000000000000000000006001600160a01b03168260405160006040518083038185875af1925050503d80600081146108f8576040519150601f19603f3d011682016040523d82523d6000602084013e6108fd565b606091505b505090508061091f576040516312171d8360e31b815260040160405180910390fd5b50610959565b6109596001600160a01b0383167f00000000000000000000000000000000000000000000000000000000000000008361161e565b604080516001600160a01b03841681526020810183905286917fa35104aa8a532c97c48611c8cb3aba648a775480373089a088bb0170db273523910160405180910390a2505050506109ab6001600055565b50565b826109cc5760405163d6502e2b60e01b815260040160405180910390fd5b346000036109ed5760405163162908e360e11b815260040160405180910390fd5b60008481526001602052604081206007015460ff166003811115610a1357610a136118d1565b14610a31576040516339a2986760e11b815260040160405180910390fd5b615460811115610a5457604051632e3f1a4f60e11b815260040160405180910390fd5b6000610a608242611b00565b60408051610140810182528681526001600160a01b0386166020820152339181019190915260006060820181905234608083015260a082015260c0810182905290915060e08101600181526020808201889052600160409283018190526000898152818352839020845181559184015182820180546001600160a01b03199081166001600160a01b039384161790915593850151600284018054861691831691909117905560608501516003808501805490961691909216179093556080840151600483015560a0840151600583015560c0840151600683015560e084015160078301805493949193909260ff19909116918490811115610b6357610b636118d1565b02179055506101008201516008820155610120909101516009909101805460ff191691151591909117905560408051338152600060208201523491810191909152606081018290526001600160a01b03841690859087907f8fff31b7eeb2ae9daa1a973ccf5022c30c38c3ffcb54904f4a50ca205194bc019060800160405180910390a45050505050565b6040805161014081018252600080825260208201819052918101829052606081018290526080810182905260a0810182905260c0810182905260e08101829052610100810182905261012081019190915260008281526001602081815260409283902083516101408101855281548152928101546001600160a01b03908116928401929092526002810154821693830193909352600380840154909116606083015260048301546080830152600583015460a0830152600683015460c0830152600783015491929160e084019160ff90911690811115610cd057610cd06118d1565b6003811115610ce157610ce16118d1565b81526008820154602082015260099091015460ff16151560409091015292915050565b60008281526001602090815260408083205481519283018590529101604051602081830303815290604052805190602001201490505b92915050565b84610d5e5760405163d6502e2b60e01b815260040160405180910390fd5b81600003610d7f5760405163162908e360e11b815260040160405180910390fd5b60008681526001602052604081206007015460ff166003811115610da557610da56118d1565b14610dc3576040516339a2986760e11b815260040160405180910390fd5b6001600160a01b038316610dea57604051630e52390960e41b815260040160405180910390fd5b615460811115610e0d57604051632e3f1a4f60e11b815260040160405180910390fd5b610e226001600160a01b03841633308561167d565b6000610e2e8242611b00565b9050604051806101400160405280878152602001866001600160a01b03168152602001336001600160a01b03168152602001856001600160a01b0316815260200184815260200134815260200182815260200160016003811115610e9457610e946118d1565b815260208082018a9052600060409283018190528a8152600180835290839020845181559184015182820180546001600160a01b03199081166001600160a01b039384161790915593850151600284018054861691831691909117905560608501516003808501805490961691909216179093556080840151600483015560a0840151600583015560c0840151600683015560e084015160078301805493949193909260ff19909116918490811115610f4f57610f4f6118d1565b02179055506101008201516008820155610120909101516009909101805460ff1916911515919091179055604080513381526001600160a01b0386811660208301529181018590526060810183905290861690879089907f8fff31b7eeb2ae9daa1a973ccf5022c30c38c3ffcb54904f4a50ca205194bc019060800160405180910390a450505050505050565b336001600160a01b037f00000000000000000000000000000000000000000000000000000000000000001614611024576040516282b42960e81b815260040160405180910390fd5b6001600160a01b03811661104b57604051630e52390960e41b815260040160405180910390fd5b600280546001600160a01b0319166001600160a01b0392909216919091179055565b7f00000000000000000000000000000000000000000000000000000000000000006001600160a01b03161580159061112a57506040516370a0823160e01b81523360048201527f00000000000000000000000000000000000000000000000000000000000000006001600160a01b0316906370a0823190602401602060405180830381865afa158015611104573d6000803e3d6000fd5b505050506040513d601f19601f820116820180604052508101906111289190611b21565b155b15611147576040516282b42960e81b815260040160405180910390fd5b61114f6115f4565b600081815260016020526040812090600782015460ff166003811115611177576111776118d1565b0361119557604051631a40316d60e01b815260040160405180910390fd5b6001600782015460ff1660038111156111b0576111b06118d1565b146111ce57604051638d393d0b60e01b815260040160405180910390fd5b80600601544210156111f35760405163621e25c360e01b815260040160405180910390fd5b60078101805460ff1916600390811790915560098201549082015460048301546005840154600285015460ff909416936001600160a01b03938416931684156112b0576000816001600160a01b03168460405160006040518083038185875af1925050503d8060008114611283576040519150601f19603f3d011682016040523d82523d6000602084013e611288565b606091505b50509050806112aa576040516312171d8360e31b815260040160405180910390fd5b50611335565b6112c46001600160a01b038516828561161e565b811561133557604051600090339084908381818185875af1925050503d806000811461130c576040519150601f19603f3d011682016040523d82523d6000602084013e611311565b606091505b5050905080611333576040516312171d8360e31b815260040160405180910390fd5b505b60405187907f5a399591cfd74c375a1ffd61c20221db0db82381f65516889ed13c8cd1f99d5b90600090a25050505050506109ab6001600055565b6002546001600160a01b031661139957604051637606d87760e01b815260040160405180910390fd5b600082815260016020908152604091829020548251918201849052910160405160208183030381529060405280519060200120146113ea5760405163abab6bd760e01b815260040160405180910390fd5b600260008381526001602052604090206007015460ff166003811115611412576114126118d1565b1461143057604051638d393d0b60e01b815260040160405180910390fd5b60025460405163c995439760e01b815260048101849052602481018390526001600160a01b039091169063c995439790604401600060405180830381600087803b15801561147d57600080fd5b505af1158015611491573d6000803e3d6000fd5b505050505050565b847f7430d80e0e3cfb925010ff8993f6a56392199211e297fc7825278f29980ccf51856040516114cb91815260200190565b60405180910390a25050505050565b6000818152600160208190526040822090600782015460ff166003811115611504576115046118d1565b148015611515575080600601544210155b9392505050565b6115246115f4565b600081815260016020526040812090600782015460ff16600381111561154c5761154c6118d1565b0361156a57604051631a40316d60e01b815260040160405180910390fd5b6001600782015460ff166003811115611585576115856118d1565b146115a357604051638d393d0b60e01b815260040160405180910390fd5b80600601544210156115c85760405163621e25c360e01b815260040160405180910390fd5b60028101546001600160a01b031633146111f3576040516282b42960e81b815260040160405180910390fd5b60026000540361161757604051633ee5aeb560e01b815260040160405180910390fd5b6002600055565b6040516001600160a01b0383811660248301526044820183905261072691859182169063a9059cbb906064015b604051602081830303815290604052915060e01b6020820180516001600160e01b0383818316178352505050506116bc565b6040516001600160a01b0384811660248301528381166044830152606482018390526116b69186918216906323b872dd9060840161164b565b50505050565b60006116d16001600160a01b03841683611724565b905080516000141580156116f65750808060200190518101906116f49190611b3a565b155b1561072657604051635274afe760e01b81526001600160a01b03841660048201526024015b60405180910390fd5b60606115158383600084600080856001600160a01b0316848660405161174a9190611b5c565b60006040518083038185875af1925050503d8060008114611787576040519150601f19603f3d011682016040523d82523d6000602084013e61178c565b606091505b509150915061179c8683836117a6565b9695505050505050565b6060826117bb576117b682611802565b611515565b81511580156117d257506001600160a01b0384163b155b156117fb57604051639996b31560e01b81526001600160a01b038516600482015260240161171b565b5080611515565b8051156118125780518082602001fd5b604051630a12f52160e11b815260040160405180910390fd5b6001600160a01b03811681146109ab57600080fd5b60008060006060848603121561185557600080fd5b8335925060208401359150604084013561186e8161182b565b809150509250925092565b60006020828403121561188b57600080fd5b5035919050565b600080600080608085870312156118a857600080fd5b843593506020850135925060408501356118c18161182b565b9396929550929360600135925050565b634e487b7160e01b600052602160045260246000fd5b6004811061190557634e487b7160e01b600052602160045260246000fd5b9052565b8151815260208083015161014083019161192d908401826001600160a01b03169052565b50604083015161194860408401826001600160a01b03169052565b50606083015161196360608401826001600160a01b03169052565b506080830151608083015260a083015160a083015260c083015160c083015260e083015161199460e08401826118e7565b506101008381015190830152610120928301511515929091019190915290565b600080604083850312156119c757600080fd5b50508035926020909101359150565b60008060008060008060c087890312156119ef57600080fd5b86359550602087013594506040870135611a088161182b565b93506060870135611a188161182b565b9598949750929560808101359460a0909101359350915050565b600060208284031215611a4457600080fd5b81356115158161182b565b600080600080600060a08688031215611a6757600080fd5b85359450602086013593506040860135611a808161182b565b94979396509394606081013594506080013592915050565b8a81526001600160a01b038a811660208301528981166040830152881660608201526080810187905260a0810186905260c081018590526101408101611ae160e08301866118e7565b836101008301528215156101208301529b9a5050505050505050505050565b80820180821115610d3a57634e487b7160e01b600052601160045260246000fd5b600060208284031215611b3357600080fd5b5051919050565b600060208284031215611b4c57600080fd5b8151801515811461151557600080fd5b6000825160005b81811015611b7d5760208186018101518583015201611b63565b50600092019182525091905056fea26469706673582212203f37c45d0d2c7a086f72e2c5c4112b554cb48ba4a58af037ea5f82b46ba0014564736f6c63430008170033",
  "devdoc": {
    "custom:security-contact": "security@dotfusion.io",
    "details": "This contract handles multiple swaps simultaneously. Each swap is identified by a unique swapId. Funds are locked when users initiate swaps, and unlocked when secrets are revealed.",
    "errors": {
      "AddressEmptyCode(address)": [
        {
          "details": "There's no code at `target` (it is not a contract)."
        }
      ],
      "AddressInsufficientBalance(address)": [
        {
          "details": "The ETH balance of the account is not enough to perform the operation."
        }
      ],
      "FailedInnerCall()": [
        {
          "details": "A call to an address target failed. The target may have reverted."
        }
      ],
      "ReentrancyGuardReentrantCall()": [
        {
          "details": "Unauthorized reentrant call."
        }
      ],
      "SafeERC20FailedOperation(address)": [
        {
          "details": "An operation with an ERC20 token failed."
        }
      ]
    },
    "kind": "dev",
    "methods": {
      "canCancel(bytes32)": {
        "params": {
          "swapId": "Unique swap identifier"
        },
        "returns": {
          "_0": "canCancel True if timelock expired and swap is still open"
        }
      },
      "cancelSwap(bytes32)": {
        "params": {
          "swapId": "Unique swap identifier"
        }
      },
      "completeSwap(bytes32,bytes32,address)": {
        "details": "Only the maker (original initiator on Ethereum) can claim to prevent front-running",
        "params": {
          "secret": "Preimage of secretHash",
          "swapId": "Unique swap identifier",
          "target": "Address to receive the tokens"
        }
      },
      "createNativeSwap(bytes32,bytes32,address,uint256)": {
        "params": {
          "maker": "Address of the maker (Ethereum initiator)",
          "secretHash": "Hash of the secret",
          "swapId": "Unique identifier for this swap",
          "timelock": "Duration before cancellation is allowed"
        }
      },
      "createSwap(bytes32,bytes32,address,address,uint256,uint256)": {
        "params": {
          "amount": "Amount of tokens",
          "maker": "Address of the maker",
          "secretHash": "Hash of the secret",
          "swapId": "Unique identifier for this swap",
          "timelock": "Duration before cancellation is allowed",
          "token": "Token to be swapped"
        }
      },
      "getSwap(bytes32)": {
        "params": {
          "swapId": "Unique swap identifier"
        },
        "returns": {
          "swap": "Full swap struct"
        }
      },
      "isValidSecret(bytes32,bytes32)": {
        "params": {
          "secret": "Preimage to test",
          "swapId": "Unique swap identifier"
        },
        "returns": {
          "_0": "isValid True if secret matches secretHash"
        }
      },
      "propagateSecretToEthereum(bytes32,bytes32)": {
        "details": "This can be called if automatic propagation failed",
        "params": {
          "secret": "Revealed secret",
          "swapId": "Swap identifier"
        }
      },
      "publicCancelSwap(bytes32)": {
        "params": {
          "swapId": "Unique swap identifier"
        }
      },
      "receiveSwap(bytes32,bytes32,address,uint256,bytes32)": {
        "details": "Called by the XCM bridge contract for backward compatibilityOther parameters are present for compatibility but not used",
        "params": {
          "secretHash": "Hash of the secret",
          "swapId": "Unique swap identifier (from Ethereum)"
        }
      },
      "rescueFunds(bytes32)": {
        "params": {
          "swapId": "Unique swap identifier"
        }
      },
      "setXCMBridge(address)": {
        "params": {
          "_xcmBridge": "Address of the XCM bridge contract"
        }
      }
    },
    "title": "DotFusion Polkadot Escrow (Destination)",
    "version": 1
  },
  "userdoc": {
    "kind": "user",
    "methods": {
      "canCancel(bytes32)": {
        "notice": "Check if swap can be cancelled"
      },
      "cancelSwap(bytes32)": {
        "notice": "Cancel a swap after timelock expires"
      },
      "completeSwap(bytes32,bytes32,address)": {
        "notice": "Complete a swap by revealing the secret"
      },
      "createNativeSwap(bytes32,bytes32,address,uint256)": {
        "notice": "Create a new swap with native DOT"
      },
      "createSwap(bytes32,bytes32,address,address,uint256,uint256)": {
        "notice": "Create a new swap with ERC20 tokens"
      },
      "getSwap(bytes32)": {
        "notice": "Get swap details"
      },
      "isValidSecret(bytes32,bytes32)": {
        "notice": "Check if secret is valid for a swap"
      },
      "propagateSecretToEthereum(bytes32,bytes32)": {
        "notice": "Manually propagate secret to Ethereum via XCM bridge"
      },
      "publicCancelSwap(bytes32)": {
        "notice": "Public cancellation function (for access token holders)"
      },
      "receiveSwap(bytes32,bytes32,address,uint256,bytes32)": {
        "notice": "Receive a cross-chain swap message from Ethereum (XCM Bridge compatibility)"
      },
      "rescueFunds(bytes32)": {
        "notice": "Rescue funds from a swap after rescue delay"
      },
      "setXCMBridge(address)": {
        "notice": "Set the XCM bridge address"
      }
    },
    "notice": "Destination escrow contract for cross-chain atomic swaps on Polkadot",
    "version": 1
  },
  "storageLayout": {
    "storage": [
      {
        "astId": 667,
        "contract": "contracts/PolkadotEscrow.sol:DotFusionPolkadotEscrow",
        "label": "_status",
        "offset": 0,
        "slot": "0",
        "type": "t_uint256"
      },
      {
        "astId": 775,
        "contract": "contracts/PolkadotEscrow.sol:DotFusionPolkadotEscrow",
        "label": "swaps",
        "offset": 0,
        "slot": "1",
        "type": "t_mapping(t_bytes32,t_struct(Swap)770_storage)"
      },
      {
        "astId": 785,
        "contract": "contracts/PolkadotEscrow.sol:DotFusionPolkadotEscrow",
        "label": "xcmBridge",
        "offset": 0,
        "slot": "2",
        "type": "t_contract(DotFusionXCMBridge)2448"
      }
    ],
    "types": {
      "t_address_payable": {
        "encoding": "inplace",
        "label": "address payable",
        "numberOfBytes": "20"
      },
      "t_bool": {
        "encoding": "inplace",
        "label": "bool",
        "numberOfBytes": "1"
      },
      "t_bytes32": {
        "encoding": "inplace",
        "label": "bytes32",
        "numberOfBytes": "32"
      },
      "t_contract(DotFusionXCMBridge)2448": {
        "encoding": "inplace",
        "label": "contract DotFusionXCMBridge",
        "numberOfBytes": "20"
      },
      "t_contract(IERC20)77": {
        "encoding": "inplace",
        "label": "contract IERC20",
        "numberOfBytes": "20"
      },
      "t_enum(SwapState)747": {
        "encoding": "inplace",
        "label": "enum DotFusionPolkadotEscrow.SwapState",
        "numberOfBytes": "1"
      },
      "t_mapping(t_bytes32,t_struct(Swap)770_storage)": {
        "encoding": "mapping",
        "key": "t_bytes32",
        "label": "mapping(bytes32 => struct DotFusionPolkadotEscrow.Swap)",
        "numberOfBytes": "32",
        "value": "t_struct(Swap)770_storage"
      },
      "t_struct(Swap)770_storage": {
        "encoding": "inplace",
        "label": "struct DotFusionPolkadotEscrow.Swap",
        "members": [
          {
            "astId": 749,
            "contract": "contracts/PolkadotEscrow.sol:DotFusionPolkadotEscrow",
            "label": "secretHash",
            "offset": 0,
            "slot": "0",
            "type": "t_bytes32"
          },
          {
            "astId": 751,
            "contract": "contracts/PolkadotEscrow.sol:DotFusionPolkadotEscrow",
            "label": "maker",
            "offset": 0,
            "slot": "1",
            "type": "t_address_payable"
          },
          {
            "astId": 753,
            "contract": "contracts/PolkadotEscrow.sol:DotFusionPolkadotEscrow",
            "label": "taker",
            "offset": 0,
            "slot": "2",
            "type": "t_address_payable"
          },
          {
            "astId": 756,
            "contract": "contracts/PolkadotEscrow.sol:DotFusionPolkadotEscrow",
            "label": "token",
            "offset": 0,
            "slot": "3",
            "type": "t_contract(IERC20)77"
          },
          {
            "astId": 758,
            "contract": "contracts/PolkadotEscrow.sol:DotFusionPolkadotEscrow",
            "label": "amount",
            "offset": 0,
            "slot": "4",
            "type": "t_uint256"
          },
          {
            "astId": 760,
            "contract": "contracts/PolkadotEscrow.sol:DotFusionPolkadotEscrow",
            "label": "safetyDeposit",
            "offset": 0,
            "slot": "5",
            "type": "t_uint256"
          },
          {
            "astId": 762,
            "contract": "contracts/PolkadotEscrow.sol:DotFusionPolkadotEscrow",
            "label": "unlockTime",
            "offset": 0,
            "slot": "6",
            "type": "t_uint256"
          },
          {
            "astId": 765,
            "contract": "contracts/PolkadotEscrow.sol:DotFusionPolkadotEscrow",
            "label": "state",
            "offset": 0,
            "slot": "7",
            "type": "t_enum(SwapState)747"
          },
          {
            "astId": 767,
            "contract": "contracts/PolkadotEscrow.sol:DotFusionPolkadotEscrow",
            "label": "swapId",
            "offset": 0,
            "slot": "8",
            "type": "t_bytes32"
          },
          {
            "astId": 769,
            "contract": "contracts/PolkadotEscrow.sol:DotFusionPolkadotEscrow",
            "label": "isNative",
            "offset": 0,
            "slot": "9",
            "type": "t_bool"
          }
        ],
        "numberOfBytes": "320"
      },
      "t_uint256": {
        "encoding": "inplace",
        "label": "uint256",
        "numberOfBytes": "32"
      }
    }
  }
}