{
  "address": "0x43bD6B0FDAB99a9eC9eF76C3ABB23ABa125dB154",
  "abi": [
    {
      "inputs": [
        {
          "internalType": "uint32",
          "name": "_rescueDelay",
          "type": "uint32"
        },
        {
          "internalType": "contract IERC20",
          "name": "_accessToken",
          "type": "address"
        }
      ],
      "stateMutability": "nonpayable",
      "type": "constructor"
    },
    {
      "inputs": [
        {
          "internalType": "address",
          "name": "target",
          "type": "address"
        }
      ],
      "name": "AddressEmptyCode",
      "type": "error"
    },
    {
      "inputs": [
        {
          "internalType": "address",
          "name": "account",
          "type": "address"
        }
      ],
      "name": "AddressInsufficientBalance",
      "type": "error"
    },
    {
      "inputs": [],
      "name": "FailedInnerCall",
      "type": "error"
    },
    {
      "inputs": [],
      "name": "InvalidAmount",
      "type": "error"
    },
    {
      "inputs": [],
      "name": "InvalidParameters",
      "type": "error"
    },
    {
      "inputs": [],
      "name": "InvalidSecret",
      "type": "error"
    },
    {
      "inputs": [],
      "name": "InvalidSecretHash",
      "type": "error"
    },
    {
      "inputs": [
        {
          "internalType": "address",
          "name": "token",
          "type": "address"
        }
      ],
      "name": "SafeERC20FailedOperation",
      "type": "error"
    },
    {
      "inputs": [],
      "name": "SwapAlreadyExists",
      "type": "error"
    },
    {
      "inputs": [],
      "name": "SwapDoesNotExist",
      "type": "error"
    },
    {
      "inputs": [],
      "name": "SwapNotOpen",
      "type": "error"
    },
    {
      "inputs": [],
      "name": "TimelockNotExpired",
      "type": "error"
    },
    {
      "inputs": [],
      "name": "TransferFailed",
      "type": "error"
    },
    {
      "inputs": [],
      "name": "Unauthorized",
      "type": "error"
    },
    {
      "anonymous": false,
      "inputs": [
        {
          "indexed": true,
          "internalType": "bytes32",
          "name": "swapId",
          "type": "bytes32"
        },
        {
          "indexed": false,
          "internalType": "address",
          "name": "token",
          "type": "address"
        },
        {
          "indexed": false,
          "internalType": "uint256",
          "name": "amount",
          "type": "uint256"
        }
      ],
      "name": "FundsRescued",
      "type": "event"
    },
    {
      "anonymous": false,
      "inputs": [
        {
          "indexed": true,
          "internalType": "bytes32",
          "name": "swapId",
          "type": "bytes32"
        }
      ],
      "name": "SwapCancelled",
      "type": "event"
    },
    {
      "anonymous": false,
      "inputs": [
        {
          "indexed": true,
          "internalType": "bytes32",
          "name": "swapId",
          "type": "bytes32"
        },
        {
          "indexed": false,
          "internalType": "bytes32",
          "name": "secret",
          "type": "bytes32"
        }
      ],
      "name": "SwapCompleted",
      "type": "event"
    },
    {
      "anonymous": false,
      "inputs": [
        {
          "indexed": true,
          "internalType": "bytes32",
          "name": "swapId",
          "type": "bytes32"
        },
        {
          "indexed": true,
          "internalType": "bytes32",
          "name": "secretHash",
          "type": "bytes32"
        },
        {
          "indexed": true,
          "internalType": "address",
          "name": "maker",
          "type": "address"
        },
        {
          "indexed": false,
          "internalType": "address",
          "name": "taker",
          "type": "address"
        },
        {
          "indexed": false,
          "internalType": "address",
          "name": "token",
          "type": "address"
        },
        {
          "indexed": false,
          "internalType": "uint256",
          "name": "amount",
          "type": "uint256"
        },
        {
          "indexed": false,
          "internalType": "uint256",
          "name": "unlockTime",
          "type": "uint256"
        }
      ],
      "name": "SwapCreated",
      "type": "event"
    },
    {
      "inputs": [],
      "name": "accessToken",
      "outputs": [
        {
          "internalType": "contract IERC20",
          "name": "",
          "type": "address"
        }
      ],
      "stateMutability": "view",
      "type": "function"
    },
    {
      "inputs": [
        {
          "internalType": "bytes32",
          "name": "swapId",
          "type": "bytes32"
        }
      ],
      "name": "canCancel",
      "outputs": [
        {
          "internalType": "bool",
          "name": "",
          "type": "bool"
        }
      ],
      "stateMutability": "view",
      "type": "function"
    },
    {
      "inputs": [
        {
          "internalType": "bytes32",
          "name": "swapId",
          "type": "bytes32"
        }
      ],
      "name": "cancelSwap",
      "outputs": [],
      "stateMutability": "nonpayable",
      "type": "function"
    },
    {
      "inputs": [
        {
          "internalType": "bytes32",
          "name": "swapId",
          "type": "bytes32"
        },
        {
          "internalType": "bytes32",
          "name": "secret",
          "type": "bytes32"
        },
        {
          "internalType": "address",
          "name": "target",
          "type": "address"
        }
      ],
      "name": "completeSwap",
      "outputs": [],
      "stateMutability": "nonpayable",
      "type": "function"
    },
    {
      "inputs": [
        {
          "internalType": "bytes32",
          "name": "swapId",
          "type": "bytes32"
        },
        {
          "internalType": "bytes32",
          "name": "secretHash",
          "type": "bytes32"
        },
        {
          "internalType": "address payable",
          "name": "taker",
          "type": "address"
        },
        {
          "internalType": "contract IERC20",
          "name": "token",
          "type": "address"
        },
        {
          "internalType": "uint256",
          "name": "amount",
          "type": "uint256"
        },
        {
          "internalType": "uint256",
          "name": "timelock",
          "type": "uint256"
        }
      ],
      "name": "createSwap",
      "outputs": [],
      "stateMutability": "payable",
      "type": "function"
    },
    {
      "inputs": [
        {
          "internalType": "bytes32",
          "name": "swapId",
          "type": "bytes32"
        }
      ],
      "name": "getSwap",
      "outputs": [
        {
          "components": [
            {
              "internalType": "bytes32",
              "name": "secretHash",
              "type": "bytes32"
            },
            {
              "internalType": "address payable",
              "name": "maker",
              "type": "address"
            },
            {
              "internalType": "address payable",
              "name": "taker",
              "type": "address"
            },
            {
              "internalType": "contract IERC20",
              "name": "token",
              "type": "address"
            },
            {
              "internalType": "uint256",
              "name": "amount",
              "type": "uint256"
            },
            {
              "internalType": "uint256",
              "name": "safetyDeposit",
              "type": "uint256"
            },
            {
              "internalType": "uint256",
              "name": "unlockTime",
              "type": "uint256"
            },
            {
              "internalType": "enum DotFusionEthereumEscrow.SwapState",
              "name": "state",
              "type": "uint8"
            },
            {
              "internalType": "bytes32",
              "name": "swapId",
              "type": "bytes32"
            }
          ],
          "internalType": "struct DotFusionEthereumEscrow.Swap",
          "name": "swap",
          "type": "tuple"
        }
      ],
      "stateMutability": "view",
      "type": "function"
    },
    {
      "inputs": [
        {
          "internalType": "bytes32",
          "name": "swapId",
          "type": "bytes32"
        },
        {
          "internalType": "bytes32",
          "name": "secret",
          "type": "bytes32"
        }
      ],
      "name": "isValidSecret",
      "outputs": [
        {
          "internalType": "bool",
          "name": "",
          "type": "bool"
        }
      ],
      "stateMutability": "view",
      "type": "function"
    },
    {
      "inputs": [],
      "name": "owner",
      "outputs": [
        {
          "internalType": "address",
          "name": "",
          "type": "address"
        }
      ],
      "stateMutability": "view",
      "type": "function"
    },
    {
      "inputs": [
        {
          "internalType": "bytes32",
          "name": "swapId",
          "type": "bytes32"
        }
      ],
      "name": "publicCancelSwap",
      "outputs": [],
      "stateMutability": "nonpayable",
      "type": "function"
    },
    {
      "inputs": [],
      "name": "rescueDelay",
      "outputs": [
        {
          "internalType": "uint32",
          "name": "",
          "type": "uint32"
        }
      ],
      "stateMutability": "view",
      "type": "function"
    },
    {
      "inputs": [
        {
          "internalType": "bytes32",
          "name": "swapId",
          "type": "bytes32"
        }
      ],
      "name": "rescueFunds",
      "outputs": [],
      "stateMutability": "nonpayable",
      "type": "function"
    },
    {
      "inputs": [
        {
          "internalType": "bytes32",
          "name": "",
          "type": "bytes32"
        }
      ],
      "name": "swaps",
      "outputs": [
        {
          "internalType": "bytes32",
          "name": "secretHash",
          "type": "bytes32"
        },
        {
          "internalType": "address payable",
          "name": "maker",
          "type": "address"
        },
        {
          "internalType": "address payable",
          "name": "taker",
          "type": "address"
        },
        {
          "internalType": "contract IERC20",
          "name": "token",
          "type": "address"
        },
        {
          "internalType": "uint256",
          "name": "amount",
          "type": "uint256"
        },
        {
          "internalType": "uint256",
          "name": "safetyDeposit",
          "type": "uint256"
        },
        {
          "internalType": "uint256",
          "name": "unlockTime",
          "type": "uint256"
        },
        {
          "internalType": "enum DotFusionEthereumEscrow.SwapState",
          "name": "state",
          "type": "uint8"
        },
        {
          "internalType": "bytes32",
          "name": "swapId",
          "type": "bytes32"
        }
      ],
      "stateMutability": "view",
      "type": "function"
    },
    {
      "stateMutability": "payable",
      "type": "receive"
    }
  ],
  "transactionHash": "0xc53bd741a069c6fddfdd66db616f5460198d495ffb8f7122ca564e470a84f444",
  "args": [
    604800,
    "0x0000000000000000000000000000000000000000"
  ],
  "numDeployments": 1,
  "solcInputHash": "75f61bd8b93a9b4d8cde81de7793470c",
  "bytecode": "0x60e060405234801561001057600080fd5b506040516112dd3803806112dd83398101604081905261002f9161004f565b3360805263ffffffff90911660a0526001600160a01b031660c05261009e565b6000806040838503121561006257600080fd5b825163ffffffff8116811461007657600080fd5b60208401519092506001600160a01b038116811461009357600080fd5b809150509250929050565b60805160a05160c0516111ed6100f060003960008181610230015281816109b201526109f80152600081816102f001526105600152600081816101a4015281816104db01526105d001526111ed6000f3fe6080604052600436106100ab5760003560e01c80638da5cb5b116100645780638da5cb5b14610192578063bffbf4dc146101de578063d541beb3146101fe578063e243c5fb1461021e578063eb84e7f214610252578063f143d8a0146102de57600080fd5b80631b4858a5146100b757806321922931146100d95780633da0e66e146100f95780634287e3581461012f578063541cb23e1461015f5780636476fd3c1461017257600080fd5b366100b257005b600080fd5b3480156100c357600080fd5b506100d76100d2366004610f4a565b610327565b005b3480156100e557600080fd5b506100d76100f4366004610f83565b6104d0565b34801561010557600080fd5b50610119610114366004610f83565b610649565b6040516101269190610fd4565b60405180910390f35b34801561013b57600080fd5b5061014f61014a366004611050565b610745565b6040519015158152602001610126565b6100d761016d366004611072565b61077f565b34801561017e57600080fd5b506100d761018d366004610f83565b6109b0565b34801561019e57600080fd5b506101c67f000000000000000000000000000000000000000000000000000000000000000081565b6040516001600160a01b039091168152602001610126565b3480156101ea57600080fd5b5061014f6101f9366004610f83565b610c0f565b34801561020a57600080fd5b506100d7610219366004610f83565b610c50565b34801561022a57600080fd5b506101c67f000000000000000000000000000000000000000000000000000000000000000081565b34801561025e57600080fd5b506102c961026d366004610f83565b60006020819052908152604090208054600182015460028301546003840154600485015460058601546006870154600788015460089098015496976001600160a01b0396871697958716969094169492939192909160ff169089565b604051610126999897969594939291906110ce565b3480156102ea57600080fd5b506103127f000000000000000000000000000000000000000000000000000000000000000081565b60405163ffffffff9091168152602001610126565b600083815260208190526040812090600782015460ff16600381111561034f5761034f610f9c565b0361036d57604051631a40316d60e01b815260040160405180910390fd5b6001600782015460ff16600381111561038857610388610f9c565b146103a657604051638d393d0b60e01b815260040160405180910390fd5b805460408051602081018690520160405160208183030381529060405280519060200120146103e85760405163abab6bd760e01b815260040160405180910390fd5b60078101805460ff1916600217905560048101546003820154610418916001600160a01b03909116908490610d20565b60058101541561049057600581015460405160009133918381818185875af1925050503d8060008114610467576040519150601f19603f3d011682016040523d82523d6000602084013e61046c565b606091505b505090508061048e576040516312171d8360e31b815260040160405180910390fd5b505b837f7430d80e0e3cfb925010ff8993f6a56392199211e297fc7825278f29980ccf51846040516104c291815260200190565b60405180910390a250505050565b336001600160a01b037f00000000000000000000000000000000000000000000000000000000000000001614610518576040516282b42960e81b815260040160405180910390fd5b600081815260208190526040812090600782015460ff16600381111561054057610540610f9c565b0361055e57604051631a40316d60e01b815260040160405180910390fd5b7f000000000000000000000000000000000000000000000000000000000000000063ffffffff168160060154610594919061112c565b4210156105b45760405163621e25c360e01b815260040160405180910390fd5b600481015460038201546105f5916001600160a01b03909116907f000000000000000000000000000000000000000000000000000000000000000090610d20565b60038101546004820154604080516001600160a01b039093168352602083019190915283917fa35104aa8a532c97c48611c8cb3aba648a775480373089a088bb0170db273523910160405180910390a25050565b6040805161012081018252600080825260208201819052918101829052606081018290526080810182905260a0810182905260c0810182905260e08101829052610100810191909152600082815260208181526040918290208251610120810184528154815260018201546001600160a01b03908116938201939093526002820154831693810193909352600380820154909216606084015260048101546080840152600581015460a0840152600681015460c08401526007810154909160e084019160ff169081111561071f5761071f610f9c565b600381111561073057610730610f9c565b81526020016008820154815250509050919050565b6000828152602081815260408083205481519283018590529101604051602081830303815290604052805190602001201490505b92915050565b8461079d5760405163d6502e2b60e01b815260040160405180910390fd5b816000036107be5760405163162908e360e11b815260040160405180910390fd5b60008681526020819052604081206007015460ff1660038111156107e4576107e4610f9c565b14610802576040516339a2986760e11b815260040160405180910390fd5b6108176001600160a01b038416333085610d84565b6000610823824261112c565b9050604051806101200160405280878152602001336001600160a01b03168152602001866001600160a01b03168152602001856001600160a01b031681526020018481526020013481526020018281526020016001600381111561088957610889610f9c565b8152602090810189905260008981528082526040908190208351815591830151600180840180546001600160a01b03199081166001600160a01b039485161790915592850151600285018054851691841691909117905560608501516003808601805490951691909316179092556080840151600484015560a0840151600584015560c0840151600684015560e08401516007840180549193909260ff1990921691849081111561093c5761093c610f9c565b02179055506101009190910151600890910155604080516001600160a01b03878116825286166020820152908101849052606081018290523390879089907f8fff31b7eeb2ae9daa1a973ccf5022c30c38c3ffcb54904f4a50ca205194bc019060800160405180910390a450505050505050565b7f00000000000000000000000000000000000000000000000000000000000000006001600160a01b031615801590610a6d57506040516370a0823160e01b81523360048201527f00000000000000000000000000000000000000000000000000000000000000006001600160a01b0316906370a0823190602401602060405180830381865afa158015610a47573d6000803e3d6000fd5b505050506040513d601f19601f82011682018060405250810190610a6b919061114d565b155b15610a8a576040516282b42960e81b815260040160405180910390fd5b600081815260208190526040812090600782015460ff166003811115610ab257610ab2610f9c565b03610ad057604051631a40316d60e01b815260040160405180910390fd5b6001600782015460ff166003811115610aeb57610aeb610f9c565b14610b0957604051638d393d0b60e01b815260040160405180910390fd5b8060060154421015610b2e5760405163621e25c360e01b815260040160405180910390fd5b60078101805460ff191660039081179091556001820154600483015491830154610b68926001600160a01b03918216929190911690610d20565b600581015415610be057600581015460405160009133918381818185875af1925050503d8060008114610bb7576040519150601f19603f3d011682016040523d82523d6000602084013e610bbc565b606091505b5050905080610bde576040516312171d8360e31b815260040160405180910390fd5b505b60405182907f5a399591cfd74c375a1ffd61c20221db0db82381f65516889ed13c8cd1f99d5b90600090a25050565b60008181526020819052604081206001600782015460ff166003811115610c3857610c38610f9c565b148015610c49575080600601544210155b9392505050565b600081815260208190526040812090600782015460ff166003811115610c7857610c78610f9c565b03610c9657604051631a40316d60e01b815260040160405180910390fd5b6001600782015460ff166003811115610cb157610cb1610f9c565b14610ccf57604051638d393d0b60e01b815260040160405180910390fd5b8060060154421015610cf45760405163621e25c360e01b815260040160405180910390fd5b60018101546001600160a01b03163314610b2e576040516282b42960e81b815260040160405180910390fd5b6040516001600160a01b03838116602483015260448201839052610d7f91859182169063a9059cbb906064015b604051602081830303815290604052915060e01b6020820180516001600160e01b038381831617835250505050610dc3565b505050565b6040516001600160a01b038481166024830152838116604483015260648201839052610dbd9186918216906323b872dd90608401610d4d565b50505050565b6000610dd86001600160a01b03841683610e2b565b90508051600014158015610dfd575080806020019051810190610dfb9190611166565b155b15610d7f57604051635274afe760e01b81526001600160a01b03841660048201526024015b60405180910390fd5b6060610c498383600084600080856001600160a01b03168486604051610e519190611188565b60006040518083038185875af1925050503d8060008114610e8e576040519150601f19603f3d011682016040523d82523d6000602084013e610e93565b606091505b5091509150610ea3868383610ead565b9695505050505050565b606082610ec257610ebd82610f09565b610c49565b8151158015610ed957506001600160a01b0384163b155b15610f0257604051639996b31560e01b81526001600160a01b0385166004820152602401610e22565b5080610c49565b805115610f195780518082602001fd5b604051630a12f52160e11b815260040160405180910390fd5b50565b6001600160a01b0381168114610f3257600080fd5b600080600060608486031215610f5f57600080fd5b83359250602084013591506040840135610f7881610f35565b809150509250925092565b600060208284031215610f9557600080fd5b5035919050565b634e487b7160e01b600052602160045260246000fd5b60048110610fd057634e487b7160e01b600052602160045260246000fd5b9052565b815181526020808301516001600160a01b039081169183019190915260408084015182169083015260608084015191821690830152610120820190506080830151608083015260a083015160a083015260c083015160c083015260e083015161104060e0840182610fb2565b5061010092830151919092015290565b6000806040838503121561106357600080fd5b50508035926020909101359150565b60008060008060008060c0878903121561108b57600080fd5b863595506020870135945060408701356110a481610f35565b935060608701356110b481610f35565b9598949750929560808101359460a0909101359350915050565b8981526001600160a01b0389811660208301528881166040830152871660608201526080810186905260a0810185905260c08101849052610120810161111760e0830185610fb2565b826101008301529a9950505050505050505050565b8082018082111561077957634e487b7160e01b600052601160045260246000fd5b60006020828403121561115f57600080fd5b5051919050565b60006020828403121561117857600080fd5b81518015158114610c4957600080fd5b6000825160005b818110156111a9576020818601810151858301520161118f565b50600092019182525091905056fea2646970667358221220630d1212c56b9984c5f24b005049db7afa236488a2948a2f0230e114dd75f80f64736f6c63430008170033",
  "devdoc": {
    "custom:security-contact": "security@dotfusion.io",
    "details": "This contract handles multiple swaps simultaneously. Each swap is identified by a unique swapId. Funds are locked when users initiate swaps, and unlocked when secrets are revealed.",
    "errors": {
      "AddressEmptyCode(address)": [
        {
          "details": "There's no code at `target` (it is not a contract)."
        }
      ],
      "AddressInsufficientBalance(address)": [
        {
          "details": "The ETH balance of the account is not enough to perform the operation."
        }
      ],
      "FailedInnerCall()": [
        {
          "details": "A call to an address target failed. The target may have reverted."
        }
      ],
      "SafeERC20FailedOperation(address)": [
        {
          "details": "An operation with an ERC20 token failed."
        }
      ]
    },
    "kind": "dev",
    "methods": {
      "canCancel(bytes32)": {
        "params": {
          "swapId": "Unique swap identifier"
        },
        "returns": {
          "_0": "canCancel True if timelock expired and swap is still open"
        }
      },
      "cancelSwap(bytes32)": {
        "params": {
          "swapId": "Unique swap identifier"
        }
      },
      "completeSwap(bytes32,bytes32,address)": {
        "params": {
          "secret": "Preimage of secretHash",
          "swapId": "Unique swap identifier",
          "target": "Address to receive the tokens"
        }
      },
      "createSwap(bytes32,bytes32,address,address,uint256,uint256)": {
        "params": {
          "amount": "Amount of tokens",
          "secretHash": "Hash of the secret",
          "swapId": "Unique identifier for this swap",
          "taker": "Address of the taker",
          "timelock": "Duration before cancellation is allowed",
          "token": "Token to be swapped"
        }
      },
      "getSwap(bytes32)": {
        "params": {
          "swapId": "Unique swap identifier"
        },
        "returns": {
          "swap": "Full swap struct"
        }
      },
      "isValidSecret(bytes32,bytes32)": {
        "params": {
          "secret": "Preimage to test",
          "swapId": "Unique swap identifier"
        },
        "returns": {
          "_0": "isValid True if secret matches secretHash"
        }
      },
      "publicCancelSwap(bytes32)": {
        "params": {
          "swapId": "Unique swap identifier"
        }
      },
      "rescueFunds(bytes32)": {
        "params": {
          "swapId": "Unique swap identifier"
        }
      }
    },
    "title": "DotFusion Ethereum Escrow (Source)",
    "version": 1
  },
  "userdoc": {
    "kind": "user",
    "methods": {
      "canCancel(bytes32)": {
        "notice": "Check if swap can be cancelled"
      },
      "cancelSwap(bytes32)": {
        "notice": "Cancel a swap after timelock expires"
      },
      "completeSwap(bytes32,bytes32,address)": {
        "notice": "Complete a swap by revealing the secret"
      },
      "createSwap(bytes32,bytes32,address,address,uint256,uint256)": {
        "notice": "Create a new swap"
      },
      "getSwap(bytes32)": {
        "notice": "Get swap details"
      },
      "isValidSecret(bytes32,bytes32)": {
        "notice": "Check if secret is valid for a swap"
      },
      "publicCancelSwap(bytes32)": {
        "notice": "Public cancellation function (for access token holders)"
      },
      "rescueFunds(bytes32)": {
        "notice": "Rescue funds from a swap after rescue delay"
      }
    },
    "notice": "Source escrow contract for cross-chain atomic swaps on Ethereum",
    "version": 1
  },
  "storageLayout": {
    "storage": [
      {
        "astId": 698,
        "contract": "contracts/EthereumEscrow.sol:DotFusionEthereumEscrow",
        "label": "swaps",
        "offset": 0,
        "slot": "0",
        "type": "t_mapping(t_bytes32,t_struct(Swap)693_storage)"
      }
    ],
    "types": {
      "t_address_payable": {
        "encoding": "inplace",
        "label": "address payable",
        "numberOfBytes": "20"
      },
      "t_bytes32": {
        "encoding": "inplace",
        "label": "bytes32",
        "numberOfBytes": "32"
      },
      "t_contract(IERC20)77": {
        "encoding": "inplace",
        "label": "contract IERC20",
        "numberOfBytes": "20"
      },
      "t_enum(SwapState)672": {
        "encoding": "inplace",
        "label": "enum DotFusionEthereumEscrow.SwapState",
        "numberOfBytes": "1"
      },
      "t_mapping(t_bytes32,t_struct(Swap)693_storage)": {
        "encoding": "mapping",
        "key": "t_bytes32",
        "label": "mapping(bytes32 => struct DotFusionEthereumEscrow.Swap)",
        "numberOfBytes": "32",
        "value": "t_struct(Swap)693_storage"
      },
      "t_struct(Swap)693_storage": {
        "encoding": "inplace",
        "label": "struct DotFusionEthereumEscrow.Swap",
        "members": [
          {
            "astId": 674,
            "contract": "contracts/EthereumEscrow.sol:DotFusionEthereumEscrow",
            "label": "secretHash",
            "offset": 0,
            "slot": "0",
            "type": "t_bytes32"
          },
          {
            "astId": 676,
            "contract": "contracts/EthereumEscrow.sol:DotFusionEthereumEscrow",
            "label": "maker",
            "offset": 0,
            "slot": "1",
            "type": "t_address_payable"
          },
          {
            "astId": 678,
            "contract": "contracts/EthereumEscrow.sol:DotFusionEthereumEscrow",
            "label": "taker",
            "offset": 0,
            "slot": "2",
            "type": "t_address_payable"
          },
          {
            "astId": 681,
            "contract": "contracts/EthereumEscrow.sol:DotFusionEthereumEscrow",
            "label": "token",
            "offset": 0,
            "slot": "3",
            "type": "t_contract(IERC20)77"
          },
          {
            "astId": 683,
            "contract": "contracts/EthereumEscrow.sol:DotFusionEthereumEscrow",
            "label": "amount",
            "offset": 0,
            "slot": "4",
            "type": "t_uint256"
          },
          {
            "astId": 685,
            "contract": "contracts/EthereumEscrow.sol:DotFusionEthereumEscrow",
            "label": "safetyDeposit",
            "offset": 0,
            "slot": "5",
            "type": "t_uint256"
          },
          {
            "astId": 687,
            "contract": "contracts/EthereumEscrow.sol:DotFusionEthereumEscrow",
            "label": "unlockTime",
            "offset": 0,
            "slot": "6",
            "type": "t_uint256"
          },
          {
            "astId": 690,
            "contract": "contracts/EthereumEscrow.sol:DotFusionEthereumEscrow",
            "label": "state",
            "offset": 0,
            "slot": "7",
            "type": "t_enum(SwapState)672"
          },
          {
            "astId": 692,
            "contract": "contracts/EthereumEscrow.sol:DotFusionEthereumEscrow",
            "label": "swapId",
            "offset": 0,
            "slot": "8",
            "type": "t_bytes32"
          }
        ],
        "numberOfBytes": "288"
      },
      "t_uint256": {
        "encoding": "inplace",
        "label": "uint256",
        "numberOfBytes": "32"
      }
    }
  }
}