{
  "address": "0x831681da02AD4852Ab1D7A835CD30d256f72A292",
  "abi": [
    {
      "inputs": [],
      "stateMutability": "nonpayable",
      "type": "constructor"
    },
    {
      "inputs": [],
      "name": "EscrowNotSet",
      "type": "error"
    },
    {
      "inputs": [],
      "name": "InsufficientFee",
      "type": "error"
    },
    {
      "inputs": [],
      "name": "InvalidAddress",
      "type": "error"
    },
    {
      "inputs": [],
      "name": "InvalidParaId",
      "type": "error"
    },
    {
      "inputs": [],
      "name": "MessageAlreadyProcessed",
      "type": "error"
    },
    {
      "inputs": [],
      "name": "SecretAlreadyPropagated",
      "type": "error"
    },
    {
      "inputs": [],
      "name": "Unauthorized",
      "type": "error"
    },
    {
      "inputs": [],
      "name": "XCMCallFailed",
      "type": "error"
    },
    {
      "anonymous": false,
      "inputs": [
        {
          "indexed": true,
          "internalType": "address",
          "name": "escrowAddress",
          "type": "address"
        },
        {
          "indexed": true,
          "internalType": "address",
          "name": "ethereumEscrowAddress",
          "type": "address"
        },
        {
          "indexed": false,
          "internalType": "uint32",
          "name": "ethereumParaId",
          "type": "uint32"
        }
      ],
      "name": "BridgeConfigured",
      "type": "event"
    },
    {
      "anonymous": false,
      "inputs": [
        {
          "indexed": true,
          "internalType": "bytes32",
          "name": "swapId",
          "type": "bytes32"
        },
        {
          "indexed": true,
          "internalType": "bytes32",
          "name": "secretHash",
          "type": "bytes32"
        },
        {
          "indexed": false,
          "internalType": "address",
          "name": "receiver",
          "type": "address"
        },
        {
          "indexed": false,
          "internalType": "uint256",
          "name": "amount",
          "type": "uint256"
        }
      ],
      "name": "MessageReceived",
      "type": "event"
    },
    {
      "anonymous": false,
      "inputs": [
        {
          "indexed": true,
          "internalType": "bytes32",
          "name": "swapId",
          "type": "bytes32"
        },
        {
          "indexed": false,
          "internalType": "bytes32",
          "name": "secret",
          "type": "bytes32"
        },
        {
          "indexed": false,
          "internalType": "uint32",
          "name": "destination",
          "type": "uint32"
        },
        {
          "indexed": false,
          "internalType": "uint256",
          "name": "fee",
          "type": "uint256"
        }
      ],
      "name": "MessageSent",
      "type": "event"
    },
    {
      "anonymous": false,
      "inputs": [
        {
          "indexed": true,
          "internalType": "bytes32",
          "name": "swapId",
          "type": "bytes32"
        },
        {
          "indexed": false,
          "internalType": "bytes32",
          "name": "secret",
          "type": "bytes32"
        },
        {
          "indexed": true,
          "internalType": "address",
          "name": "ethereumEscrow",
          "type": "address"
        }
      ],
      "name": "SecretPropagated",
      "type": "event"
    },
    {
      "anonymous": false,
      "inputs": [
        {
          "indexed": false,
          "internalType": "uint256",
          "name": "oldFee",
          "type": "uint256"
        },
        {
          "indexed": false,
          "internalType": "uint256",
          "name": "newFee",
          "type": "uint256"
        }
      ],
      "name": "XCMFeeUpdated",
      "type": "event"
    },
    {
      "inputs": [],
      "name": "ETHEREUM_ESCROW_ADDRESS",
      "outputs": [
        {
          "internalType": "address",
          "name": "",
          "type": "address"
        }
      ],
      "stateMutability": "view",
      "type": "function"
    },
    {
      "inputs": [],
      "name": "ETHEREUM_PARACHAIN_ID",
      "outputs": [
        {
          "internalType": "uint32",
          "name": "",
          "type": "uint32"
        }
      ],
      "stateMutability": "view",
      "type": "function"
    },
    {
      "inputs": [],
      "name": "MIN_XCM_FEE",
      "outputs": [
        {
          "internalType": "uint256",
          "name": "",
          "type": "uint256"
        }
      ],
      "stateMutability": "view",
      "type": "function"
    },
    {
      "inputs": [],
      "name": "XCM_PRECOMPILE",
      "outputs": [
        {
          "internalType": "address",
          "name": "",
          "type": "address"
        }
      ],
      "stateMutability": "view",
      "type": "function"
    },
    {
      "inputs": [
        {
          "internalType": "address",
          "name": "_escrow",
          "type": "address"
        },
        {
          "internalType": "address",
          "name": "_ethereumEscrow",
          "type": "address"
        },
        {
          "internalType": "uint32",
          "name": "_ethereumParaId",
          "type": "uint32"
        }
      ],
      "name": "configureBridge",
      "outputs": [],
      "stateMutability": "nonpayable",
      "type": "function"
    },
    {
      "inputs": [],
      "name": "escrow",
      "outputs": [
        {
          "internalType": "contract DotFusionPolkadotEscrow",
          "name": "",
          "type": "address"
        }
      ],
      "stateMutability": "view",
      "type": "function"
    },
    {
      "inputs": [
        {
          "internalType": "bytes32",
          "name": "swapId",
          "type": "bytes32"
        }
      ],
      "name": "getMessage",
      "outputs": [
        {
          "components": [
            {
              "internalType": "bytes32",
              "name": "swapId",
              "type": "bytes32"
            },
            {
              "internalType": "bytes32",
              "name": "secret",
              "type": "bytes32"
            },
            {
              "internalType": "address",
              "name": "targetContract",
              "type": "address"
            },
            {
              "internalType": "uint256",
              "name": "timestamp",
              "type": "uint256"
            },
            {
              "internalType": "bool",
              "name": "processed",
              "type": "bool"
            }
          ],
          "internalType": "struct DotFusionXCMBridge.XCMMessage",
          "name": "message",
          "type": "tuple"
        }
      ],
      "stateMutability": "view",
      "type": "function"
    },
    {
      "inputs": [
        {
          "internalType": "bytes32",
          "name": "secret",
          "type": "bytes32"
        }
      ],
      "name": "isSecretPropagated",
      "outputs": [
        {
          "internalType": "bool",
          "name": "propagated",
          "type": "bool"
        }
      ],
      "stateMutability": "view",
      "type": "function"
    },
    {
      "inputs": [
        {
          "internalType": "bytes32",
          "name": "",
          "type": "bytes32"
        }
      ],
      "name": "messages",
      "outputs": [
        {
          "internalType": "bytes32",
          "name": "swapId",
          "type": "bytes32"
        },
        {
          "internalType": "bytes32",
          "name": "secret",
          "type": "bytes32"
        },
        {
          "internalType": "address",
          "name": "targetContract",
          "type": "address"
        },
        {
          "internalType": "uint256",
          "name": "timestamp",
          "type": "uint256"
        },
        {
          "internalType": "bool",
          "name": "processed",
          "type": "bool"
        }
      ],
      "stateMutability": "view",
      "type": "function"
    },
    {
      "inputs": [],
      "name": "owner",
      "outputs": [
        {
          "internalType": "address",
          "name": "",
          "type": "address"
        }
      ],
      "stateMutability": "view",
      "type": "function"
    },
    {
      "inputs": [
        {
          "internalType": "bytes32",
          "name": "",
          "type": "bytes32"
        }
      ],
      "name": "processedSecrets",
      "outputs": [
        {
          "internalType": "bool",
          "name": "",
          "type": "bool"
        }
      ],
      "stateMutability": "view",
      "type": "function"
    },
    {
      "inputs": [
        {
          "internalType": "bytes32",
          "name": "swapId",
          "type": "bytes32"
        },
        {
          "internalType": "bytes32",
          "name": "secret",
          "type": "bytes32"
        }
      ],
      "name": "propagateSecret",
      "outputs": [],
      "stateMutability": "nonpayable",
      "type": "function"
    },
    {
      "inputs": [
        {
          "internalType": "bytes32",
          "name": "swapId",
          "type": "bytes32"
        },
        {
          "internalType": "bytes32",
          "name": "secretHash",
          "type": "bytes32"
        },
        {
          "internalType": "address payable",
          "name": "receiver",
          "type": "address"
        },
        {
          "internalType": "bytes32",
          "name": "ethereumSender",
          "type": "bytes32"
        }
      ],
      "name": "receiveFromEthereum",
      "outputs": [],
      "stateMutability": "payable",
      "type": "function"
    },
    {
      "inputs": [
        {
          "internalType": "bytes32",
          "name": "swapId",
          "type": "bytes32"
        },
        {
          "internalType": "bytes32",
          "name": "secret",
          "type": "bytes32"
        }
      ],
      "name": "sendToEthereum",
      "outputs": [],
      "stateMutability": "payable",
      "type": "function"
    },
    {
      "inputs": [
        {
          "internalType": "uint256",
          "name": "_newFee",
          "type": "uint256"
        }
      ],
      "name": "updateXCMFee",
      "outputs": [],
      "stateMutability": "nonpayable",
      "type": "function"
    },
    {
      "inputs": [],
      "name": "withdrawFees",
      "outputs": [],
      "stateMutability": "nonpayable",
      "type": "function"
    },
    {
      "inputs": [],
      "name": "xcmFee",
      "outputs": [
        {
          "internalType": "uint256",
          "name": "",
          "type": "uint256"
        }
      ],
      "stateMutability": "view",
      "type": "function"
    },
    {
      "stateMutability": "payable",
      "type": "receive"
    }
  ],
  "transactionHash": "0xbb9b55bce8164e04252422056d63a82be7d70ed2097bd36dd8163daadf3f3ce9",
  "args": [],
  "numDeployments": 3,
  "solcInputHash": "2253f14f9c5ba2e897770faa462c7bec",
  "bytecode": "0x60a0604052662386f26fc1000060035534801561001b57600080fd5b50336080526080516111086100576000396000818161038e015281816104a1015281816105bf0152818161060701526106cf01526111086000f3fe6080604052600436106101025760003560e01c80638da5cb5b11610095578063c995439711610064578063c995439714610413578063e2fdcc1714610433578063f3ce326f14610453578063fa87bfac14610466578063fb8f97bb1461047b57600080fd5b80638da5cb5b1461037c5780638eb03f60146103b0578063bfdaa6b2146103d0578063c782055e1461040057600080fd5b80632bbd59ca116100d15780632bbd59ca14610275578063476343ee146103035780636d99708b146103185780636f25822c1461033c57600080fd5b80630139a2211461010e578063077120cc146101fa5780630837d22114610228578063260ebb1b1461024a57600080fd5b3661010957005b600080fd5b34801561011a57600080fd5b506101a9610129366004610eea565b6040805160a0808201835260008083526020808401829052838501829052606080850183905260809485018390529582526001808252918590208551938401865280548452918201549083015260028101546001600160a01b03169382019390935260038301549381019390935260049091015460ff1615159082015290565b6040516101f1919081518152602080830151908201526040808301516001600160a01b0316908201526060808301519082015260809182015115159181019190915260a00190565b60405180910390f35b34801561020657600080fd5b5061021061080481565b6040516001600160a01b0390911681526020016101f1565b34801561023457600080fd5b50610248610243366004610f18565b610496565b005b34801561025657600080fd5b506102606103e881565b60405163ffffffff90911681526020016101f1565b34801561028157600080fd5b506102cb610290366004610eea565b60016020819052600091825260409091208054918101546002820154600383015460049093015491926001600160a01b039091169160ff1685565b6040805195865260208601949094526001600160a01b039092169284019290925260608301919091521515608082015260a0016101f1565b34801561030f57600080fd5b506102486105b4565b34801561032457600080fd5b5061032e60035481565b6040519081526020016101f1565b34801561034857600080fd5b5061036c610357366004610eea565b60009081526002602052604090205460ff1690565b60405190151581526020016101f1565b34801561038857600080fd5b506102107f000000000000000000000000000000000000000000000000000000000000000081565b3480156103bc57600080fd5b506102486103cb366004610eea565b6106c4565b3480156103dc57600080fd5b5061036c6103eb366004610eea565b60026020526000908152604090205460ff1681565b61024861040e366004610f6c565b610778565b34801561041f57600080fd5b5061024861042e366004610fab565b610868565b34801561043f57600080fd5b50600054610210906001600160a01b031681565b610248610461366004610fab565b610b1a565b34801561047257600080fd5b50610210600081565b34801561048757600080fd5b5061032e66038d7ea4c6800081565b336001600160a01b037f000000000000000000000000000000000000000000000000000000000000000016146104de576040516282b42960e81b815260040160405180910390fd5b6001600160a01b0383166105055760405163e6c4247b60e01b815260040160405180910390fd5b6001600160a01b03821661052c5760405163e6c4247b60e01b815260040160405180910390fd5b8063ffffffff166000036105535760405163563f08c360e11b815260040160405180910390fd5b600080546001600160a01b0319166001600160a01b0385811691821790925560405163ffffffff84168152918416917f96781ad0a357d78ae2c21a86265429aa967d719ca31746a01e7976a7a99436d89060200160405180910390a3505050565b336001600160a01b037f000000000000000000000000000000000000000000000000000000000000000016146105fc576040516282b42960e81b815260040160405180910390fd5b4780156106c15760007f00000000000000000000000000000000000000000000000000000000000000006001600160a01b03168260405160006040518083038185875af1925050503d8060008114610670576040519150601f19603f3d011682016040523d82523d6000602084013e610675565b606091505b50509050806106bf5760405162461bcd60e51b815260206004820152601160248201527015da5d1a191c985dd85b0819985a5b1959607a1b60448201526064015b60405180910390fd5b505b50565b336001600160a01b037f0000000000000000000000000000000000000000000000000000000000000000161461070c576040516282b42960e81b815260040160405180910390fd5b66038d7ea4c680008110156107335760405162976f7560e21b815260040160405180910390fd5b600380549082905560408051828152602081018490527f5ec1afc4b9a06ba944fcf78ef54b443a7acba17c94c6a61824c4f2c342f56f9d910160405180910390a15050565b6000546001600160a01b03166107a157604051634eca2d6760e01b815260040160405180910390fd5b600054604051638fc9fef160e01b815260048101869052602481018590526001600160a01b038481166044830152346064830181905260848301859052921691638fc9fef19160a4016000604051808303818588803b15801561080357600080fd5b505af1158015610817573d6000803e3d6000fd5b5050604080516001600160a01b03871681523460208201528794508893507f74067246a35113666e7ea609db47ec0bceb8b77773497b430ca621d33584774f9250015b60405180910390a350505050565b6000546001600160a01b03163314610892576040516282b42960e81b815260040160405180910390fd5b60008181526002602052604090205460ff16156108c25760405163b6a9dccb60e01b815260040160405180910390fd5b60008181526002602081815260408084208054600160ff199182168117909255825160a0810184528881528085018881528185018881524260608401908152608084018a81528c8b529786905295892092518355905193820193909355915194820180546001600160a01b0319166001600160a01b0390961695909517909455905160038201559051600490910180549092169015151790556109658383610e71565b905060006108046001600160a01b03166003546103e884620f42406040516024016109929392919061101d565b60408051601f198184030181529181526020820180516001600160e01b031663264d0b5d60e11b179052516109c79190611056565b60006040518083038185875af1925050503d8060008114610a04576040519150601f19603f3d011682016040523d82523d6000602084013e610a09565b606091505b5050905080610a7f576000838152600260208181526040808420805460ff1990811690915588855260019283905281852085815592830185905592820180546001600160a01b03191690556003820193909355600490810180549092169091558151635af6029f60e11b81529151918290030190fd5b600084815260016020818152604092839020600401805460ff191690921790915560035482518681526103e89281019290925281830152905185917f08d358c9153a3812186e445a336e2a0ae80c731607bcb1d5a51c2fb2837a2d91919081900360600190a260405183815260009085907fcac5a633e731b02a143a870ecb5468aa823f4655f7edbe51c80620e0b79c84fa9060200161085a565b600354341015610b3c5760405162976f7560e21b815260040160405180910390fd5b60008181526002602052604090205460ff1615610b6c5760405163b6a9dccb60e01b815260040160405180910390fd5b60008181526002602081815260408084208054600160ff199182168117909255825160a0810184528881528085018881528185018881524260608401908152608084018a81528c8b529786905295892092518355905193820193909355915194820180546001600160a01b0319166001600160a01b039096169590951790945590516003820155905160049091018054909216901515179055610c0f8383610e71565b905060006108046001600160a01b03166003546103e884620f4240604051602401610c3c9392919061101d565b60408051601f198184030181529181526020820180516001600160e01b031663264d0b5d60e11b17905251610c719190611056565b60006040518083038185875af1925050503d8060008114610cae576040519150601f19603f3d011682016040523d82523d6000602084013e610cb3565b606091505b5050905080610d29576000838152600260208181526040808420805460ff1990811690915588855260019283905281852085815592830185905592820180546001600160a01b03191690556003820193909355600490810180549092169091558151635af6029f60e11b81529151918290030190fd5b600084815260016020818152604092839020600401805460ff191690921790915560035482518681526103e89281019290925281830152905185917f08d358c9153a3812186e445a336e2a0ae80c731607bcb1d5a51c2fb2837a2d91919081900360600190a260405183815260009085907fcac5a633e731b02a143a870ecb5468aa823f4655f7edbe51c80620e0b79c84fa9060200160405180910390a3600354341115610e6b576003546000903390610de39034611072565b604051600081818185875af1925050503d8060008114610e1f576040519150601f19603f3d011682016040523d82523d6000602084013e610e24565b606091505b5050905080610e695760405162461bcd60e51b8152602060048201526011602482015270119959481c99599d5b990819985a5b1959607a1b60448201526064016106b6565b505b50505050565b60606002620f424060008585604051602401610e97929190918252602082015260400190565b60408051601f19818403018152918152602080830180516001600160e01b0316633c6e19ab60e11b1790529051610ed2959493929101611093565b60405160208183030381529060405290505b92915050565b600060208284031215610efc57600080fd5b5035919050565b6001600160a01b03811681146106c157600080fd5b600080600060608486031215610f2d57600080fd5b8335610f3881610f03565b92506020840135610f4881610f03565b9150604084013563ffffffff81168114610f6157600080fd5b809150509250925092565b60008060008060808587031215610f8257600080fd5b84359350602085013592506040850135610f9b81610f03565b9396929550929360600135925050565b60008060408385031215610fbe57600080fd5b50508035926020909101359150565b60005b83811015610fe8578181015183820152602001610fd0565b50506000910152565b60008151808452611009816020860160208601610fcd565b601f01601f19169290920160200192915050565b63ffffffff8416815260606020820152600061103c6060830185610ff1565b905067ffffffffffffffff83166040830152949350505050565b60008251611068818460208701610fcd565b9190910192915050565b81810381811115610ee457634e487b7160e01b600052601160045260246000fd5b60ff8516815267ffffffffffffffff8416602082015260ff831660408201526080606082015260006110c86080830184610ff1565b969550505050505056fea26469706673582212201bfff0d14003083bf23034aefb078f916ada08121fe64de7cbc4f181b10d222164736f6c63430008170033",
  "devdoc": {
    "custom:security-contact": "security@dotfusion.io",
    "details": "Integrates with Polkadot's XCM Precompile for cross-chain atomic swap coordination",
    "kind": "dev",
    "methods": {
      "configureBridge(address,address,uint32)": {
        "params": {
          "_escrow": "Address of the Polkadot escrow contract",
          "_ethereumEscrow": "Address of the Ethereum escrow contract",
          "_ethereumParaId": "ParaId of the Ethereum parachain"
        }
      },
      "getMessage(bytes32)": {
        "params": {
          "swapId": "Swap identifier"
        },
        "returns": {
          "message": "XCM message struct"
        }
      },
      "isSecretPropagated(bytes32)": {
        "params": {
          "secret": "Secret to check"
        },
        "returns": {
          "propagated": "True if secret has been propagated"
        }
      },
      "propagateSecret(bytes32,bytes32)": {
        "params": {
          "secret": "Revealed secret",
          "swapId": "Swap identifier"
        }
      },
      "receiveFromEthereum(bytes32,bytes32,address,bytes32)": {
        "params": {
          "ethereumSender": "Original sender on Ethereum",
          "receiver": "Receiver address on Polkadot",
          "secretHash": "Hash of the secret",
          "swapId": "Unique swap identifier from Ethereum"
        }
      },
      "sendToEthereum(bytes32,bytes32)": {
        "details": "This function uses the XCM Precompile to send cross-chain messages",
        "params": {
          "secret": "Revealed secret",
          "swapId": "Swap identifier"
        }
      },
      "updateXCMFee(uint256)": {
        "params": {
          "_newFee": "New fee amount in wei"
        }
      }
    },
    "title": "DotFusion XCM Bridge",
    "version": 1
  },
  "userdoc": {
    "kind": "user",
    "methods": {
      "configureBridge(address,address,uint32)": {
        "notice": "Configure the bridge with escrow and Ethereum parachain details"
      },
      "getMessage(bytes32)": {
        "notice": "Get message details"
      },
      "isSecretPropagated(bytes32)": {
        "notice": "Check if secret has been propagated"
      },
      "propagateSecret(bytes32,bytes32)": {
        "notice": "Alternative method to propagate secret (called by escrow)"
      },
      "receiveFromEthereum(bytes32,bytes32,address,bytes32)": {
        "notice": "Receive cross-chain message from Ethereum"
      },
      "sendToEthereum(bytes32,bytes32)": {
        "notice": "Send revealed secret back to Ethereum via XCM"
      },
      "updateXCMFee(uint256)": {
        "notice": "Update XCM fee for cross-chain operations"
      },
      "withdrawFees()": {
        "notice": "Emergency function to withdraw accumulated fees"
      }
    },
    "notice": "Bridge coordinator using XCM Precompile for cross-chain messaging",
    "version": 1
  },
  "storageLayout": {
    "storage": [
      {
        "astId": 1862,
        "contract": "contracts/XCMBridge.sol:DotFusionXCMBridge",
        "label": "escrow",
        "offset": 0,
        "slot": "0",
        "type": "t_contract(DotFusionPolkadotEscrow)1841"
      },
      {
        "astId": 1876,
        "contract": "contracts/XCMBridge.sol:DotFusionXCMBridge",
        "label": "messages",
        "offset": 0,
        "slot": "1",
        "type": "t_mapping(t_bytes32,t_struct(XCMMessage)1857_storage)"
      },
      {
        "astId": 1880,
        "contract": "contracts/XCMBridge.sol:DotFusionXCMBridge",
        "label": "processedSecrets",
        "offset": 0,
        "slot": "2",
        "type": "t_mapping(t_bytes32,t_bool)"
      },
      {
        "astId": 1886,
        "contract": "contracts/XCMBridge.sol:DotFusionXCMBridge",
        "label": "xcmFee",
        "offset": 0,
        "slot": "3",
        "type": "t_uint256"
      }
    ],
    "types": {
      "t_address": {
        "encoding": "inplace",
        "label": "address",
        "numberOfBytes": "20"
      },
      "t_bool": {
        "encoding": "inplace",
        "label": "bool",
        "numberOfBytes": "1"
      },
      "t_bytes32": {
        "encoding": "inplace",
        "label": "bytes32",
        "numberOfBytes": "32"
      },
      "t_contract(DotFusionPolkadotEscrow)1841": {
        "encoding": "inplace",
        "label": "contract DotFusionPolkadotEscrow",
        "numberOfBytes": "20"
      },
      "t_mapping(t_bytes32,t_bool)": {
        "encoding": "mapping",
        "key": "t_bytes32",
        "label": "mapping(bytes32 => bool)",
        "numberOfBytes": "32",
        "value": "t_bool"
      },
      "t_mapping(t_bytes32,t_struct(XCMMessage)1857_storage)": {
        "encoding": "mapping",
        "key": "t_bytes32",
        "label": "mapping(bytes32 => struct DotFusionXCMBridge.XCMMessage)",
        "numberOfBytes": "32",
        "value": "t_struct(XCMMessage)1857_storage"
      },
      "t_struct(XCMMessage)1857_storage": {
        "encoding": "inplace",
        "label": "struct DotFusionXCMBridge.XCMMessage",
        "members": [
          {
            "astId": 1848,
            "contract": "contracts/XCMBridge.sol:DotFusionXCMBridge",
            "label": "swapId",
            "offset": 0,
            "slot": "0",
            "type": "t_bytes32"
          },
          {
            "astId": 1850,
            "contract": "contracts/XCMBridge.sol:DotFusionXCMBridge",
            "label": "secret",
            "offset": 0,
            "slot": "1",
            "type": "t_bytes32"
          },
          {
            "astId": 1852,
            "contract": "contracts/XCMBridge.sol:DotFusionXCMBridge",
            "label": "targetContract",
            "offset": 0,
            "slot": "2",
            "type": "t_address"
          },
          {
            "astId": 1854,
            "contract": "contracts/XCMBridge.sol:DotFusionXCMBridge",
            "label": "timestamp",
            "offset": 0,
            "slot": "3",
            "type": "t_uint256"
          },
          {
            "astId": 1856,
            "contract": "contracts/XCMBridge.sol:DotFusionXCMBridge",
            "label": "processed",
            "offset": 0,
            "slot": "4",
            "type": "t_bool"
          }
        ],
        "numberOfBytes": "160"
      },
      "t_uint256": {
        "encoding": "inplace",
        "label": "uint256",
        "numberOfBytes": "32"
      }
    }
  }
}