{
  "address": "0x0D865BeCD96c27D20D132465f1aC4C5c3a7d2E48",
  "abi": [
    {
      "inputs": [],
      "stateMutability": "nonpayable",
      "type": "constructor"
    },
    {
      "inputs": [],
      "name": "EscrowNotSet",
      "type": "error"
    },
    {
      "inputs": [],
      "name": "InvalidAddress",
      "type": "error"
    },
    {
      "inputs": [],
      "name": "Unauthorized",
      "type": "error"
    },
    {
      "anonymous": false,
      "inputs": [
        {
          "indexed": true,
          "internalType": "address",
          "name": "escrowAddress",
          "type": "address"
        },
        {
          "indexed": true,
          "internalType": "address",
          "name": "xcmPrecompileAddress",
          "type": "address"
        }
      ],
      "name": "BridgeDeployed",
      "type": "event"
    },
    {
      "anonymous": false,
      "inputs": [
        {
          "indexed": true,
          "internalType": "bytes32",
          "name": "swapId",
          "type": "bytes32"
        },
        {
          "indexed": true,
          "internalType": "bytes32",
          "name": "secretHash",
          "type": "bytes32"
        },
        {
          "indexed": false,
          "internalType": "address",
          "name": "receiver",
          "type": "address"
        },
        {
          "indexed": false,
          "internalType": "uint256",
          "name": "amount",
          "type": "uint256"
        }
      ],
      "name": "MessageReceived",
      "type": "event"
    },
    {
      "anonymous": false,
      "inputs": [
        {
          "indexed": true,
          "internalType": "bytes32",
          "name": "swapId",
          "type": "bytes32"
        },
        {
          "indexed": false,
          "internalType": "bytes32",
          "name": "secret",
          "type": "bytes32"
        }
      ],
      "name": "MessageSent",
      "type": "event"
    },
    {
      "inputs": [],
      "name": "XCM_PRECOMPILE",
      "outputs": [
        {
          "internalType": "address",
          "name": "",
          "type": "address"
        }
      ],
      "stateMutability": "view",
      "type": "function"
    },
    {
      "inputs": [],
      "name": "escrow",
      "outputs": [
        {
          "internalType": "contract DotFusionPolkadotEscrow",
          "name": "",
          "type": "address"
        }
      ],
      "stateMutability": "view",
      "type": "function"
    },
    {
      "inputs": [],
      "name": "owner",
      "outputs": [
        {
          "internalType": "address",
          "name": "",
          "type": "address"
        }
      ],
      "stateMutability": "view",
      "type": "function"
    },
    {
      "inputs": [
        {
          "internalType": "bytes32",
          "name": "swapId",
          "type": "bytes32"
        },
        {
          "internalType": "bytes32",
          "name": "secretHash",
          "type": "bytes32"
        },
        {
          "internalType": "address payable",
          "name": "receiver",
          "type": "address"
        },
        {
          "internalType": "bytes32",
          "name": "ethereumSender",
          "type": "bytes32"
        }
      ],
      "name": "receiveFromEthereum",
      "outputs": [],
      "stateMutability": "payable",
      "type": "function"
    },
    {
      "inputs": [
        {
          "internalType": "bytes32",
          "name": "swapId",
          "type": "bytes32"
        },
        {
          "internalType": "bytes32",
          "name": "secret",
          "type": "bytes32"
        }
      ],
      "name": "sendToEthereum",
      "outputs": [],
      "stateMutability": "payable",
      "type": "function"
    },
    {
      "inputs": [
        {
          "internalType": "address",
          "name": "_escrow",
          "type": "address"
        }
      ],
      "name": "setEscrow",
      "outputs": [],
      "stateMutability": "nonpayable",
      "type": "function"
    },
    {
      "stateMutability": "payable",
      "type": "receive"
    }
  ],
  "transactionHash": "0x42d9d0252f3b0ec40910d851f8f9ac13dd2f1efdcdd718034ff9d4153f2ab441",
  "args": [],
  "numDeployments": 1,
  "solcInputHash": "75f61bd8b93a9b4d8cde81de7793470c",
  "bytecode": "0x608060405234801561001057600080fd5b50600080546001600160a01b0319163317815560405161080491907fb4517e0fc228994c47e66a2286df4a4f1afadb1f8a5865d579c2189b3092e741908290a36103928061005f6000396000f3fe6080604052600436106100595760003560e01c8063077120cc146100655780638da5cb5b14610097578063c10c3546146100b7578063c782055e146100d9578063e2fdcc17146100ec578063f3ce326f1461010c57600080fd5b3661006057005b600080fd5b34801561007157600080fd5b5061007b61080481565b6040516001600160a01b03909116815260200160405180910390f35b3480156100a357600080fd5b5060005461007b906001600160a01b031681565b3480156100c357600080fd5b506100d76100d23660046102d7565b61011f565b005b6100d76100e73660046102fb565b610192565b3480156100f857600080fd5b5060015461007b906001600160a01b031681565b6100d761011a36600461033a565b610281565b6000546001600160a01b03163314610149576040516282b42960e81b815260040160405180910390fd5b6001600160a01b0381166101705760405163e6c4247b60e01b815260040160405180910390fd5b600180546001600160a01b0319166001600160a01b0392909216919091179055565b6001546001600160a01b03166101bb57604051634eca2d6760e01b815260040160405180910390fd5b600154604051638fc9fef160e01b815260048101869052602481018590526001600160a01b038481166044830152346064830181905260848301859052921691638fc9fef19160a4016000604051808303818588803b15801561021d57600080fd5b505af1158015610231573d6000803e3d6000fd5b5050604080516001600160a01b03871681523460208201528794508893507f74067246a35113666e7ea609db47ec0bceb8b77773497b430ca621d33584774f92500160405180910390a350505050565b817f9102b9031c3c59d8320bf14d84d7d7a3434366b91032fad1c87579cfc62b2372826040516102b391815260200190565b60405180910390a25050565b6001600160a01b03811681146102d457600080fd5b50565b6000602082840312156102e957600080fd5b81356102f4816102bf565b9392505050565b6000806000806080858703121561031157600080fd5b8435935060208501359250604085013561032a816102bf565b9396929550929360600135925050565b6000806040838503121561034d57600080fd5b5050803592602090910135915056fea26469706673582212209f48b29eeb238890447b19b45ce1dc5b497bfb6eccaec05270300226867d4ff264736f6c63430008170033",
  "devdoc": {
    "details": "Integrates with Polkadot's XCM Precompile and 1inch cross-chain-swap system",
    "kind": "dev",
    "methods": {
      "receiveFromEthereum(bytes32,bytes32,address,bytes32)": {
        "params": {
          "ethereumSender": "Original sender on Ethereum",
          "receiver": "Receiver address on Polkadot",
          "secretHash": "Hash of the secret",
          "swapId": "Unique swap identifier from Ethereum"
        }
      },
      "sendToEthereum(bytes32,bytes32)": {
        "params": {
          "secret": "Revealed secret",
          "swapId": "Swap identifier"
        }
      }
    },
    "title": "DotFusion XCM Bridge",
    "version": 1
  },
  "userdoc": {
    "kind": "user",
    "methods": {
      "receiveFromEthereum(bytes32,bytes32,address,bytes32)": {
        "notice": "Receive cross-chain message from Ethereum"
      },
      "sendToEthereum(bytes32,bytes32)": {
        "notice": "Send message back to Ethereum when swap is completed"
      }
    },
    "notice": "Bridge coordinator using XCM Precompile for cross-chain messaging",
    "version": 1
  },
  "storageLayout": {
    "storage": [
      {
        "astId": 2021,
        "contract": "contracts/XCMBridge.sol:DotFusionXCMBridge",
        "label": "owner",
        "offset": 0,
        "slot": "0",
        "type": "t_address"
      },
      {
        "astId": 2024,
        "contract": "contracts/XCMBridge.sol:DotFusionXCMBridge",
        "label": "escrow",
        "offset": 0,
        "slot": "1",
        "type": "t_contract(DotFusionPolkadotEscrow)2014"
      }
    ],
    "types": {
      "t_address": {
        "encoding": "inplace",
        "label": "address",
        "numberOfBytes": "20"
      },
      "t_contract(DotFusionPolkadotEscrow)2014": {
        "encoding": "inplace",
        "label": "contract DotFusionPolkadotEscrow",
        "numberOfBytes": "20"
      }
    }
  }
}