{
  "address": "0x83124fbd0a1Cf1ae5774fc30e8B733de1FE72751",
  "abi": [
    {
      "inputs": [
        {
          "internalType": "uint32",
          "name": "_rescueDelay",
          "type": "uint32"
        },
        {
          "internalType": "contract IERC20",
          "name": "_accessToken",
          "type": "address"
        }
      ],
      "stateMutability": "nonpayable",
      "type": "constructor"
    },
    {
      "inputs": [
        {
          "internalType": "address",
          "name": "target",
          "type": "address"
        }
      ],
      "name": "AddressEmptyCode",
      "type": "error"
    },
    {
      "inputs": [
        {
          "internalType": "address",
          "name": "account",
          "type": "address"
        }
      ],
      "name": "AddressInsufficientBalance",
      "type": "error"
    },
    {
      "inputs": [],
      "name": "FailedInnerCall",
      "type": "error"
    },
    {
      "inputs": [],
      "name": "InvalidAmount",
      "type": "error"
    },
    {
      "inputs": [],
      "name": "InvalidParameters",
      "type": "error"
    },
    {
      "inputs": [],
      "name": "InvalidSecret",
      "type": "error"
    },
    {
      "inputs": [],
      "name": "InvalidSecretHash",
      "type": "error"
    },
    {
      "inputs": [
        {
          "internalType": "address",
          "name": "token",
          "type": "address"
        }
      ],
      "name": "SafeERC20FailedOperation",
      "type": "error"
    },
    {
      "inputs": [],
      "name": "SwapAlreadyExists",
      "type": "error"
    },
    {
      "inputs": [],
      "name": "SwapDoesNotExist",
      "type": "error"
    },
    {
      "inputs": [],
      "name": "SwapNotOpen",
      "type": "error"
    },
    {
      "inputs": [],
      "name": "TimelockNotExpired",
      "type": "error"
    },
    {
      "inputs": [],
      "name": "TransferFailed",
      "type": "error"
    },
    {
      "inputs": [],
      "name": "Unauthorized",
      "type": "error"
    },
    {
      "anonymous": false,
      "inputs": [
        {
          "indexed": true,
          "internalType": "bytes32",
          "name": "swapId",
          "type": "bytes32"
        },
        {
          "indexed": false,
          "internalType": "address",
          "name": "token",
          "type": "address"
        },
        {
          "indexed": false,
          "internalType": "uint256",
          "name": "amount",
          "type": "uint256"
        }
      ],
      "name": "FundsRescued",
      "type": "event"
    },
    {
      "anonymous": false,
      "inputs": [
        {
          "indexed": true,
          "internalType": "bytes32",
          "name": "swapId",
          "type": "bytes32"
        }
      ],
      "name": "SwapCancelled",
      "type": "event"
    },
    {
      "anonymous": false,
      "inputs": [
        {
          "indexed": true,
          "internalType": "bytes32",
          "name": "swapId",
          "type": "bytes32"
        },
        {
          "indexed": false,
          "internalType": "bytes32",
          "name": "secret",
          "type": "bytes32"
        }
      ],
      "name": "SwapCompleted",
      "type": "event"
    },
    {
      "anonymous": false,
      "inputs": [
        {
          "indexed": true,
          "internalType": "bytes32",
          "name": "swapId",
          "type": "bytes32"
        },
        {
          "indexed": true,
          "internalType": "bytes32",
          "name": "secretHash",
          "type": "bytes32"
        },
        {
          "indexed": true,
          "internalType": "address",
          "name": "maker",
          "type": "address"
        },
        {
          "indexed": false,
          "internalType": "address",
          "name": "taker",
          "type": "address"
        },
        {
          "indexed": false,
          "internalType": "address",
          "name": "token",
          "type": "address"
        },
        {
          "indexed": false,
          "internalType": "uint256",
          "name": "amount",
          "type": "uint256"
        },
        {
          "indexed": false,
          "internalType": "uint256",
          "name": "unlockTime",
          "type": "uint256"
        }
      ],
      "name": "SwapCreated",
      "type": "event"
    },
    {
      "inputs": [],
      "name": "accessToken",
      "outputs": [
        {
          "internalType": "contract IERC20",
          "name": "",
          "type": "address"
        }
      ],
      "stateMutability": "view",
      "type": "function"
    },
    {
      "inputs": [
        {
          "internalType": "bytes32",
          "name": "swapId",
          "type": "bytes32"
        }
      ],
      "name": "canCancel",
      "outputs": [
        {
          "internalType": "bool",
          "name": "",
          "type": "bool"
        }
      ],
      "stateMutability": "view",
      "type": "function"
    },
    {
      "inputs": [
        {
          "internalType": "bytes32",
          "name": "swapId",
          "type": "bytes32"
        }
      ],
      "name": "cancelSwap",
      "outputs": [],
      "stateMutability": "nonpayable",
      "type": "function"
    },
    {
      "inputs": [
        {
          "internalType": "bytes32",
          "name": "swapId",
          "type": "bytes32"
        },
        {
          "internalType": "bytes32",
          "name": "secret",
          "type": "bytes32"
        },
        {
          "internalType": "address",
          "name": "target",
          "type": "address"
        }
      ],
      "name": "completeSwap",
      "outputs": [],
      "stateMutability": "nonpayable",
      "type": "function"
    },
    {
      "inputs": [
        {
          "internalType": "bytes32",
          "name": "swapId",
          "type": "bytes32"
        },
        {
          "internalType": "bytes32",
          "name": "secretHash",
          "type": "bytes32"
        },
        {
          "internalType": "address payable",
          "name": "maker",
          "type": "address"
        },
        {
          "internalType": "contract IERC20",
          "name": "token",
          "type": "address"
        },
        {
          "internalType": "uint256",
          "name": "amount",
          "type": "uint256"
        },
        {
          "internalType": "uint256",
          "name": "timelock",
          "type": "uint256"
        }
      ],
      "name": "createSwap",
      "outputs": [],
      "stateMutability": "payable",
      "type": "function"
    },
    {
      "inputs": [
        {
          "internalType": "bytes32",
          "name": "swapId",
          "type": "bytes32"
        }
      ],
      "name": "getSwap",
      "outputs": [
        {
          "components": [
            {
              "internalType": "bytes32",
              "name": "secretHash",
              "type": "bytes32"
            },
            {
              "internalType": "address payable",
              "name": "maker",
              "type": "address"
            },
            {
              "internalType": "address payable",
              "name": "taker",
              "type": "address"
            },
            {
              "internalType": "contract IERC20",
              "name": "token",
              "type": "address"
            },
            {
              "internalType": "uint256",
              "name": "amount",
              "type": "uint256"
            },
            {
              "internalType": "uint256",
              "name": "safetyDeposit",
              "type": "uint256"
            },
            {
              "internalType": "uint256",
              "name": "unlockTime",
              "type": "uint256"
            },
            {
              "internalType": "enum DotFusionPolkadotEscrow.SwapState",
              "name": "state",
              "type": "uint8"
            },
            {
              "internalType": "bytes32",
              "name": "swapId",
              "type": "bytes32"
            }
          ],
          "internalType": "struct DotFusionPolkadotEscrow.Swap",
          "name": "swap",
          "type": "tuple"
        }
      ],
      "stateMutability": "view",
      "type": "function"
    },
    {
      "inputs": [
        {
          "internalType": "bytes32",
          "name": "swapId",
          "type": "bytes32"
        },
        {
          "internalType": "bytes32",
          "name": "secret",
          "type": "bytes32"
        }
      ],
      "name": "isValidSecret",
      "outputs": [
        {
          "internalType": "bool",
          "name": "",
          "type": "bool"
        }
      ],
      "stateMutability": "view",
      "type": "function"
    },
    {
      "inputs": [],
      "name": "owner",
      "outputs": [
        {
          "internalType": "address",
          "name": "",
          "type": "address"
        }
      ],
      "stateMutability": "view",
      "type": "function"
    },
    {
      "inputs": [
        {
          "internalType": "bytes32",
          "name": "swapId",
          "type": "bytes32"
        }
      ],
      "name": "publicCancelSwap",
      "outputs": [],
      "stateMutability": "nonpayable",
      "type": "function"
    },
    {
      "inputs": [
        {
          "internalType": "bytes32",
          "name": "swapId",
          "type": "bytes32"
        },
        {
          "internalType": "bytes32",
          "name": "secretHash",
          "type": "bytes32"
        },
        {
          "internalType": "address payable",
          "name": "receiver",
          "type": "address"
        },
        {
          "internalType": "uint256",
          "name": "amount",
          "type": "uint256"
        },
        {
          "internalType": "bytes32",
          "name": "ethereumSender",
          "type": "bytes32"
        }
      ],
      "name": "receiveSwap",
      "outputs": [],
      "stateMutability": "payable",
      "type": "function"
    },
    {
      "inputs": [],
      "name": "rescueDelay",
      "outputs": [
        {
          "internalType": "uint32",
          "name": "",
          "type": "uint32"
        }
      ],
      "stateMutability": "view",
      "type": "function"
    },
    {
      "inputs": [
        {
          "internalType": "bytes32",
          "name": "swapId",
          "type": "bytes32"
        }
      ],
      "name": "rescueFunds",
      "outputs": [],
      "stateMutability": "nonpayable",
      "type": "function"
    },
    {
      "inputs": [
        {
          "internalType": "bytes32",
          "name": "",
          "type": "bytes32"
        }
      ],
      "name": "swaps",
      "outputs": [
        {
          "internalType": "bytes32",
          "name": "secretHash",
          "type": "bytes32"
        },
        {
          "internalType": "address payable",
          "name": "maker",
          "type": "address"
        },
        {
          "internalType": "address payable",
          "name": "taker",
          "type": "address"
        },
        {
          "internalType": "contract IERC20",
          "name": "token",
          "type": "address"
        },
        {
          "internalType": "uint256",
          "name": "amount",
          "type": "uint256"
        },
        {
          "internalType": "uint256",
          "name": "safetyDeposit",
          "type": "uint256"
        },
        {
          "internalType": "uint256",
          "name": "unlockTime",
          "type": "uint256"
        },
        {
          "internalType": "enum DotFusionPolkadotEscrow.SwapState",
          "name": "state",
          "type": "uint8"
        },
        {
          "internalType": "bytes32",
          "name": "swapId",
          "type": "bytes32"
        }
      ],
      "stateMutability": "view",
      "type": "function"
    },
    {
      "stateMutability": "payable",
      "type": "receive"
    }
  ],
  "transactionHash": "0xa033938324692b7db42ccea643ee5c0c4fd7d3a9707402db15f9c0a19d831fdf",
  "args": [
    604800,
    "0x0000000000000000000000000000000000000000"
  ],
  "numDeployments": 1,
  "solcInputHash": "75f61bd8b93a9b4d8cde81de7793470c",
  "bytecode": "0x60e060405234801561001057600080fd5b5060405161139638038061139683398101604081905261002f9161004f565b3360805263ffffffff90911660a0526001600160a01b031660c05261009e565b6000806040838503121561006257600080fd5b825163ffffffff8116811461007657600080fd5b60208401519092506001600160a01b038116811461009357600080fd5b809150509250929050565b60805160a05160c0516112a66100f06000396000818161025e015281816109e10152610a2701526000818161031e015261058e0152600081816101bf0152818161050901526105fe01526112a66000f3fe6080604052600436106100c65760003560e01c80638da5cb5b1161007f578063d541beb311610059578063d541beb31461022c578063e243c5fb1461024c578063eb84e7f214610280578063f143d8a01461030c57600080fd5b80638da5cb5b146101ad5780638fc9fef1146101f9578063bffbf4dc1461020c57600080fd5b80631b4858a5146100d257806321922931146100f45780633da0e66e146101145780634287e3581461014a578063541cb23e1461017a5780636476fd3c1461018d57600080fd5b366100cd57005b600080fd5b3480156100de57600080fd5b506100f26100ed366004610fba565b610355565b005b34801561010057600080fd5b506100f261010f366004610ff3565b6104fe565b34801561012057600080fd5b5061013461012f366004610ff3565b610677565b6040516101419190611044565b60405180910390f35b34801561015657600080fd5b5061016a6101653660046110c0565b610773565b6040519015158152602001610141565b6100f26101883660046110e2565b6107ad565b34801561019957600080fd5b506100f26101a8366004610ff3565b6109df565b3480156101b957600080fd5b506101e17f000000000000000000000000000000000000000000000000000000000000000081565b6040516001600160a01b039091168152602001610141565b6100f261020736600461113e565b610c3e565b34801561021857600080fd5b5061016a610227366004610ff3565b610c7f565b34801561023857600080fd5b506100f2610247366004610ff3565b610cc0565b34801561025857600080fd5b506101e17f000000000000000000000000000000000000000000000000000000000000000081565b34801561028c57600080fd5b506102f761029b366004610ff3565b60006020819052908152604090208054600182015460028301546003840154600485015460058601546006870154600788015460089098015496976001600160a01b0396871697958716969094169492939192909160ff169089565b60405161014199989796959493929190611187565b34801561031857600080fd5b506103407f000000000000000000000000000000000000000000000000000000000000000081565b60405163ffffffff9091168152602001610141565b600083815260208190526040812090600782015460ff16600381111561037d5761037d61100c565b0361039b57604051631a40316d60e01b815260040160405180910390fd5b6001600782015460ff1660038111156103b6576103b661100c565b146103d457604051638d393d0b60e01b815260040160405180910390fd5b805460408051602081018690520160405160208183030381529060405280519060200120146104165760405163abab6bd760e01b815260040160405180910390fd5b60078101805460ff1916600217905560048101546003820154610446916001600160a01b03909116908490610d90565b6005810154156104be57600581015460405160009133918381818185875af1925050503d8060008114610495576040519150601f19603f3d011682016040523d82523d6000602084013e61049a565b606091505b50509050806104bc576040516312171d8360e31b815260040160405180910390fd5b505b837f7430d80e0e3cfb925010ff8993f6a56392199211e297fc7825278f29980ccf51846040516104f091815260200190565b60405180910390a250505050565b336001600160a01b037f00000000000000000000000000000000000000000000000000000000000000001614610546576040516282b42960e81b815260040160405180910390fd5b600081815260208190526040812090600782015460ff16600381111561056e5761056e61100c565b0361058c57604051631a40316d60e01b815260040160405180910390fd5b7f000000000000000000000000000000000000000000000000000000000000000063ffffffff1681600601546105c291906111e5565b4210156105e25760405163621e25c360e01b815260040160405180910390fd5b60048101546003820154610623916001600160a01b03909116907f000000000000000000000000000000000000000000000000000000000000000090610d90565b60038101546004820154604080516001600160a01b039093168352602083019190915283917fa35104aa8a532c97c48611c8cb3aba648a775480373089a088bb0170db273523910160405180910390a25050565b6040805161012081018252600080825260208201819052918101829052606081018290526080810182905260a0810182905260c0810182905260e08101829052610100810191909152600082815260208181526040918290208251610120810184528154815260018201546001600160a01b03908116938201939093526002820154831693810193909352600380820154909216606084015260048101546080840152600581015460a0840152600681015460c08401526007810154909160e084019160ff169081111561074d5761074d61100c565b600381111561075e5761075e61100c565b81526020016008820154815250509050919050565b6000828152602081815260408083205481519283018590529101604051602081830303815290604052805190602001201490505b92915050565b846107cb5760405163d6502e2b60e01b815260040160405180910390fd5b816000036107ec5760405163162908e360e11b815260040160405180910390fd5b60008681526020819052604081206007015460ff1660038111156108125761081261100c565b14610830576040516339a2986760e11b815260040160405180910390fd5b6108456001600160a01b038416333085610df4565b600061085182426111e5565b9050604051806101200160405280878152602001866001600160a01b03168152602001336001600160a01b03168152602001856001600160a01b03168152602001848152602001348152602001828152602001600160038111156108b7576108b761100c565b8152602090810189905260008981528082526040908190208351815591830151600180840180546001600160a01b03199081166001600160a01b039485161790915592850151600285018054851691841691909117905560608501516003808601805490951691909316179092556080840151600484015560a0840151600584015560c0840151600684015560e08401516007840180549193909260ff1990921691849081111561096a5761096a61100c565b02179055506101009190910151600890910155604080513381526001600160a01b0386811660208301529181018590526060810183905290861690879089907f8fff31b7eeb2ae9daa1a973ccf5022c30c38c3ffcb54904f4a50ca205194bc019060800160405180910390a450505050505050565b7f00000000000000000000000000000000000000000000000000000000000000006001600160a01b031615801590610a9c57506040516370a0823160e01b81523360048201527f00000000000000000000000000000000000000000000000000000000000000006001600160a01b0316906370a0823190602401602060405180830381865afa158015610a76573d6000803e3d6000fd5b505050506040513d601f19601f82011682018060405250810190610a9a9190611206565b155b15610ab9576040516282b42960e81b815260040160405180910390fd5b600081815260208190526040812090600782015460ff166003811115610ae157610ae161100c565b03610aff57604051631a40316d60e01b815260040160405180910390fd5b6001600782015460ff166003811115610b1a57610b1a61100c565b14610b3857604051638d393d0b60e01b815260040160405180910390fd5b8060060154421015610b5d5760405163621e25c360e01b815260040160405180910390fd5b60078101805460ff191660039081179091556002820154600483015491830154610b97926001600160a01b03918216929190911690610d90565b600581015415610c0f57600581015460405160009133918381818185875af1925050503d8060008114610be6576040519150601f19603f3d011682016040523d82523d6000602084013e610beb565b606091505b5050905080610c0d576040516312171d8360e31b815260040160405180910390fd5b505b60405182907f5a399591cfd74c375a1ffd61c20221db0db82381f65516889ed13c8cd1f99d5b90600090a25050565b847f7430d80e0e3cfb925010ff8993f6a56392199211e297fc7825278f29980ccf5185604051610c7091815260200190565b60405180910390a25050505050565b60008181526020819052604081206001600782015460ff166003811115610ca857610ca861100c565b148015610cb9575080600601544210155b9392505050565b600081815260208190526040812090600782015460ff166003811115610ce857610ce861100c565b03610d0657604051631a40316d60e01b815260040160405180910390fd5b6001600782015460ff166003811115610d2157610d2161100c565b14610d3f57604051638d393d0b60e01b815260040160405180910390fd5b8060060154421015610d645760405163621e25c360e01b815260040160405180910390fd5b60028101546001600160a01b03163314610b5d576040516282b42960e81b815260040160405180910390fd5b6040516001600160a01b03838116602483015260448201839052610def91859182169063a9059cbb906064015b604051602081830303815290604052915060e01b6020820180516001600160e01b038381831617835250505050610e33565b505050565b6040516001600160a01b038481166024830152838116604483015260648201839052610e2d9186918216906323b872dd90608401610dbd565b50505050565b6000610e486001600160a01b03841683610e9b565b90508051600014158015610e6d575080806020019051810190610e6b919061121f565b155b15610def57604051635274afe760e01b81526001600160a01b03841660048201526024015b60405180910390fd5b6060610cb98383600084600080856001600160a01b03168486604051610ec19190611241565b60006040518083038185875af1925050503d8060008114610efe576040519150601f19603f3d011682016040523d82523d6000602084013e610f03565b606091505b5091509150610f13868383610f1d565b9695505050505050565b606082610f3257610f2d82610f79565b610cb9565b8151158015610f4957506001600160a01b0384163b155b15610f7257604051639996b31560e01b81526001600160a01b0385166004820152602401610e92565b5080610cb9565b805115610f895780518082602001fd5b604051630a12f52160e11b815260040160405180910390fd5b50565b6001600160a01b0381168114610fa257600080fd5b600080600060608486031215610fcf57600080fd5b83359250602084013591506040840135610fe881610fa5565b809150509250925092565b60006020828403121561100557600080fd5b5035919050565b634e487b7160e01b600052602160045260246000fd5b6004811061104057634e487b7160e01b600052602160045260246000fd5b9052565b815181526020808301516001600160a01b039081169183019190915260408084015182169083015260608084015191821690830152610120820190506080830151608083015260a083015160a083015260c083015160c083015260e08301516110b060e0840182611022565b5061010092830151919092015290565b600080604083850312156110d357600080fd5b50508035926020909101359150565b60008060008060008060c087890312156110fb57600080fd5b8635955060208701359450604087013561111481610fa5565b9350606087013561112481610fa5565b9598949750929560808101359460a0909101359350915050565b600080600080600060a0868803121561115657600080fd5b8535945060208601359350604086013561116f81610fa5565b94979396509394606081013594506080013592915050565b8981526001600160a01b0389811660208301528881166040830152871660608201526080810186905260a0810185905260c0810184905261012081016111d060e0830185611022565b826101008301529a9950505050505050505050565b808201808211156107a757634e487b7160e01b600052601160045260246000fd5b60006020828403121561121857600080fd5b5051919050565b60006020828403121561123157600080fd5b81518015158114610cb957600080fd5b6000825160005b818110156112625760208186018101518583015201611248565b50600092019182525091905056fea2646970667358221220a88efd67bcdc390fac7876dda1599beb10147199a0ca9bc1bc319c69e8573cb564736f6c63430008170033",
  "devdoc": {
    "custom:security-contact": "security@dotfusion.io",
    "details": "This contract handles multiple swaps simultaneously. Each swap is identified by a unique swapId. Funds are locked when users initiate swaps, and unlocked when secrets are revealed.",
    "errors": {
      "AddressEmptyCode(address)": [
        {
          "details": "There's no code at `target` (it is not a contract)."
        }
      ],
      "AddressInsufficientBalance(address)": [
        {
          "details": "The ETH balance of the account is not enough to perform the operation."
        }
      ],
      "FailedInnerCall()": [
        {
          "details": "A call to an address target failed. The target may have reverted."
        }
      ],
      "SafeERC20FailedOperation(address)": [
        {
          "details": "An operation with an ERC20 token failed."
        }
      ]
    },
    "kind": "dev",
    "methods": {
      "canCancel(bytes32)": {
        "params": {
          "swapId": "Unique swap identifier"
        },
        "returns": {
          "_0": "canCancel True if timelock expired and swap is still open"
        }
      },
      "cancelSwap(bytes32)": {
        "params": {
          "swapId": "Unique swap identifier"
        }
      },
      "completeSwap(bytes32,bytes32,address)": {
        "params": {
          "secret": "Preimage of secretHash",
          "swapId": "Unique swap identifier",
          "target": "Address to receive the tokens"
        }
      },
      "createSwap(bytes32,bytes32,address,address,uint256,uint256)": {
        "params": {
          "amount": "Amount of tokens",
          "maker": "Address of the maker",
          "secretHash": "Hash of the secret",
          "swapId": "Unique identifier for this swap",
          "timelock": "Duration before cancellation is allowed",
          "token": "Token to be swapped"
        }
      },
      "getSwap(bytes32)": {
        "params": {
          "swapId": "Unique swap identifier"
        },
        "returns": {
          "swap": "Full swap struct"
        }
      },
      "isValidSecret(bytes32,bytes32)": {
        "params": {
          "secret": "Preimage to test",
          "swapId": "Unique swap identifier"
        },
        "returns": {
          "_0": "isValid True if secret matches secretHash"
        }
      },
      "publicCancelSwap(bytes32)": {
        "params": {
          "swapId": "Unique swap identifier"
        }
      },
      "receiveSwap(bytes32,bytes32,address,uint256,bytes32)": {
        "details": "Called by the XCM bridge contract for backward compatibility",
        "params": {
          "amount": "Amount to lock",
          "ethereumSender": "Original sender on Ethereum",
          "receiver": "Receiver address on Polkadot",
          "secretHash": "Hash of the secret",
          "swapId": "Unique swap identifier (from Ethereum)"
        }
      },
      "rescueFunds(bytes32)": {
        "params": {
          "swapId": "Unique swap identifier"
        }
      }
    },
    "title": "DotFusion Polkadot Escrow (Destination)",
    "version": 1
  },
  "userdoc": {
    "kind": "user",
    "methods": {
      "canCancel(bytes32)": {
        "notice": "Check if swap can be cancelled"
      },
      "cancelSwap(bytes32)": {
        "notice": "Cancel a swap after timelock expires"
      },
      "completeSwap(bytes32,bytes32,address)": {
        "notice": "Complete a swap by revealing the secret"
      },
      "createSwap(bytes32,bytes32,address,address,uint256,uint256)": {
        "notice": "Create a new swap"
      },
      "getSwap(bytes32)": {
        "notice": "Get swap details"
      },
      "isValidSecret(bytes32,bytes32)": {
        "notice": "Check if secret is valid for a swap"
      },
      "publicCancelSwap(bytes32)": {
        "notice": "Public cancellation function (for access token holders)"
      },
      "receiveSwap(bytes32,bytes32,address,uint256,bytes32)": {
        "notice": "Receive a cross-chain swap message from Ethereum (XCM Bridge compatibility)"
      },
      "rescueFunds(bytes32)": {
        "notice": "Rescue funds from a swap after rescue delay"
      }
    },
    "notice": "Destination escrow contract for cross-chain atomic swaps on Polkadot",
    "version": 1
  },
  "storageLayout": {
    "storage": [
      {
        "astId": 1367,
        "contract": "contracts/PolkadotEscrow.sol:DotFusionPolkadotEscrow",
        "label": "swaps",
        "offset": 0,
        "slot": "0",
        "type": "t_mapping(t_bytes32,t_struct(Swap)1362_storage)"
      }
    ],
    "types": {
      "t_address_payable": {
        "encoding": "inplace",
        "label": "address payable",
        "numberOfBytes": "20"
      },
      "t_bytes32": {
        "encoding": "inplace",
        "label": "bytes32",
        "numberOfBytes": "32"
      },
      "t_contract(IERC20)77": {
        "encoding": "inplace",
        "label": "contract IERC20",
        "numberOfBytes": "20"
      },
      "t_enum(SwapState)1341": {
        "encoding": "inplace",
        "label": "enum DotFusionPolkadotEscrow.SwapState",
        "numberOfBytes": "1"
      },
      "t_mapping(t_bytes32,t_struct(Swap)1362_storage)": {
        "encoding": "mapping",
        "key": "t_bytes32",
        "label": "mapping(bytes32 => struct DotFusionPolkadotEscrow.Swap)",
        "numberOfBytes": "32",
        "value": "t_struct(Swap)1362_storage"
      },
      "t_struct(Swap)1362_storage": {
        "encoding": "inplace",
        "label": "struct DotFusionPolkadotEscrow.Swap",
        "members": [
          {
            "astId": 1343,
            "contract": "contracts/PolkadotEscrow.sol:DotFusionPolkadotEscrow",
            "label": "secretHash",
            "offset": 0,
            "slot": "0",
            "type": "t_bytes32"
          },
          {
            "astId": 1345,
            "contract": "contracts/PolkadotEscrow.sol:DotFusionPolkadotEscrow",
            "label": "maker",
            "offset": 0,
            "slot": "1",
            "type": "t_address_payable"
          },
          {
            "astId": 1347,
            "contract": "contracts/PolkadotEscrow.sol:DotFusionPolkadotEscrow",
            "label": "taker",
            "offset": 0,
            "slot": "2",
            "type": "t_address_payable"
          },
          {
            "astId": 1350,
            "contract": "contracts/PolkadotEscrow.sol:DotFusionPolkadotEscrow",
            "label": "token",
            "offset": 0,
            "slot": "3",
            "type": "t_contract(IERC20)77"
          },
          {
            "astId": 1352,
            "contract": "contracts/PolkadotEscrow.sol:DotFusionPolkadotEscrow",
            "label": "amount",
            "offset": 0,
            "slot": "4",
            "type": "t_uint256"
          },
          {
            "astId": 1354,
            "contract": "contracts/PolkadotEscrow.sol:DotFusionPolkadotEscrow",
            "label": "safetyDeposit",
            "offset": 0,
            "slot": "5",
            "type": "t_uint256"
          },
          {
            "astId": 1356,
            "contract": "contracts/PolkadotEscrow.sol:DotFusionPolkadotEscrow",
            "label": "unlockTime",
            "offset": 0,
            "slot": "6",
            "type": "t_uint256"
          },
          {
            "astId": 1359,
            "contract": "contracts/PolkadotEscrow.sol:DotFusionPolkadotEscrow",
            "label": "state",
            "offset": 0,
            "slot": "7",
            "type": "t_enum(SwapState)1341"
          },
          {
            "astId": 1361,
            "contract": "contracts/PolkadotEscrow.sol:DotFusionPolkadotEscrow",
            "label": "swapId",
            "offset": 0,
            "slot": "8",
            "type": "t_bytes32"
          }
        ],
        "numberOfBytes": "288"
      },
      "t_uint256": {
        "encoding": "inplace",
        "label": "uint256",
        "numberOfBytes": "32"
      }
    }
  }
}