{
  "address": "0xD70DD3659DddB5Cf2F14BD194a1824344280D032",
  "abi": [
    {
      "inputs": [
        {
          "internalType": "uint32",
          "name": "_rescueDelay",
          "type": "uint32"
        },
        {
          "internalType": "address",
          "name": "_accessToken",
          "type": "address"
        }
      ],
      "stateMutability": "nonpayable",
      "type": "constructor"
    },
    {
      "inputs": [],
      "name": "InvalidAmount",
      "type": "error"
    },
    {
      "inputs": [],
      "name": "InvalidParameters",
      "type": "error"
    },
    {
      "inputs": [],
      "name": "InvalidSecret",
      "type": "error"
    },
    {
      "inputs": [],
      "name": "InvalidSecretHash",
      "type": "error"
    },
    {
      "inputs": [],
      "name": "ReentrancyGuardReentrantCall",
      "type": "error"
    },
    {
      "inputs": [],
      "name": "SwapAlreadyExists",
      "type": "error"
    },
    {
      "inputs": [],
      "name": "SwapDoesNotExist",
      "type": "error"
    },
    {
      "inputs": [],
      "name": "SwapNotOpen",
      "type": "error"
    },
    {
      "inputs": [],
      "name": "TimelockNotExpired",
      "type": "error"
    },
    {
      "inputs": [],
      "name": "TransferFailed",
      "type": "error"
    },
    {
      "inputs": [],
      "name": "Unauthorized",
      "type": "error"
    },
    {
      "anonymous": false,
      "inputs": [
        {
          "indexed": true,
          "internalType": "bytes32",
          "name": "swapId",
          "type": "bytes32"
        },
        {
          "indexed": false,
          "internalType": "uint256",
          "name": "ethAmount",
          "type": "uint256"
        }
      ],
      "name": "FundsRescued",
      "type": "event"
    },
    {
      "anonymous": false,
      "inputs": [
        {
          "indexed": true,
          "internalType": "bytes32",
          "name": "swapId",
          "type": "bytes32"
        }
      ],
      "name": "SwapCancelled",
      "type": "event"
    },
    {
      "anonymous": false,
      "inputs": [
        {
          "indexed": true,
          "internalType": "bytes32",
          "name": "swapId",
          "type": "bytes32"
        },
        {
          "indexed": false,
          "internalType": "bytes32",
          "name": "secret",
          "type": "bytes32"
        }
      ],
      "name": "SwapCompleted",
      "type": "event"
    },
    {
      "anonymous": false,
      "inputs": [
        {
          "indexed": true,
          "internalType": "bytes32",
          "name": "swapId",
          "type": "bytes32"
        },
        {
          "indexed": true,
          "internalType": "bytes32",
          "name": "secretHash",
          "type": "bytes32"
        },
        {
          "indexed": true,
          "internalType": "address",
          "name": "maker",
          "type": "address"
        },
        {
          "indexed": false,
          "internalType": "address",
          "name": "taker",
          "type": "address"
        },
        {
          "indexed": false,
          "internalType": "uint256",
          "name": "ethAmount",
          "type": "uint256"
        },
        {
          "indexed": false,
          "internalType": "uint256",
          "name": "dotAmount",
          "type": "uint256"
        },
        {
          "indexed": false,
          "internalType": "uint256",
          "name": "exchangeRate",
          "type": "uint256"
        },
        {
          "indexed": false,
          "internalType": "uint256",
          "name": "unlockTime",
          "type": "uint256"
        },
        {
          "indexed": false,
          "internalType": "bytes32",
          "name": "polkadotSender",
          "type": "bytes32"
        }
      ],
      "name": "SwapCreated",
      "type": "event"
    },
    {
      "inputs": [],
      "name": "accessToken",
      "outputs": [
        {
          "internalType": "address",
          "name": "",
          "type": "address"
        }
      ],
      "stateMutability": "view",
      "type": "function"
    },
    {
      "inputs": [
        {
          "internalType": "bytes32",
          "name": "swapId",
          "type": "bytes32"
        }
      ],
      "name": "canCancel",
      "outputs": [
        {
          "internalType": "bool",
          "name": "",
          "type": "bool"
        }
      ],
      "stateMutability": "view",
      "type": "function"
    },
    {
      "inputs": [
        {
          "internalType": "bytes32",
          "name": "swapId",
          "type": "bytes32"
        }
      ],
      "name": "cancelSwap",
      "outputs": [],
      "stateMutability": "nonpayable",
      "type": "function"
    },
    {
      "inputs": [
        {
          "internalType": "bytes32",
          "name": "swapId",
          "type": "bytes32"
        },
        {
          "internalType": "bytes32",
          "name": "secret",
          "type": "bytes32"
        }
      ],
      "name": "completeSwap",
      "outputs": [],
      "stateMutability": "nonpayable",
      "type": "function"
    },
    {
      "inputs": [
        {
          "internalType": "bytes32",
          "name": "swapId",
          "type": "bytes32"
        },
        {
          "internalType": "bytes32",
          "name": "secretHash",
          "type": "bytes32"
        },
        {
          "internalType": "address payable",
          "name": "taker",
          "type": "address"
        },
        {
          "internalType": "uint256",
          "name": "ethAmount",
          "type": "uint256"
        },
        {
          "internalType": "uint256",
          "name": "dotAmount",
          "type": "uint256"
        },
        {
          "internalType": "uint256",
          "name": "exchangeRate",
          "type": "uint256"
        },
        {
          "internalType": "uint256",
          "name": "timelock",
          "type": "uint256"
        },
        {
          "internalType": "bytes32",
          "name": "polkadotSender",
          "type": "bytes32"
        }
      ],
      "name": "createSwap",
      "outputs": [],
      "stateMutability": "payable",
      "type": "function"
    },
    {
      "inputs": [
        {
          "internalType": "bytes32",
          "name": "swapId",
          "type": "bytes32"
        }
      ],
      "name": "getSwap",
      "outputs": [
        {
          "components": [
            {
              "internalType": "bytes32",
              "name": "secretHash",
              "type": "bytes32"
            },
            {
              "internalType": "address payable",
              "name": "maker",
              "type": "address"
            },
            {
              "internalType": "address payable",
              "name": "taker",
              "type": "address"
            },
            {
              "internalType": "uint256",
              "name": "ethAmount",
              "type": "uint256"
            },
            {
              "internalType": "uint256",
              "name": "dotAmount",
              "type": "uint256"
            },
            {
              "internalType": "uint256",
              "name": "exchangeRate",
              "type": "uint256"
            },
            {
              "internalType": "uint256",
              "name": "unlockTime",
              "type": "uint256"
            },
            {
              "internalType": "enum DotFusionEthereumEscrow.SwapState",
              "name": "state",
              "type": "uint8"
            },
            {
              "internalType": "bytes32",
              "name": "swapId",
              "type": "bytes32"
            },
            {
              "internalType": "bytes32",
              "name": "polkadotSender",
              "type": "bytes32"
            }
          ],
          "internalType": "struct DotFusionEthereumEscrow.Swap",
          "name": "swap",
          "type": "tuple"
        }
      ],
      "stateMutability": "view",
      "type": "function"
    },
    {
      "inputs": [
        {
          "internalType": "bytes32",
          "name": "swapId",
          "type": "bytes32"
        },
        {
          "internalType": "bytes32",
          "name": "secret",
          "type": "bytes32"
        }
      ],
      "name": "isValidSecret",
      "outputs": [
        {
          "internalType": "bool",
          "name": "",
          "type": "bool"
        }
      ],
      "stateMutability": "view",
      "type": "function"
    },
    {
      "inputs": [],
      "name": "owner",
      "outputs": [
        {
          "internalType": "address",
          "name": "",
          "type": "address"
        }
      ],
      "stateMutability": "view",
      "type": "function"
    },
    {
      "inputs": [
        {
          "internalType": "bytes32",
          "name": "swapId",
          "type": "bytes32"
        }
      ],
      "name": "publicCancelSwap",
      "outputs": [],
      "stateMutability": "nonpayable",
      "type": "function"
    },
    {
      "inputs": [],
      "name": "rescueDelay",
      "outputs": [
        {
          "internalType": "uint32",
          "name": "",
          "type": "uint32"
        }
      ],
      "stateMutability": "view",
      "type": "function"
    },
    {
      "inputs": [
        {
          "internalType": "bytes32",
          "name": "swapId",
          "type": "bytes32"
        }
      ],
      "name": "rescueFunds",
      "outputs": [],
      "stateMutability": "nonpayable",
      "type": "function"
    },
    {
      "inputs": [
        {
          "internalType": "bytes32",
          "name": "",
          "type": "bytes32"
        }
      ],
      "name": "swaps",
      "outputs": [
        {
          "internalType": "bytes32",
          "name": "secretHash",
          "type": "bytes32"
        },
        {
          "internalType": "address payable",
          "name": "maker",
          "type": "address"
        },
        {
          "internalType": "address payable",
          "name": "taker",
          "type": "address"
        },
        {
          "internalType": "uint256",
          "name": "ethAmount",
          "type": "uint256"
        },
        {
          "internalType": "uint256",
          "name": "dotAmount",
          "type": "uint256"
        },
        {
          "internalType": "uint256",
          "name": "exchangeRate",
          "type": "uint256"
        },
        {
          "internalType": "uint256",
          "name": "unlockTime",
          "type": "uint256"
        },
        {
          "internalType": "enum DotFusionEthereumEscrow.SwapState",
          "name": "state",
          "type": "uint8"
        },
        {
          "internalType": "bytes32",
          "name": "swapId",
          "type": "bytes32"
        },
        {
          "internalType": "bytes32",
          "name": "polkadotSender",
          "type": "bytes32"
        }
      ],
      "stateMutability": "view",
      "type": "function"
    },
    {
      "stateMutability": "payable",
      "type": "receive"
    }
  ],
  "transactionHash": "0x638801caa9c7742f39db3fb5f9dd57aac4c32441e75b951f01e4e93a00bd8f64",
  "args": [
    604800,
    "0x0000000000000000000000000000000000000000"
  ],
  "numDeployments": 1,
  "solcInputHash": "84f9edad5888131d534001fb7f164cf9",
  "bytecode": "0x60e060405234801561001057600080fd5b506040516110ac3803806110ac83398101604081905261002f91610054565b60016000553360805263ffffffff90911660a0526001600160a01b031660c0526100a3565b6000806040838503121561006757600080fd5b825163ffffffff8116811461007b57600080fd5b60208401519092506001600160a01b038116811461009857600080fd5b809150509250929050565b60805160a05160c051610fc56100e760003960006102300152600081816102f701526103ff0152600081816101a401528181610339015261047d0152610fc56000f3fe6080604052600436106100ab5760003560e01c80638da5cb5b116100645780638da5cb5b14610192578063bffbf4dc146101de578063d541beb3146101fe578063e243c5fb1461021e578063eb84e7f214610252578063f143d8a0146102e557600080fd5b806321922931146100b757806335e18788146100d95780633da0e66e146100ec5780634287e358146101225780636476fd3c1461015257806378dc33561461017257600080fd5b366100b257005b600080fd5b3480156100c357600080fd5b506100d76100d2366004610d90565b61032e565b005b6100d76100e7366004610da9565b610549565b3480156100f857600080fd5b5061010c610107366004610d90565b6107bc565b6040516101199190610e52565b60405180910390f35b34801561012e57600080fd5b5061014261013d366004610eea565b6108cb565b6040519015158152602001610119565b34801561015e57600080fd5b506100d761016d366004610d90565b610907565b34801561017e57600080fd5b506100d761018d366004610eea565b610a7b565b34801561019e57600080fd5b506101c67f000000000000000000000000000000000000000000000000000000000000000081565b6040516001600160a01b039091168152602001610119565b3480156101ea57600080fd5b506101426101f9366004610d90565b610c4c565b34801561020a57600080fd5b506100d7610219366004610d90565b610c8e565b34801561022a57600080fd5b506101c67f000000000000000000000000000000000000000000000000000000000000000081565b34801561025e57600080fd5b506102cf61026d366004610d90565b600160208190526000918252604090912080549181015460028201546003830154600484015460058501546006860154600787015460088801546009909801546001600160a01b03978816989790961696949593949293919260ff909116918a565b6040516101199a99989796959493929190610f0c565b3480156102f157600080fd5b506103197f000000000000000000000000000000000000000000000000000000000000000081565b60405163ffffffff9091168152602001610119565b336001600160a01b037f00000000000000000000000000000000000000000000000000000000000000001614610376576040516282b42960e81b815260040160405180910390fd5b61037e610d66565b600081815260016020526040812090600782015460ff1660038111156103a6576103a6610e1a565b036103c457604051631a40316d60e01b815260040160405180910390fd5b6002600782015460ff1660038111156103df576103df610e1a565b036103fd57604051638d393d0b60e01b815260040160405180910390fd5b7f000000000000000000000000000000000000000000000000000000000000000063ffffffff1681600601546104339190610f6e565b4210156104535760405163621e25c360e01b815260040160405180910390fd5b6003818101805460078401805460ff19169093179092556000908190556040516001600160a01b037f0000000000000000000000000000000000000000000000000000000000000000169083908381818185875af1925050503d80600081146104d8576040519150601f19603f3d011682016040523d82523d6000602084013e6104dd565b606091505b50509050806104ff576040516312171d8360e31b815260040160405180910390fd5b837fb00a5180e3bbc9046f9ae3105cab97059cf433fe2aee3d4721590dbd899fdfe38360405161053191815260200190565b60405180910390a25050506105466001600055565b50565b866105675760405163d6502e2b60e01b815260040160405180910390fd5b841580610572575083155b156105905760405163162908e360e11b815260040160405180910390fd5b826000036105b157604051630e52390960e41b815260040160405180910390fd5b60008881526001602052604081206007015460ff1660038111156105d7576105d7610e1a565b146105f5576040516339a2986760e11b815260040160405180910390fd5b8434146106155760405163162908e360e11b815260040160405180910390fd5b60006106218342610f6e565b9050604051806101400160405280898152602001336001600160a01b03168152602001886001600160a01b031681526020018781526020018681526020018581526020018281526020016001600381111561067e5761067e610e1a565b815260208082018c9052604091820185905260008c8152600180835290839020845181559184015182820180546001600160a01b03199081166001600160a01b03938416179091559385015160028401805490951691161790925560608301516003808301919091556080840151600483015560a0840151600583015560c0840151600683015560e084015160078301805493949193909260ff199091169190849081111561072f5761072f610e1a565b0217905550610100820151600882015561012090910151600990910155604080516001600160a01b038916815260208101889052908101869052606081018590526080810182905260a08101839052339089908b907f4f7de1f26400eeaae9ea83f11645741e73181833160379d31561d4dc44e8788d9060c00160405180910390a4505050505050505050565b6040805161014081018252600080825260208201819052918101829052606081018290526080810182905260a0810182905260c0810182905260e08101829052610100810182905261012081019190915260008281526001602081815260409283902083516101408101855281548152928101546001600160a01b0390811692840192909252600281015490911692820192909252600380830154606083015260048301546080830152600583015460a0830152600683015460c0830152600783015491929160e084019160ff9091169081111561089c5761089c610e1a565b60038111156108ad576108ad610e1a565b81526008820154602082015260099091015460409091015292915050565b60008281526001602090815260408083205481519283018590529101604051602081830303815290604052805190602001201490505b92915050565b61090f610d66565b600081815260016020526040812090600782015460ff16600381111561093757610937610e1a565b0361095557604051631a40316d60e01b815260040160405180910390fd5b6001600782015460ff16600381111561097057610970610e1a565b1461098e57604051638d393d0b60e01b815260040160405180910390fd5b80600601544210156109b35760405163621e25c360e01b815260040160405180910390fd5b60078101805460ff1916600390811790915581015460018201546040516001600160a01b0390911690600090829084908381818185875af1925050503d8060008114610a1b576040519150601f19603f3d011682016040523d82523d6000602084013e610a20565b606091505b5050905080610a42576040516312171d8360e31b815260040160405180910390fd5b60405185907f5a399591cfd74c375a1ffd61c20221db0db82381f65516889ed13c8cd1f99d5b90600090a2505050506105466001600055565b610a83610d66565b600082815260016020526040812090600782015460ff166003811115610aab57610aab610e1a565b03610ac957604051631a40316d60e01b815260040160405180910390fd5b6001600782015460ff166003811115610ae457610ae4610e1a565b14610b0257604051638d393d0b60e01b815260040160405180910390fd5b80546040805160208101859052016040516020818303038152906040528051906020012014610b445760405163abab6bd760e01b815260040160405180910390fd5b60028101546001600160a01b03163314610b70576040516282b42960e81b815260040160405180910390fd5b60078101805460ff191660029081179091556003820154908201546040516001600160a01b0390911690600090829084908381818185875af1925050503d8060008114610bd9576040519150601f19603f3d011682016040523d82523d6000602084013e610bde565b606091505b5050905080610c00576040516312171d8360e31b815260040160405180910390fd5b857f7430d80e0e3cfb925010ff8993f6a56392199211e297fc7825278f29980ccf5186604051610c3291815260200190565b60405180910390a250505050610c486001600055565b5050565b6000818152600160208190526040822090600782015460ff166003811115610c7657610c76610e1a565b148015610c87575080600601544210155b9392505050565b610c96610d66565b600081815260016020526040812090600782015460ff166003811115610cbe57610cbe610e1a565b03610cdc57604051631a40316d60e01b815260040160405180910390fd5b6001600782015460ff166003811115610cf757610cf7610e1a565b14610d1557604051638d393d0b60e01b815260040160405180910390fd5b8060060154421015610d3a5760405163621e25c360e01b815260040160405180910390fd5b60018101546001600160a01b031633146109b3576040516282b42960e81b815260040160405180910390fd5b600260005403610d8957604051633ee5aeb560e01b815260040160405180910390fd5b6002600055565b600060208284031215610da257600080fd5b5035919050565b600080600080600080600080610100898b031215610dc657600080fd5b883597506020890135965060408901356001600160a01b0381168114610deb57600080fd5b979a96995096976060810135975060808101359660a0820135965060c0820135955060e0909101359350915050565b634e487b7160e01b600052602160045260246000fd5b60048110610e4e57634e487b7160e01b600052602160045260246000fd5b9052565b81518152602080830151610140830191610e76908401826001600160a01b03169052565b506040830151610e9160408401826001600160a01b03169052565b50606083015160608301526080830151608083015260a083015160a083015260c083015160c083015260e0830151610ecc60e0840182610e30565b50610100838101519083015261012092830151929091019190915290565b60008060408385031215610efd57600080fd5b50508035926020909101359150565b8a81526001600160a01b038a8116602083015289166040820152606081018890526080810187905260a0810186905260c081018590526101408101610f5460e0830186610e30565b610100820193909352610120015298975050505050505050565b8082018082111561090157634e487b7160e01b600052601160045260246000fdfea26469706673582212207a76a3e082af58b31325e24e5774acc0acf3241e62ecfb19f96561a2d3cb7e1e64736f6c63430008170033",
  "devdoc": {
    "custom:security-contact": "security@dotfusion.io",
    "details": "This contract handles multiple swaps simultaneously. Each swap is identified by a unique swapId. Funds are locked when users initiate swaps, and unlocked when secrets are revealed.",
    "errors": {
      "ReentrancyGuardReentrantCall()": [
        {
          "details": "Unauthorized reentrant call."
        }
      ]
    },
    "kind": "dev",
    "methods": {
      "canCancel(bytes32)": {
        "params": {
          "swapId": "Unique swap identifier"
        },
        "returns": {
          "_0": "canCancel True if timelock expired and swap is still open"
        }
      },
      "cancelSwap(bytes32)": {
        "params": {
          "swapId": "Unique swap identifier"
        }
      },
      "completeSwap(bytes32,bytes32)": {
        "params": {
          "secret": "Preimage of secretHash",
          "swapId": "Unique swap identifier"
        }
      },
      "createSwap(bytes32,bytes32,address,uint256,uint256,uint256,uint256,bytes32)": {
        "params": {
          "dotAmount": "Amount of DOT expected in return",
          "ethAmount": "Amount of ETH being swapped",
          "exchangeRate": "Fixed exchange rate (DOT per ETH * 1e18)",
          "polkadotSender": "Polkadot address of the taker",
          "secretHash": "Hash of the secret",
          "swapId": "Unique identifier for this swap",
          "taker": "Ethereum address of the taker (DOT provider)",
          "timelock": "Duration before cancellation is allowed"
        }
      },
      "getSwap(bytes32)": {
        "params": {
          "swapId": "Unique swap identifier"
        },
        "returns": {
          "swap": "Full swap struct"
        }
      },
      "isValidSecret(bytes32,bytes32)": {
        "params": {
          "secret": "Preimage to test",
          "swapId": "Unique swap identifier"
        },
        "returns": {
          "_0": "isValid True if secret matches secretHash"
        }
      },
      "publicCancelSwap(bytes32)": {
        "params": {
          "swapId": "Unique swap identifier"
        }
      },
      "rescueFunds(bytes32)": {
        "params": {
          "swapId": "Unique swap identifier"
        }
      }
    },
    "title": "DotFusion Ethereum Escrow (Source)",
    "version": 1
  },
  "userdoc": {
    "kind": "user",
    "methods": {
      "canCancel(bytes32)": {
        "notice": "Check if swap can be cancelled"
      },
      "cancelSwap(bytes32)": {
        "notice": "Cancel a swap after timelock expires"
      },
      "completeSwap(bytes32,bytes32)": {
        "notice": "Complete a swap by revealing the secret (called by taker after providing DOT)"
      },
      "createSwap(bytes32,bytes32,address,uint256,uint256,uint256,uint256,bytes32)": {
        "notice": "Create a new ETH-DOT cross-chain swap"
      },
      "getSwap(bytes32)": {
        "notice": "Get swap details"
      },
      "isValidSecret(bytes32,bytes32)": {
        "notice": "Check if secret is valid for a swap"
      },
      "publicCancelSwap(bytes32)": {
        "notice": "Public cancellation function (for access token holders)"
      },
      "rescueFunds(bytes32)": {
        "notice": "Rescue funds from a swap after rescue delay"
      }
    },
    "notice": "Source escrow contract for cross-chain atomic swaps on Ethereum",
    "version": 1
  },
  "storageLayout": {
    "storage": [
      {
        "astId": 667,
        "contract": "contracts/EthereumEscrow.sol:DotFusionEthereumEscrow",
        "label": "_status",
        "offset": 0,
        "slot": "0",
        "type": "t_uint256"
      },
      {
        "astId": 764,
        "contract": "contracts/EthereumEscrow.sol:DotFusionEthereumEscrow",
        "label": "swaps",
        "offset": 0,
        "slot": "1",
        "type": "t_mapping(t_bytes32,t_struct(Swap)759_storage)"
      }
    ],
    "types": {
      "t_address_payable": {
        "encoding": "inplace",
        "label": "address payable",
        "numberOfBytes": "20"
      },
      "t_bytes32": {
        "encoding": "inplace",
        "label": "bytes32",
        "numberOfBytes": "32"
      },
      "t_enum(SwapState)737": {
        "encoding": "inplace",
        "label": "enum DotFusionEthereumEscrow.SwapState",
        "numberOfBytes": "1"
      },
      "t_mapping(t_bytes32,t_struct(Swap)759_storage)": {
        "encoding": "mapping",
        "key": "t_bytes32",
        "label": "mapping(bytes32 => struct DotFusionEthereumEscrow.Swap)",
        "numberOfBytes": "32",
        "value": "t_struct(Swap)759_storage"
      },
      "t_struct(Swap)759_storage": {
        "encoding": "inplace",
        "label": "struct DotFusionEthereumEscrow.Swap",
        "members": [
          {
            "astId": 739,
            "contract": "contracts/EthereumEscrow.sol:DotFusionEthereumEscrow",
            "label": "secretHash",
            "offset": 0,
            "slot": "0",
            "type": "t_bytes32"
          },
          {
            "astId": 741,
            "contract": "contracts/EthereumEscrow.sol:DotFusionEthereumEscrow",
            "label": "maker",
            "offset": 0,
            "slot": "1",
            "type": "t_address_payable"
          },
          {
            "astId": 743,
            "contract": "contracts/EthereumEscrow.sol:DotFusionEthereumEscrow",
            "label": "taker",
            "offset": 0,
            "slot": "2",
            "type": "t_address_payable"
          },
          {
            "astId": 745,
            "contract": "contracts/EthereumEscrow.sol:DotFusionEthereumEscrow",
            "label": "ethAmount",
            "offset": 0,
            "slot": "3",
            "type": "t_uint256"
          },
          {
            "astId": 747,
            "contract": "contracts/EthereumEscrow.sol:DotFusionEthereumEscrow",
            "label": "dotAmount",
            "offset": 0,
            "slot": "4",
            "type": "t_uint256"
          },
          {
            "astId": 749,
            "contract": "contracts/EthereumEscrow.sol:DotFusionEthereumEscrow",
            "label": "exchangeRate",
            "offset": 0,
            "slot": "5",
            "type": "t_uint256"
          },
          {
            "astId": 751,
            "contract": "contracts/EthereumEscrow.sol:DotFusionEthereumEscrow",
            "label": "unlockTime",
            "offset": 0,
            "slot": "6",
            "type": "t_uint256"
          },
          {
            "astId": 754,
            "contract": "contracts/EthereumEscrow.sol:DotFusionEthereumEscrow",
            "label": "state",
            "offset": 0,
            "slot": "7",
            "type": "t_enum(SwapState)737"
          },
          {
            "astId": 756,
            "contract": "contracts/EthereumEscrow.sol:DotFusionEthereumEscrow",
            "label": "swapId",
            "offset": 0,
            "slot": "8",
            "type": "t_bytes32"
          },
          {
            "astId": 758,
            "contract": "contracts/EthereumEscrow.sol:DotFusionEthereumEscrow",
            "label": "polkadotSender",
            "offset": 0,
            "slot": "9",
            "type": "t_bytes32"
          }
        ],
        "numberOfBytes": "320"
      },
      "t_uint256": {
        "encoding": "inplace",
        "label": "uint256",
        "numberOfBytes": "32"
      }
    }
  }
}