{
  "address": "0x418eE7f4c98c37a408db9426302beACa862D7731",
  "abi": [
    {
      "inputs": [],
      "stateMutability": "nonpayable",
      "type": "constructor"
    },
    {
      "inputs": [],
      "name": "EscrowNotSet",
      "type": "error"
    },
    {
      "inputs": [],
      "name": "InvalidAddress",
      "type": "error"
    },
    {
      "inputs": [],
      "name": "Unauthorized",
      "type": "error"
    },
    {
      "anonymous": false,
      "inputs": [
        {
          "indexed": true,
          "internalType": "address",
          "name": "escrowAddress",
          "type": "address"
        },
        {
          "indexed": true,
          "internalType": "address",
          "name": "xcmPrecompileAddress",
          "type": "address"
        }
      ],
      "name": "BridgeDeployed",
      "type": "event"
    },
    {
      "anonymous": false,
      "inputs": [
        {
          "indexed": true,
          "internalType": "bytes32",
          "name": "swapId",
          "type": "bytes32"
        },
        {
          "indexed": true,
          "internalType": "bytes32",
          "name": "secretHash",
          "type": "bytes32"
        },
        {
          "indexed": false,
          "internalType": "address",
          "name": "receiver",
          "type": "address"
        },
        {
          "indexed": false,
          "internalType": "uint256",
          "name": "amount",
          "type": "uint256"
        }
      ],
      "name": "MessageReceived",
      "type": "event"
    },
    {
      "anonymous": false,
      "inputs": [
        {
          "indexed": true,
          "internalType": "bytes32",
          "name": "swapId",
          "type": "bytes32"
        },
        {
          "indexed": false,
          "internalType": "bytes32",
          "name": "secret",
          "type": "bytes32"
        }
      ],
      "name": "MessageSent",
      "type": "event"
    },
    {
      "inputs": [],
      "name": "XCM_PRECOMPILE",
      "outputs": [
        {
          "internalType": "address",
          "name": "",
          "type": "address"
        }
      ],
      "stateMutability": "view",
      "type": "function"
    },
    {
      "inputs": [],
      "name": "escrow",
      "outputs": [
        {
          "internalType": "contract DotFusionPolkadotEscrow",
          "name": "",
          "type": "address"
        }
      ],
      "stateMutability": "view",
      "type": "function"
    },
    {
      "inputs": [],
      "name": "owner",
      "outputs": [
        {
          "internalType": "address",
          "name": "",
          "type": "address"
        }
      ],
      "stateMutability": "view",
      "type": "function"
    },
    {
      "inputs": [
        {
          "internalType": "bytes32",
          "name": "swapId",
          "type": "bytes32"
        },
        {
          "internalType": "bytes32",
          "name": "secretHash",
          "type": "bytes32"
        },
        {
          "internalType": "address payable",
          "name": "receiver",
          "type": "address"
        },
        {
          "internalType": "bytes32",
          "name": "ethereumSender",
          "type": "bytes32"
        }
      ],
      "name": "receiveFromEthereum",
      "outputs": [],
      "stateMutability": "payable",
      "type": "function"
    },
    {
      "inputs": [
        {
          "internalType": "bytes32",
          "name": "swapId",
          "type": "bytes32"
        },
        {
          "internalType": "bytes32",
          "name": "secret",
          "type": "bytes32"
        }
      ],
      "name": "sendToEthereum",
      "outputs": [],
      "stateMutability": "payable",
      "type": "function"
    },
    {
      "inputs": [
        {
          "internalType": "address",
          "name": "_escrow",
          "type": "address"
        }
      ],
      "name": "setEscrow",
      "outputs": [],
      "stateMutability": "nonpayable",
      "type": "function"
    },
    {
      "stateMutability": "payable",
      "type": "receive"
    }
  ],
  "transactionHash": "0xf2493ebb76d0943d6d0b88e1d5e2be574b220d5937cc914b771b10c9fee038df",
  "args": [],
  "numDeployments": 2,
  "solcInputHash": "dbfca1611b09867b84658bcd78df6965",
  "bytecode": "0x608060405234801561001057600080fd5b50600080546001600160a01b0319163317815560405161080491907fb4517e0fc228994c47e66a2286df4a4f1afadb1f8a5865d579c2189b3092e741908290a36104878061005f6000396000f3fe6080604052600436106100595760003560e01c8063077120cc146100655780638da5cb5b14610097578063c10c3546146100b7578063c782055e146100d9578063e2fdcc17146100ec578063f3ce326f1461010c57600080fd5b3661006057005b600080fd5b34801561007157600080fd5b5061007b61080481565b6040516001600160a01b03909116815260200160405180910390f35b3480156100a357600080fd5b5060005461007b906001600160a01b031681565b3480156100c357600080fd5b506100d76100d236600461039d565b61011f565b005b6100d76100e73660046103c1565b610192565b3480156100f857600080fd5b5060015461007b906001600160a01b031681565b6100d761011a366004610400565b610281565b6000546001600160a01b03163314610149576040516282b42960e81b815260040160405180910390fd5b6001600160a01b0381166101705760405163e6c4247b60e01b815260040160405180910390fd5b600180546001600160a01b0319166001600160a01b0392909216919091179055565b6001546001600160a01b03166101bb57604051634eca2d6760e01b815260040160405180910390fd5b600154604051638fc9fef160e01b815260048101869052602481018590526001600160a01b038481166044830152346064830181905260848301859052921691638fc9fef19160a4016000604051808303818588803b15801561021d57600080fd5b505af1158015610231573d6000803e3d6000fd5b5050604080516001600160a01b03871681523460208201528794508893507f74067246a35113666e7ea609db47ec0bceb8b77773497b430ca621d33584774f92500160405180910390a350505050565b6040805160208101849052808201839052815180820383018152606090910191829052906000906108049034906102b9908590610422565b60006040518083038185875af1925050503d80600081146102f6576040519150601f19603f3d011682016040523d82523d6000602084013e6102fb565b606091505b50509050806103455760405162461bcd60e51b81526020600482015260126024820152711610d3481b595cdcd859d94819985a5b195960721b604482015260640160405180910390fd5b837f9102b9031c3c59d8320bf14d84d7d7a3434366b91032fad1c87579cfc62b23728460405161037791815260200190565b60405180910390a250505050565b6001600160a01b038116811461039a57600080fd5b50565b6000602082840312156103af57600080fd5b81356103ba81610385565b9392505050565b600080600080608085870312156103d757600080fd5b843593506020850135925060408501356103f081610385565b9396929550929360600135925050565b6000806040838503121561041357600080fd5b50508035926020909101359150565b6000825160005b818110156104435760208186018101518583015201610429565b50600092019182525091905056fea26469706673582212202d487bf8c6097bc9b4c3b80c7c8b1859829819249e0f68cbf6a0d29acded492e64736f6c63430008170033",
  "devdoc": {
    "details": "Integrates with Polkadot's XCM Precompile and 1inch cross-chain-swap system",
    "kind": "dev",
    "methods": {
      "receiveFromEthereum(bytes32,bytes32,address,bytes32)": {
        "params": {
          "ethereumSender": "Original sender on Ethereum",
          "receiver": "Receiver address on Polkadot",
          "secretHash": "Hash of the secret",
          "swapId": "Unique swap identifier from Ethereum"
        }
      },
      "sendToEthereum(bytes32,bytes32)": {
        "details": "This function uses the XCM Precompile to send cross-chain messages Note: In production, this requires proper XCM configuration and sufficient fees",
        "params": {
          "secret": "Revealed secret",
          "swapId": "Swap identifier"
        }
      }
    },
    "title": "DotFusion XCM Bridge",
    "version": 1
  },
  "userdoc": {
    "kind": "user",
    "methods": {
      "receiveFromEthereum(bytes32,bytes32,address,bytes32)": {
        "notice": "Receive cross-chain message from Ethereum"
      },
      "sendToEthereum(bytes32,bytes32)": {
        "notice": "Send message back to Ethereum when swap is completed"
      }
    },
    "notice": "Bridge coordinator using XCM Precompile for cross-chain messaging",
    "version": 1
  },
  "storageLayout": {
    "storage": [
      {
        "astId": 1737,
        "contract": "contracts/XCMBridge.sol:DotFusionXCMBridge",
        "label": "owner",
        "offset": 0,
        "slot": "0",
        "type": "t_address"
      },
      {
        "astId": 1740,
        "contract": "contracts/XCMBridge.sol:DotFusionXCMBridge",
        "label": "escrow",
        "offset": 0,
        "slot": "1",
        "type": "t_contract(DotFusionPolkadotEscrow)1730"
      }
    ],
    "types": {
      "t_address": {
        "encoding": "inplace",
        "label": "address",
        "numberOfBytes": "20"
      },
      "t_contract(DotFusionPolkadotEscrow)1730": {
        "encoding": "inplace",
        "label": "contract DotFusionPolkadotEscrow",
        "numberOfBytes": "20"
      }
    }
  }
}