{
  "address": "0x4cFC4fb3FF50D344E749a256992CB019De9f2229",
  "abi": [
    {
      "inputs": [
        {
          "internalType": "uint32",
          "name": "_rescueDelay",
          "type": "uint32"
        },
        {
          "internalType": "address",
          "name": "_accessToken",
          "type": "address"
        }
      ],
      "stateMutability": "nonpayable",
      "type": "constructor"
    },
    {
      "inputs": [],
      "name": "InvalidAmount",
      "type": "error"
    },
    {
      "inputs": [],
      "name": "InvalidParameters",
      "type": "error"
    },
    {
      "inputs": [],
      "name": "InvalidSecret",
      "type": "error"
    },
    {
      "inputs": [],
      "name": "InvalidSecretHash",
      "type": "error"
    },
    {
      "inputs": [],
      "name": "ReentrancyGuardReentrantCall",
      "type": "error"
    },
    {
      "inputs": [],
      "name": "SwapAlreadyExists",
      "type": "error"
    },
    {
      "inputs": [],
      "name": "SwapDoesNotExist",
      "type": "error"
    },
    {
      "inputs": [],
      "name": "SwapNotOpen",
      "type": "error"
    },
    {
      "inputs": [],
      "name": "TimelockNotExpired",
      "type": "error"
    },
    {
      "inputs": [],
      "name": "TimelockTooShort",
      "type": "error"
    },
    {
      "inputs": [],
      "name": "TransferFailed",
      "type": "error"
    },
    {
      "inputs": [],
      "name": "Unauthorized",
      "type": "error"
    },
    {
      "anonymous": false,
      "inputs": [
        {
          "indexed": true,
          "internalType": "bytes32",
          "name": "swapId",
          "type": "bytes32"
        },
        {
          "indexed": false,
          "internalType": "uint256",
          "name": "ethAmount",
          "type": "uint256"
        }
      ],
      "name": "FundsRescued",
      "type": "event"
    },
    {
      "anonymous": false,
      "inputs": [
        {
          "indexed": true,
          "internalType": "bytes32",
          "name": "swapId",
          "type": "bytes32"
        }
      ],
      "name": "SwapCancelled",
      "type": "event"
    },
    {
      "anonymous": false,
      "inputs": [
        {
          "indexed": true,
          "internalType": "bytes32",
          "name": "swapId",
          "type": "bytes32"
        },
        {
          "indexed": false,
          "internalType": "bytes32",
          "name": "secret",
          "type": "bytes32"
        }
      ],
      "name": "SwapCompleted",
      "type": "event"
    },
    {
      "anonymous": false,
      "inputs": [
        {
          "indexed": true,
          "internalType": "bytes32",
          "name": "swapId",
          "type": "bytes32"
        },
        {
          "indexed": true,
          "internalType": "bytes32",
          "name": "secretHash",
          "type": "bytes32"
        },
        {
          "indexed": true,
          "internalType": "address",
          "name": "maker",
          "type": "address"
        },
        {
          "indexed": false,
          "internalType": "address",
          "name": "taker",
          "type": "address"
        },
        {
          "indexed": false,
          "internalType": "uint256",
          "name": "ethAmount",
          "type": "uint256"
        },
        {
          "indexed": false,
          "internalType": "uint256",
          "name": "dotAmount",
          "type": "uint256"
        },
        {
          "indexed": false,
          "internalType": "uint256",
          "name": "exchangeRate",
          "type": "uint256"
        },
        {
          "indexed": false,
          "internalType": "uint256",
          "name": "unlockTime",
          "type": "uint256"
        },
        {
          "indexed": false,
          "internalType": "bytes32",
          "name": "polkadotSender",
          "type": "bytes32"
        }
      ],
      "name": "SwapCreated",
      "type": "event"
    },
    {
      "inputs": [],
      "name": "MIN_TIMELOCK",
      "outputs": [
        {
          "internalType": "uint256",
          "name": "",
          "type": "uint256"
        }
      ],
      "stateMutability": "view",
      "type": "function"
    },
    {
      "inputs": [],
      "name": "accessToken",
      "outputs": [
        {
          "internalType": "address",
          "name": "",
          "type": "address"
        }
      ],
      "stateMutability": "view",
      "type": "function"
    },
    {
      "inputs": [
        {
          "internalType": "bytes32",
          "name": "swapId",
          "type": "bytes32"
        }
      ],
      "name": "canCancel",
      "outputs": [
        {
          "internalType": "bool",
          "name": "",
          "type": "bool"
        }
      ],
      "stateMutability": "view",
      "type": "function"
    },
    {
      "inputs": [
        {
          "internalType": "bytes32",
          "name": "swapId",
          "type": "bytes32"
        }
      ],
      "name": "cancelSwap",
      "outputs": [],
      "stateMutability": "nonpayable",
      "type": "function"
    },
    {
      "inputs": [
        {
          "internalType": "bytes32",
          "name": "swapId",
          "type": "bytes32"
        },
        {
          "internalType": "bytes32",
          "name": "secret",
          "type": "bytes32"
        }
      ],
      "name": "completeSwap",
      "outputs": [],
      "stateMutability": "nonpayable",
      "type": "function"
    },
    {
      "inputs": [
        {
          "internalType": "bytes32",
          "name": "swapId",
          "type": "bytes32"
        },
        {
          "internalType": "bytes32",
          "name": "secretHash",
          "type": "bytes32"
        },
        {
          "internalType": "address payable",
          "name": "taker",
          "type": "address"
        },
        {
          "internalType": "uint256",
          "name": "ethAmount",
          "type": "uint256"
        },
        {
          "internalType": "uint256",
          "name": "dotAmount",
          "type": "uint256"
        },
        {
          "internalType": "uint256",
          "name": "exchangeRate",
          "type": "uint256"
        },
        {
          "internalType": "uint256",
          "name": "timelock",
          "type": "uint256"
        },
        {
          "internalType": "bytes32",
          "name": "polkadotSender",
          "type": "bytes32"
        }
      ],
      "name": "createSwap",
      "outputs": [],
      "stateMutability": "payable",
      "type": "function"
    },
    {
      "inputs": [
        {
          "internalType": "bytes32",
          "name": "swapId",
          "type": "bytes32"
        }
      ],
      "name": "getSwap",
      "outputs": [
        {
          "components": [
            {
              "internalType": "bytes32",
              "name": "secretHash",
              "type": "bytes32"
            },
            {
              "internalType": "address payable",
              "name": "maker",
              "type": "address"
            },
            {
              "internalType": "address payable",
              "name": "taker",
              "type": "address"
            },
            {
              "internalType": "uint256",
              "name": "ethAmount",
              "type": "uint256"
            },
            {
              "internalType": "uint256",
              "name": "dotAmount",
              "type": "uint256"
            },
            {
              "internalType": "uint256",
              "name": "exchangeRate",
              "type": "uint256"
            },
            {
              "internalType": "uint256",
              "name": "unlockTime",
              "type": "uint256"
            },
            {
              "internalType": "enum DotFusionEthereumEscrow.SwapState",
              "name": "state",
              "type": "uint8"
            },
            {
              "internalType": "bytes32",
              "name": "swapId",
              "type": "bytes32"
            },
            {
              "internalType": "bytes32",
              "name": "polkadotSender",
              "type": "bytes32"
            }
          ],
          "internalType": "struct DotFusionEthereumEscrow.Swap",
          "name": "swap",
          "type": "tuple"
        }
      ],
      "stateMutability": "view",
      "type": "function"
    },
    {
      "inputs": [
        {
          "internalType": "bytes32",
          "name": "swapId",
          "type": "bytes32"
        },
        {
          "internalType": "bytes32",
          "name": "secret",
          "type": "bytes32"
        }
      ],
      "name": "isValidSecret",
      "outputs": [
        {
          "internalType": "bool",
          "name": "",
          "type": "bool"
        }
      ],
      "stateMutability": "view",
      "type": "function"
    },
    {
      "inputs": [],
      "name": "owner",
      "outputs": [
        {
          "internalType": "address",
          "name": "",
          "type": "address"
        }
      ],
      "stateMutability": "view",
      "type": "function"
    },
    {
      "inputs": [
        {
          "internalType": "bytes32",
          "name": "swapId",
          "type": "bytes32"
        }
      ],
      "name": "publicCancelSwap",
      "outputs": [],
      "stateMutability": "nonpayable",
      "type": "function"
    },
    {
      "inputs": [],
      "name": "rescueDelay",
      "outputs": [
        {
          "internalType": "uint32",
          "name": "",
          "type": "uint32"
        }
      ],
      "stateMutability": "view",
      "type": "function"
    },
    {
      "inputs": [
        {
          "internalType": "bytes32",
          "name": "swapId",
          "type": "bytes32"
        }
      ],
      "name": "rescueFunds",
      "outputs": [],
      "stateMutability": "nonpayable",
      "type": "function"
    },
    {
      "inputs": [
        {
          "internalType": "bytes32",
          "name": "",
          "type": "bytes32"
        }
      ],
      "name": "swaps",
      "outputs": [
        {
          "internalType": "bytes32",
          "name": "secretHash",
          "type": "bytes32"
        },
        {
          "internalType": "address payable",
          "name": "maker",
          "type": "address"
        },
        {
          "internalType": "address payable",
          "name": "taker",
          "type": "address"
        },
        {
          "internalType": "uint256",
          "name": "ethAmount",
          "type": "uint256"
        },
        {
          "internalType": "uint256",
          "name": "dotAmount",
          "type": "uint256"
        },
        {
          "internalType": "uint256",
          "name": "exchangeRate",
          "type": "uint256"
        },
        {
          "internalType": "uint256",
          "name": "unlockTime",
          "type": "uint256"
        },
        {
          "internalType": "enum DotFusionEthereumEscrow.SwapState",
          "name": "state",
          "type": "uint8"
        },
        {
          "internalType": "bytes32",
          "name": "swapId",
          "type": "bytes32"
        },
        {
          "internalType": "bytes32",
          "name": "polkadotSender",
          "type": "bytes32"
        }
      ],
      "stateMutability": "view",
      "type": "function"
    },
    {
      "stateMutability": "payable",
      "type": "receive"
    }
  ],
  "transactionHash": "0x941b65653a0b61f3a5552bf3151feea3c519b23cd732b8b0430687e94c01d637",
  "args": [
    604800,
    "0x0000000000000000000000000000000000000000"
  ],
  "numDeployments": 2,
  "solcInputHash": "11e3fea9755b2ca159c2f597d4f70985",
  "bytecode": "0x60e060405234801561001057600080fd5b5060405161110e38038061110e83398101604081905261002f91610054565b60016000553360805263ffffffff90911660a0526001600160a01b031660c0526100a3565b6000806040838503121561006757600080fd5b825163ffffffff8116811461007b57600080fd5b60208401519092506001600160a01b038116811461009857600080fd5b809150509250929050565b60805160a05160c0516110276100e7600039600061024b015260008181610312015261043e0152600081816101bf0152818161037801526104bc01526110276000f3fe6080604052600436106100c65760003560e01c80638da5cb5b1161007f578063e243c5fb11610059578063e243c5fb14610239578063eb84e7f21461026d578063f143d8a014610300578063fb0c75491461034957600080fd5b80638da5cb5b146101ad578063bffbf4dc146101f9578063d541beb31461021957600080fd5b806321922931146100d257806335e18788146100f45780633da0e66e146101075780634287e3581461013d5780636476fd3c1461016d57806378dc33561461018d57600080fd5b366100cd57005b600080fd5b3480156100de57600080fd5b506100f26100ed366004610df2565b61036d565b005b6100f2610102366004610e0b565b610588565b34801561011357600080fd5b50610127610122366004610df2565b61081e565b6040516101349190610eb4565b60405180910390f35b34801561014957600080fd5b5061015d610158366004610f4c565b61092d565b6040519015158152602001610134565b34801561017957600080fd5b506100f2610188366004610df2565b610969565b34801561019957600080fd5b506100f26101a8366004610f4c565b610add565b3480156101b957600080fd5b506101e17f000000000000000000000000000000000000000000000000000000000000000081565b6040516001600160a01b039091168152602001610134565b34801561020557600080fd5b5061015d610214366004610df2565b610cae565b34801561022557600080fd5b506100f2610234366004610df2565b610cf0565b34801561024557600080fd5b506101e17f000000000000000000000000000000000000000000000000000000000000000081565b34801561027957600080fd5b506102ea610288366004610df2565b600160208190526000918252604090912080549181015460028201546003830154600484015460058501546006860154600787015460088801546009909801546001600160a01b03978816989790961696949593949293919260ff909116918a565b6040516101349a99989796959493929190610f6e565b34801561030c57600080fd5b506103347f000000000000000000000000000000000000000000000000000000000000000081565b60405163ffffffff9091168152602001610134565b34801561035557600080fd5b5061035f61a8c081565b604051908152602001610134565b336001600160a01b037f000000000000000000000000000000000000000000000000000000000000000016146103b5576040516282b42960e81b815260040160405180910390fd5b6103bd610dc8565b600081815260016020526040812090600782015460ff1660038111156103e5576103e5610e7c565b0361040357604051631a40316d60e01b815260040160405180910390fd5b6002600782015460ff16600381111561041e5761041e610e7c565b0361043c57604051638d393d0b60e01b815260040160405180910390fd5b7f000000000000000000000000000000000000000000000000000000000000000063ffffffff1681600601546104729190610fd0565b4210156104925760405163621e25c360e01b815260040160405180910390fd5b6003818101805460078401805460ff19169093179092556000908190556040516001600160a01b037f0000000000000000000000000000000000000000000000000000000000000000169083908381818185875af1925050503d8060008114610517576040519150601f19603f3d011682016040523d82523d6000602084013e61051c565b606091505b505090508061053e576040516312171d8360e31b815260040160405180910390fd5b837fb00a5180e3bbc9046f9ae3105cab97059cf433fe2aee3d4721590dbd899fdfe38360405161057091815260200190565b60405180910390a25050506105856001600055565b50565b866105a65760405163d6502e2b60e01b815260040160405180910390fd5b8415806105b1575083155b156105cf5760405163162908e360e11b815260040160405180910390fd5b826000036105f057604051630e52390960e41b815260040160405180910390fd5b60008881526001602052604081206007015460ff16600381111561061657610616610e7c565b14610634576040516339a2986760e11b815260040160405180910390fd5b8434146106545760405163162908e360e11b815260040160405180910390fd5b61a8c0821015610677576040516301ded1a560e41b815260040160405180910390fd5b60006106838342610fd0565b9050604051806101400160405280898152602001336001600160a01b03168152602001886001600160a01b03168152602001878152602001868152602001858152602001828152602001600160038111156106e0576106e0610e7c565b815260208082018c9052604091820185905260008c8152600180835290839020845181559184015182820180546001600160a01b03199081166001600160a01b03938416179091559385015160028401805490951691161790925560608301516003808301919091556080840151600483015560a0840151600583015560c0840151600683015560e084015160078301805493949193909260ff199091169190849081111561079157610791610e7c565b0217905550610100820151600882015561012090910151600990910155604080516001600160a01b038916815260208101889052908101869052606081018590526080810182905260a08101839052339089908b907f4f7de1f26400eeaae9ea83f11645741e73181833160379d31561d4dc44e8788d9060c00160405180910390a4505050505050505050565b6040805161014081018252600080825260208201819052918101829052606081018290526080810182905260a0810182905260c0810182905260e08101829052610100810182905261012081019190915260008281526001602081815260409283902083516101408101855281548152928101546001600160a01b0390811692840192909252600281015490911692820192909252600380830154606083015260048301546080830152600583015460a0830152600683015460c0830152600783015491929160e084019160ff909116908111156108fe576108fe610e7c565b600381111561090f5761090f610e7c565b81526008820154602082015260099091015460409091015292915050565b60008281526001602090815260408083205481519283018590529101604051602081830303815290604052805190602001201490505b92915050565b610971610dc8565b600081815260016020526040812090600782015460ff16600381111561099957610999610e7c565b036109b757604051631a40316d60e01b815260040160405180910390fd5b6001600782015460ff1660038111156109d2576109d2610e7c565b146109f057604051638d393d0b60e01b815260040160405180910390fd5b8060060154421015610a155760405163621e25c360e01b815260040160405180910390fd5b60078101805460ff1916600390811790915581015460018201546040516001600160a01b0390911690600090829084908381818185875af1925050503d8060008114610a7d576040519150601f19603f3d011682016040523d82523d6000602084013e610a82565b606091505b5050905080610aa4576040516312171d8360e31b815260040160405180910390fd5b60405185907f5a399591cfd74c375a1ffd61c20221db0db82381f65516889ed13c8cd1f99d5b90600090a2505050506105856001600055565b610ae5610dc8565b600082815260016020526040812090600782015460ff166003811115610b0d57610b0d610e7c565b03610b2b57604051631a40316d60e01b815260040160405180910390fd5b6001600782015460ff166003811115610b4657610b46610e7c565b14610b6457604051638d393d0b60e01b815260040160405180910390fd5b80546040805160208101859052016040516020818303038152906040528051906020012014610ba65760405163abab6bd760e01b815260040160405180910390fd5b60028101546001600160a01b03163314610bd2576040516282b42960e81b815260040160405180910390fd5b60078101805460ff191660029081179091556003820154908201546040516001600160a01b0390911690600090829084908381818185875af1925050503d8060008114610c3b576040519150601f19603f3d011682016040523d82523d6000602084013e610c40565b606091505b5050905080610c62576040516312171d8360e31b815260040160405180910390fd5b857f7430d80e0e3cfb925010ff8993f6a56392199211e297fc7825278f29980ccf5186604051610c9491815260200190565b60405180910390a250505050610caa6001600055565b5050565b6000818152600160208190526040822090600782015460ff166003811115610cd857610cd8610e7c565b148015610ce9575080600601544210155b9392505050565b610cf8610dc8565b600081815260016020526040812090600782015460ff166003811115610d2057610d20610e7c565b03610d3e57604051631a40316d60e01b815260040160405180910390fd5b6001600782015460ff166003811115610d5957610d59610e7c565b14610d7757604051638d393d0b60e01b815260040160405180910390fd5b8060060154421015610d9c5760405163621e25c360e01b815260040160405180910390fd5b60018101546001600160a01b03163314610a15576040516282b42960e81b815260040160405180910390fd5b600260005403610deb57604051633ee5aeb560e01b815260040160405180910390fd5b6002600055565b600060208284031215610e0457600080fd5b5035919050565b600080600080600080600080610100898b031215610e2857600080fd5b883597506020890135965060408901356001600160a01b0381168114610e4d57600080fd5b979a96995096976060810135975060808101359660a0820135965060c0820135955060e0909101359350915050565b634e487b7160e01b600052602160045260246000fd5b60048110610eb057634e487b7160e01b600052602160045260246000fd5b9052565b81518152602080830151610140830191610ed8908401826001600160a01b03169052565b506040830151610ef360408401826001600160a01b03169052565b50606083015160608301526080830151608083015260a083015160a083015260c083015160c083015260e0830151610f2e60e0840182610e92565b50610100838101519083015261012092830151929091019190915290565b60008060408385031215610f5f57600080fd5b50508035926020909101359150565b8a81526001600160a01b038a8116602083015289166040820152606081018890526080810187905260a0810186905260c081018590526101408101610fb660e0830186610e92565b610100820193909352610120015298975050505050505050565b8082018082111561096357634e487b7160e01b600052601160045260246000fdfea2646970667358221220b10a8b294bd969da4829f1b5ca79732661be730a617a5c27f28f3c556ef9971264736f6c63430008170033",
  "devdoc": {
    "custom:security-contact": "security@dotfusion.io",
    "details": "This contract handles multiple swaps simultaneously. Each swap is identified by a unique swapId. Funds are locked when users initiate swaps, and unlocked when secrets are revealed.",
    "errors": {
      "ReentrancyGuardReentrantCall()": [
        {
          "details": "Unauthorized reentrant call."
        }
      ]
    },
    "kind": "dev",
    "methods": {
      "canCancel(bytes32)": {
        "params": {
          "swapId": "Unique swap identifier"
        },
        "returns": {
          "_0": "canCancel True if timelock expired and swap is still open"
        }
      },
      "cancelSwap(bytes32)": {
        "params": {
          "swapId": "Unique swap identifier"
        }
      },
      "completeSwap(bytes32,bytes32)": {
        "params": {
          "secret": "Preimage of secretHash",
          "swapId": "Unique swap identifier"
        }
      },
      "createSwap(bytes32,bytes32,address,uint256,uint256,uint256,uint256,bytes32)": {
        "params": {
          "dotAmount": "Amount of DOT expected in return",
          "ethAmount": "Amount of ETH being swapped",
          "exchangeRate": "Fixed exchange rate (DOT per ETH * 1e18)",
          "polkadotSender": "Polkadot address of the taker",
          "secretHash": "Hash of the secret",
          "swapId": "Unique identifier for this swap",
          "taker": "Ethereum address of the taker (DOT provider)",
          "timelock": "Duration before cancellation is allowed"
        }
      },
      "getSwap(bytes32)": {
        "params": {
          "swapId": "Unique swap identifier"
        },
        "returns": {
          "swap": "Full swap struct"
        }
      },
      "isValidSecret(bytes32,bytes32)": {
        "params": {
          "secret": "Preimage to test",
          "swapId": "Unique swap identifier"
        },
        "returns": {
          "_0": "isValid True if secret matches secretHash"
        }
      },
      "publicCancelSwap(bytes32)": {
        "params": {
          "swapId": "Unique swap identifier"
        }
      },
      "rescueFunds(bytes32)": {
        "params": {
          "swapId": "Unique swap identifier"
        }
      }
    },
    "title": "DotFusion Ethereum Escrow (Source)",
    "version": 1
  },
  "userdoc": {
    "kind": "user",
    "methods": {
      "canCancel(bytes32)": {
        "notice": "Check if swap can be cancelled"
      },
      "cancelSwap(bytes32)": {
        "notice": "Cancel a swap after timelock expires"
      },
      "completeSwap(bytes32,bytes32)": {
        "notice": "Complete a swap by revealing the secret (called by taker after providing DOT)"
      },
      "createSwap(bytes32,bytes32,address,uint256,uint256,uint256,uint256,bytes32)": {
        "notice": "Create a new ETH-DOT cross-chain swap"
      },
      "getSwap(bytes32)": {
        "notice": "Get swap details"
      },
      "isValidSecret(bytes32,bytes32)": {
        "notice": "Check if secret is valid for a swap"
      },
      "publicCancelSwap(bytes32)": {
        "notice": "Public cancellation function (for access token holders)"
      },
      "rescueFunds(bytes32)": {
        "notice": "Rescue funds from a swap after rescue delay"
      }
    },
    "notice": "Source escrow contract for cross-chain atomic swaps on Ethereum",
    "version": 1
  },
  "storageLayout": {
    "storage": [
      {
        "astId": 1375,
        "contract": "contracts/EthereumEscrow.sol:DotFusionEthereumEscrow",
        "label": "_status",
        "offset": 0,
        "slot": "0",
        "type": "t_uint256"
      },
      {
        "astId": 1472,
        "contract": "contracts/EthereumEscrow.sol:DotFusionEthereumEscrow",
        "label": "swaps",
        "offset": 0,
        "slot": "1",
        "type": "t_mapping(t_bytes32,t_struct(Swap)1467_storage)"
      }
    ],
    "types": {
      "t_address_payable": {
        "encoding": "inplace",
        "label": "address payable",
        "numberOfBytes": "20"
      },
      "t_bytes32": {
        "encoding": "inplace",
        "label": "bytes32",
        "numberOfBytes": "32"
      },
      "t_enum(SwapState)1445": {
        "encoding": "inplace",
        "label": "enum DotFusionEthereumEscrow.SwapState",
        "numberOfBytes": "1"
      },
      "t_mapping(t_bytes32,t_struct(Swap)1467_storage)": {
        "encoding": "mapping",
        "key": "t_bytes32",
        "label": "mapping(bytes32 => struct DotFusionEthereumEscrow.Swap)",
        "numberOfBytes": "32",
        "value": "t_struct(Swap)1467_storage"
      },
      "t_struct(Swap)1467_storage": {
        "encoding": "inplace",
        "label": "struct DotFusionEthereumEscrow.Swap",
        "members": [
          {
            "astId": 1447,
            "contract": "contracts/EthereumEscrow.sol:DotFusionEthereumEscrow",
            "label": "secretHash",
            "offset": 0,
            "slot": "0",
            "type": "t_bytes32"
          },
          {
            "astId": 1449,
            "contract": "contracts/EthereumEscrow.sol:DotFusionEthereumEscrow",
            "label": "maker",
            "offset": 0,
            "slot": "1",
            "type": "t_address_payable"
          },
          {
            "astId": 1451,
            "contract": "contracts/EthereumEscrow.sol:DotFusionEthereumEscrow",
            "label": "taker",
            "offset": 0,
            "slot": "2",
            "type": "t_address_payable"
          },
          {
            "astId": 1453,
            "contract": "contracts/EthereumEscrow.sol:DotFusionEthereumEscrow",
            "label": "ethAmount",
            "offset": 0,
            "slot": "3",
            "type": "t_uint256"
          },
          {
            "astId": 1455,
            "contract": "contracts/EthereumEscrow.sol:DotFusionEthereumEscrow",
            "label": "dotAmount",
            "offset": 0,
            "slot": "4",
            "type": "t_uint256"
          },
          {
            "astId": 1457,
            "contract": "contracts/EthereumEscrow.sol:DotFusionEthereumEscrow",
            "label": "exchangeRate",
            "offset": 0,
            "slot": "5",
            "type": "t_uint256"
          },
          {
            "astId": 1459,
            "contract": "contracts/EthereumEscrow.sol:DotFusionEthereumEscrow",
            "label": "unlockTime",
            "offset": 0,
            "slot": "6",
            "type": "t_uint256"
          },
          {
            "astId": 1462,
            "contract": "contracts/EthereumEscrow.sol:DotFusionEthereumEscrow",
            "label": "state",
            "offset": 0,
            "slot": "7",
            "type": "t_enum(SwapState)1445"
          },
          {
            "astId": 1464,
            "contract": "contracts/EthereumEscrow.sol:DotFusionEthereumEscrow",
            "label": "swapId",
            "offset": 0,
            "slot": "8",
            "type": "t_bytes32"
          },
          {
            "astId": 1466,
            "contract": "contracts/EthereumEscrow.sol:DotFusionEthereumEscrow",
            "label": "polkadotSender",
            "offset": 0,
            "slot": "9",
            "type": "t_bytes32"
          }
        ],
        "numberOfBytes": "320"
      },
      "t_uint256": {
        "encoding": "inplace",
        "label": "uint256",
        "numberOfBytes": "32"
      }
    }
  }
}