{
  "address": "0xc84E1a9A1772251CA228F34d0af5040B94C7083c",
  "abi": [
    {
      "inputs": [
        {
          "internalType": "uint32",
          "name": "_rescueDelay",
          "type": "uint32"
        },
        {
          "internalType": "contract IERC20",
          "name": "_accessToken",
          "type": "address"
        }
      ],
      "stateMutability": "nonpayable",
      "type": "constructor"
    },
    {
      "inputs": [
        {
          "internalType": "address",
          "name": "target",
          "type": "address"
        }
      ],
      "name": "AddressEmptyCode",
      "type": "error"
    },
    {
      "inputs": [
        {
          "internalType": "address",
          "name": "account",
          "type": "address"
        }
      ],
      "name": "AddressInsufficientBalance",
      "type": "error"
    },
    {
      "inputs": [],
      "name": "FailedInnerCall",
      "type": "error"
    },
    {
      "inputs": [],
      "name": "InvalidAmount",
      "type": "error"
    },
    {
      "inputs": [],
      "name": "InvalidParameters",
      "type": "error"
    },
    {
      "inputs": [],
      "name": "InvalidSecret",
      "type": "error"
    },
    {
      "inputs": [],
      "name": "InvalidSecretHash",
      "type": "error"
    },
    {
      "inputs": [],
      "name": "ReentrancyGuardReentrantCall",
      "type": "error"
    },
    {
      "inputs": [
        {
          "internalType": "address",
          "name": "token",
          "type": "address"
        }
      ],
      "name": "SafeERC20FailedOperation",
      "type": "error"
    },
    {
      "inputs": [],
      "name": "SwapAlreadyExists",
      "type": "error"
    },
    {
      "inputs": [],
      "name": "SwapDoesNotExist",
      "type": "error"
    },
    {
      "inputs": [],
      "name": "SwapNotOpen",
      "type": "error"
    },
    {
      "inputs": [],
      "name": "TimelockNotExpired",
      "type": "error"
    },
    {
      "inputs": [],
      "name": "TimelockTooLong",
      "type": "error"
    },
    {
      "inputs": [],
      "name": "TransferFailed",
      "type": "error"
    },
    {
      "inputs": [],
      "name": "Unauthorized",
      "type": "error"
    },
    {
      "anonymous": false,
      "inputs": [
        {
          "indexed": true,
          "internalType": "bytes32",
          "name": "swapId",
          "type": "bytes32"
        },
        {
          "indexed": false,
          "internalType": "address",
          "name": "token",
          "type": "address"
        },
        {
          "indexed": false,
          "internalType": "uint256",
          "name": "amount",
          "type": "uint256"
        }
      ],
      "name": "FundsRescued",
      "type": "event"
    },
    {
      "anonymous": false,
      "inputs": [
        {
          "indexed": true,
          "internalType": "bytes32",
          "name": "swapId",
          "type": "bytes32"
        }
      ],
      "name": "SwapCancelled",
      "type": "event"
    },
    {
      "anonymous": false,
      "inputs": [
        {
          "indexed": true,
          "internalType": "bytes32",
          "name": "swapId",
          "type": "bytes32"
        },
        {
          "indexed": false,
          "internalType": "bytes32",
          "name": "secret",
          "type": "bytes32"
        }
      ],
      "name": "SwapCompleted",
      "type": "event"
    },
    {
      "anonymous": false,
      "inputs": [
        {
          "indexed": true,
          "internalType": "bytes32",
          "name": "swapId",
          "type": "bytes32"
        },
        {
          "indexed": true,
          "internalType": "bytes32",
          "name": "secretHash",
          "type": "bytes32"
        },
        {
          "indexed": true,
          "internalType": "address",
          "name": "maker",
          "type": "address"
        },
        {
          "indexed": false,
          "internalType": "address",
          "name": "taker",
          "type": "address"
        },
        {
          "indexed": false,
          "internalType": "address",
          "name": "token",
          "type": "address"
        },
        {
          "indexed": false,
          "internalType": "uint256",
          "name": "amount",
          "type": "uint256"
        },
        {
          "indexed": false,
          "internalType": "uint256",
          "name": "unlockTime",
          "type": "uint256"
        }
      ],
      "name": "SwapCreated",
      "type": "event"
    },
    {
      "inputs": [],
      "name": "MAX_TIMELOCK",
      "outputs": [
        {
          "internalType": "uint256",
          "name": "",
          "type": "uint256"
        }
      ],
      "stateMutability": "view",
      "type": "function"
    },
    {
      "inputs": [],
      "name": "accessToken",
      "outputs": [
        {
          "internalType": "contract IERC20",
          "name": "",
          "type": "address"
        }
      ],
      "stateMutability": "view",
      "type": "function"
    },
    {
      "inputs": [
        {
          "internalType": "bytes32",
          "name": "swapId",
          "type": "bytes32"
        }
      ],
      "name": "canCancel",
      "outputs": [
        {
          "internalType": "bool",
          "name": "",
          "type": "bool"
        }
      ],
      "stateMutability": "view",
      "type": "function"
    },
    {
      "inputs": [
        {
          "internalType": "bytes32",
          "name": "swapId",
          "type": "bytes32"
        }
      ],
      "name": "cancelSwap",
      "outputs": [],
      "stateMutability": "nonpayable",
      "type": "function"
    },
    {
      "inputs": [
        {
          "internalType": "bytes32",
          "name": "swapId",
          "type": "bytes32"
        },
        {
          "internalType": "bytes32",
          "name": "secret",
          "type": "bytes32"
        },
        {
          "internalType": "address",
          "name": "target",
          "type": "address"
        }
      ],
      "name": "completeSwap",
      "outputs": [],
      "stateMutability": "nonpayable",
      "type": "function"
    },
    {
      "inputs": [
        {
          "internalType": "bytes32",
          "name": "swapId",
          "type": "bytes32"
        },
        {
          "internalType": "bytes32",
          "name": "secretHash",
          "type": "bytes32"
        },
        {
          "internalType": "address payable",
          "name": "maker",
          "type": "address"
        },
        {
          "internalType": "uint256",
          "name": "timelock",
          "type": "uint256"
        }
      ],
      "name": "createNativeSwap",
      "outputs": [],
      "stateMutability": "payable",
      "type": "function"
    },
    {
      "inputs": [
        {
          "internalType": "bytes32",
          "name": "swapId",
          "type": "bytes32"
        },
        {
          "internalType": "bytes32",
          "name": "secretHash",
          "type": "bytes32"
        },
        {
          "internalType": "address payable",
          "name": "maker",
          "type": "address"
        },
        {
          "internalType": "contract IERC20",
          "name": "token",
          "type": "address"
        },
        {
          "internalType": "uint256",
          "name": "amount",
          "type": "uint256"
        },
        {
          "internalType": "uint256",
          "name": "timelock",
          "type": "uint256"
        }
      ],
      "name": "createSwap",
      "outputs": [],
      "stateMutability": "payable",
      "type": "function"
    },
    {
      "inputs": [
        {
          "internalType": "bytes32",
          "name": "swapId",
          "type": "bytes32"
        }
      ],
      "name": "getSwap",
      "outputs": [
        {
          "components": [
            {
              "internalType": "bytes32",
              "name": "secretHash",
              "type": "bytes32"
            },
            {
              "internalType": "address payable",
              "name": "maker",
              "type": "address"
            },
            {
              "internalType": "address payable",
              "name": "taker",
              "type": "address"
            },
            {
              "internalType": "contract IERC20",
              "name": "token",
              "type": "address"
            },
            {
              "internalType": "uint256",
              "name": "amount",
              "type": "uint256"
            },
            {
              "internalType": "uint256",
              "name": "safetyDeposit",
              "type": "uint256"
            },
            {
              "internalType": "uint256",
              "name": "unlockTime",
              "type": "uint256"
            },
            {
              "internalType": "enum DotFusionPolkadotEscrow.SwapState",
              "name": "state",
              "type": "uint8"
            },
            {
              "internalType": "bytes32",
              "name": "swapId",
              "type": "bytes32"
            },
            {
              "internalType": "bool",
              "name": "isNative",
              "type": "bool"
            }
          ],
          "internalType": "struct DotFusionPolkadotEscrow.Swap",
          "name": "swap",
          "type": "tuple"
        }
      ],
      "stateMutability": "view",
      "type": "function"
    },
    {
      "inputs": [
        {
          "internalType": "bytes32",
          "name": "swapId",
          "type": "bytes32"
        },
        {
          "internalType": "bytes32",
          "name": "secret",
          "type": "bytes32"
        }
      ],
      "name": "isValidSecret",
      "outputs": [
        {
          "internalType": "bool",
          "name": "",
          "type": "bool"
        }
      ],
      "stateMutability": "view",
      "type": "function"
    },
    {
      "inputs": [],
      "name": "owner",
      "outputs": [
        {
          "internalType": "address",
          "name": "",
          "type": "address"
        }
      ],
      "stateMutability": "view",
      "type": "function"
    },
    {
      "inputs": [
        {
          "internalType": "bytes32",
          "name": "swapId",
          "type": "bytes32"
        }
      ],
      "name": "publicCancelSwap",
      "outputs": [],
      "stateMutability": "nonpayable",
      "type": "function"
    },
    {
      "inputs": [
        {
          "internalType": "bytes32",
          "name": "swapId",
          "type": "bytes32"
        },
        {
          "internalType": "bytes32",
          "name": "secretHash",
          "type": "bytes32"
        },
        {
          "internalType": "address payable",
          "name": "",
          "type": "address"
        },
        {
          "internalType": "uint256",
          "name": "",
          "type": "uint256"
        },
        {
          "internalType": "bytes32",
          "name": "",
          "type": "bytes32"
        }
      ],
      "name": "receiveSwap",
      "outputs": [],
      "stateMutability": "payable",
      "type": "function"
    },
    {
      "inputs": [],
      "name": "rescueDelay",
      "outputs": [
        {
          "internalType": "uint32",
          "name": "",
          "type": "uint32"
        }
      ],
      "stateMutability": "view",
      "type": "function"
    },
    {
      "inputs": [
        {
          "internalType": "bytes32",
          "name": "swapId",
          "type": "bytes32"
        }
      ],
      "name": "rescueFunds",
      "outputs": [],
      "stateMutability": "nonpayable",
      "type": "function"
    },
    {
      "inputs": [
        {
          "internalType": "bytes32",
          "name": "",
          "type": "bytes32"
        }
      ],
      "name": "swaps",
      "outputs": [
        {
          "internalType": "bytes32",
          "name": "secretHash",
          "type": "bytes32"
        },
        {
          "internalType": "address payable",
          "name": "maker",
          "type": "address"
        },
        {
          "internalType": "address payable",
          "name": "taker",
          "type": "address"
        },
        {
          "internalType": "contract IERC20",
          "name": "token",
          "type": "address"
        },
        {
          "internalType": "uint256",
          "name": "amount",
          "type": "uint256"
        },
        {
          "internalType": "uint256",
          "name": "safetyDeposit",
          "type": "uint256"
        },
        {
          "internalType": "uint256",
          "name": "unlockTime",
          "type": "uint256"
        },
        {
          "internalType": "enum DotFusionPolkadotEscrow.SwapState",
          "name": "state",
          "type": "uint8"
        },
        {
          "internalType": "bytes32",
          "name": "swapId",
          "type": "bytes32"
        },
        {
          "internalType": "bool",
          "name": "isNative",
          "type": "bool"
        }
      ],
      "stateMutability": "view",
      "type": "function"
    },
    {
      "stateMutability": "payable",
      "type": "receive"
    }
  ],
  "transactionHash": "0x4258f45395f64d77045b3e80eae6cc974597ffa98db04f4387d87aaa2e23dcf2",
  "args": [
    604800,
    "0x0000000000000000000000000000000000000000"
  ],
  "numDeployments": 2,
  "solcInputHash": "dbfca1611b09867b84658bcd78df6965",
  "bytecode": "0x60e060405234801561001057600080fd5b506040516119f43803806119f483398101604081905261002f91610054565b60016000553360805263ffffffff90911660a0526001600160a01b031660c0526100a3565b6000806040838503121561006757600080fd5b825163ffffffff8116811461007b57600080fd5b60208401519092506001600160a01b038116811461009857600080fd5b809150509250929050565b60805160a05160c0516118f86100fc600039600081816102bb01528181610eec0152610f32015260008181610385015261070a0152600081816101f8015281816106440152818161079d015261084201526118f86000f3fe6080604052600436106100ec5760003560e01c80638da5cb5b1161008a578063d541beb311610059578063d541beb314610289578063e243c5fb146102a9578063eb84e7f2146102dd578063f143d8a01461037357600080fd5b80638da5cb5b146101e65780638fc9fef11461023257806394f1825b14610245578063bffbf4dc1461026957600080fd5b80633da0e66e116100c65780633da0e66e1461014d5780634287e35814610183578063541cb23e146101b35780636476fd3c146101c657600080fd5b80631b4858a5146100f8578063219229311461011a5780633394edd31461013a57600080fd5b366100f357005b600080fd5b34801561010457600080fd5b50610118610113366004611594565b6103bc565b005b34801561012657600080fd5b506101186101353660046115cd565b610639565b6101186101483660046115e6565b6108bc565b34801561015957600080fd5b5061016d6101683660046115cd565b610afc565b60405161017a919061165d565b60405180910390f35b34801561018f57600080fd5b506101a361019e366004611708565b610c12565b604051901515815260200161017a565b6101186101c136600461172a565b610c4e565b3480156101d257600080fd5b506101186101e13660046115cd565b610eea565b3480156101f257600080fd5b5061021a7f000000000000000000000000000000000000000000000000000000000000000081565b6040516001600160a01b03909116815260200161017a565b610118610240366004611786565b6111ed565b34801561025157600080fd5b5061025b61546081565b60405190815260200161017a565b34801561027557600080fd5b506101a36102843660046115cd565b61122e565b34801561029557600080fd5b506101186102a43660046115cd565b611270565b3480156102b557600080fd5b5061021a7f000000000000000000000000000000000000000000000000000000000000000081565b3480156102e957600080fd5b5061035d6102f83660046115cd565b600160208190526000918252604090912080549181015460028201546003830154600484015460058501546006860154600787015460088801546009909801546001600160a01b0397881698968816979095169593949293919260ff9182169291168a565b60405161017a9a999897969594939291906117cf565b34801561037f57600080fd5b506103a77f000000000000000000000000000000000000000000000000000000000000000081565b60405163ffffffff909116815260200161017a565b6103c4611348565b600083815260016020526040812090600782015460ff1660038111156103ec576103ec611625565b0361040a57604051631a40316d60e01b815260040160405180910390fd5b6001600782015460ff16600381111561042557610425611625565b1461044357604051638d393d0b60e01b815260040160405180910390fd5b805460408051602081018690520160405160208183030381529060405280519060200120146104855760405163abab6bd760e01b815260040160405180910390fd5b60018101546001600160a01b031633146104b1576040516282b42960e81b815260040160405180910390fd5b60078101805460ff19166002179055600981015460038201546004830154600584015460ff909316926001600160a01b03909216918315610566576000866001600160a01b03168360405160006040518083038185875af1925050503d8060008114610539576040519150601f19603f3d011682016040523d82523d6000602084013e61053e565b606091505b5050905080610560576040516312171d8360e31b815260040160405180910390fd5b506105eb565b61057a6001600160a01b0384168784611372565b80156105eb57604051600090339083908381818185875af1925050503d80600081146105c2576040519150601f19603f3d011682016040523d82523d6000602084013e6105c7565b606091505b50509050806105e9576040516312171d8360e31b815260040160405180910390fd5b505b877f7430d80e0e3cfb925010ff8993f6a56392199211e297fc7825278f29980ccf518860405161061d91815260200190565b60405180910390a250505050506106346001600055565b505050565b336001600160a01b037f00000000000000000000000000000000000000000000000000000000000000001614610681576040516282b42960e81b815260040160405180910390fd5b610689611348565b600081815260016020526040812090600782015460ff1660038111156106b1576106b1611625565b036106cf57604051631a40316d60e01b815260040160405180910390fd5b6002600782015460ff1660038111156106ea576106ea611625565b0361070857604051638d393d0b60e01b815260040160405180910390fd5b7f000000000000000000000000000000000000000000000000000000000000000063ffffffff16816006015461073e9190611837565b42101561075e5760405163621e25c360e01b815260040160405180910390fd5b600981015460038083015460048401805460078601805460ff19169094179093556000905560ff909216916001600160a01b03169082156108335760007f00000000000000000000000000000000000000000000000000000000000000006001600160a01b03168260405160006040518083038185875af1925050503d8060008114610806576040519150601f19603f3d011682016040523d82523d6000602084013e61080b565b606091505b505090508061082d576040516312171d8360e31b815260040160405180910390fd5b50610867565b6108676001600160a01b0383167f000000000000000000000000000000000000000000000000000000000000000083611372565b604080516001600160a01b03841681526020810183905286917fa35104aa8a532c97c48611c8cb3aba648a775480373089a088bb0170db273523910160405180910390a2505050506108b96001600055565b50565b826108da5760405163d6502e2b60e01b815260040160405180910390fd5b346000036108fb5760405163162908e360e11b815260040160405180910390fd5b60008481526001602052604081206007015460ff16600381111561092157610921611625565b1461093f576040516339a2986760e11b815260040160405180910390fd5b61546081111561096257604051632e3f1a4f60e11b815260040160405180910390fd5b600061096e8242611837565b60408051610140810182528681526001600160a01b0386166020820152339181019190915260006060820181905234608083015260a082015260c0810182905290915060e08101600181526020808201889052600160409283018190526000898152818352839020845181559184015182820180546001600160a01b03199081166001600160a01b039384161790915593850151600284018054861691831691909117905560608501516003808501805490961691909216179093556080840151600483015560a0840151600583015560c0840151600683015560e084015160078301805493949193909260ff19909116918490811115610a7157610a71611625565b02179055506101008201516008820155610120909101516009909101805460ff191691151591909117905560408051338152600060208201523491810191909152606081018290526001600160a01b03841690859087907f8fff31b7eeb2ae9daa1a973ccf5022c30c38c3ffcb54904f4a50ca205194bc019060800160405180910390a45050505050565b6040805161014081018252600080825260208201819052918101829052606081018290526080810182905260a0810182905260c0810182905260e08101829052610100810182905261012081019190915260008281526001602081815260409283902083516101408101855281548152928101546001600160a01b03908116928401929092526002810154821693830193909352600380840154909116606083015260048301546080830152600583015460a0830152600683015460c0830152600783015491929160e084019160ff90911690811115610bde57610bde611625565b6003811115610bef57610bef611625565b81526008820154602082015260099091015460ff16151560409091015292915050565b60008281526001602090815260408083205481519283018590529101604051602081830303815290604052805190602001201490505b92915050565b84610c6c5760405163d6502e2b60e01b815260040160405180910390fd5b81600003610c8d5760405163162908e360e11b815260040160405180910390fd5b60008681526001602052604081206007015460ff166003811115610cb357610cb3611625565b14610cd1576040516339a2986760e11b815260040160405180910390fd5b6001600160a01b038316610cf857604051630e52390960e41b815260040160405180910390fd5b615460811115610d1b57604051632e3f1a4f60e11b815260040160405180910390fd5b610d306001600160a01b0384163330856113d1565b6000610d3c8242611837565b9050604051806101400160405280878152602001866001600160a01b03168152602001336001600160a01b03168152602001856001600160a01b0316815260200184815260200134815260200182815260200160016003811115610da257610da2611625565b815260208082018a9052600060409283018190528a8152600180835290839020845181559184015182820180546001600160a01b03199081166001600160a01b039384161790915593850151600284018054861691831691909117905560608501516003808501805490961691909216179093556080840151600483015560a0840151600583015560c0840151600683015560e084015160078301805493949193909260ff19909116918490811115610e5d57610e5d611625565b02179055506101008201516008820155610120909101516009909101805460ff1916911515919091179055604080513381526001600160a01b0386811660208301529181018590526060810183905290861690879089907f8fff31b7eeb2ae9daa1a973ccf5022c30c38c3ffcb54904f4a50ca205194bc019060800160405180910390a450505050505050565b7f00000000000000000000000000000000000000000000000000000000000000006001600160a01b031615801590610fa757506040516370a0823160e01b81523360048201527f00000000000000000000000000000000000000000000000000000000000000006001600160a01b0316906370a0823190602401602060405180830381865afa158015610f81573d6000803e3d6000fd5b505050506040513d601f19601f82011682018060405250810190610fa59190611858565b155b15610fc4576040516282b42960e81b815260040160405180910390fd5b610fcc611348565b600081815260016020526040812090600782015460ff166003811115610ff457610ff4611625565b0361101257604051631a40316d60e01b815260040160405180910390fd5b6001600782015460ff16600381111561102d5761102d611625565b1461104b57604051638d393d0b60e01b815260040160405180910390fd5b80600601544210156110705760405163621e25c360e01b815260040160405180910390fd5b60078101805460ff1916600390811790915560098201549082015460048301546005840154600285015460ff909416936001600160a01b039384169316841561112d576000816001600160a01b03168460405160006040518083038185875af1925050503d8060008114611100576040519150601f19603f3d011682016040523d82523d6000602084013e611105565b606091505b5050905080611127576040516312171d8360e31b815260040160405180910390fd5b506111b2565b6111416001600160a01b0385168285611372565b81156111b257604051600090339084908381818185875af1925050503d8060008114611189576040519150601f19603f3d011682016040523d82523d6000602084013e61118e565b606091505b50509050806111b0576040516312171d8360e31b815260040160405180910390fd5b505b60405187907f5a399591cfd74c375a1ffd61c20221db0db82381f65516889ed13c8cd1f99d5b90600090a25050505050506108b96001600055565b847f7430d80e0e3cfb925010ff8993f6a56392199211e297fc7825278f29980ccf518560405161121f91815260200190565b60405180910390a25050505050565b6000818152600160208190526040822090600782015460ff16600381111561125857611258611625565b148015611269575080600601544210155b9392505050565b611278611348565b600081815260016020526040812090600782015460ff1660038111156112a0576112a0611625565b036112be57604051631a40316d60e01b815260040160405180910390fd5b6001600782015460ff1660038111156112d9576112d9611625565b146112f757604051638d393d0b60e01b815260040160405180910390fd5b806006015442101561131c5760405163621e25c360e01b815260040160405180910390fd5b60028101546001600160a01b03163314611070576040516282b42960e81b815260040160405180910390fd5b60026000540361136b57604051633ee5aeb560e01b815260040160405180910390fd5b6002600055565b6040516001600160a01b0383811660248301526044820183905261063491859182169063a9059cbb906064015b604051602081830303815290604052915060e01b6020820180516001600160e01b038381831617835250505050611410565b6040516001600160a01b03848116602483015283811660448301526064820183905261140a9186918216906323b872dd9060840161139f565b50505050565b60006114256001600160a01b03841683611478565b9050805160001415801561144a5750808060200190518101906114489190611871565b155b1561063457604051635274afe760e01b81526001600160a01b03841660048201526024015b60405180910390fd5b60606112698383600084600080856001600160a01b0316848660405161149e9190611893565b60006040518083038185875af1925050503d80600081146114db576040519150601f19603f3d011682016040523d82523d6000602084013e6114e0565b606091505b50915091506114f08683836114fa565b9695505050505050565b60608261150f5761150a82611556565b611269565b815115801561152657506001600160a01b0384163b155b1561154f57604051639996b31560e01b81526001600160a01b038516600482015260240161146f565b5080611269565b8051156115665780518082602001fd5b604051630a12f52160e11b815260040160405180910390fd5b6001600160a01b03811681146108b957600080fd5b6000806000606084860312156115a957600080fd5b833592506020840135915060408401356115c28161157f565b809150509250925092565b6000602082840312156115df57600080fd5b5035919050565b600080600080608085870312156115fc57600080fd5b843593506020850135925060408501356116158161157f565b9396929550929360600135925050565b634e487b7160e01b600052602160045260246000fd5b6004811061165957634e487b7160e01b600052602160045260246000fd5b9052565b81518152602080830151610140830191611681908401826001600160a01b03169052565b50604083015161169c60408401826001600160a01b03169052565b5060608301516116b760608401826001600160a01b03169052565b506080830151608083015260a083015160a083015260c083015160c083015260e08301516116e860e084018261163b565b506101008381015190830152610120928301511515929091019190915290565b6000806040838503121561171b57600080fd5b50508035926020909101359150565b60008060008060008060c0878903121561174357600080fd5b8635955060208701359450604087013561175c8161157f565b9350606087013561176c8161157f565b9598949750929560808101359460a0909101359350915050565b600080600080600060a0868803121561179e57600080fd5b853594506020860135935060408601356117b78161157f565b94979396509394606081013594506080013592915050565b8a81526001600160a01b038a811660208301528981166040830152881660608201526080810187905260a0810186905260c08101859052610140810161181860e083018661163b565b836101008301528215156101208301529b9a5050505050505050505050565b80820180821115610c4857634e487b7160e01b600052601160045260246000fd5b60006020828403121561186a57600080fd5b5051919050565b60006020828403121561188357600080fd5b8151801515811461126957600080fd5b6000825160005b818110156118b4576020818601810151858301520161189a565b50600092019182525091905056fea2646970667358221220ecccb239fa17f9d5608dd32723ffeed605b64b5037bfb9f1963340ccba152b0164736f6c63430008170033",
  "devdoc": {
    "custom:security-contact": "security@dotfusion.io",
    "details": "This contract handles multiple swaps simultaneously. Each swap is identified by a unique swapId. Funds are locked when users initiate swaps, and unlocked when secrets are revealed.",
    "errors": {
      "AddressEmptyCode(address)": [
        {
          "details": "There's no code at `target` (it is not a contract)."
        }
      ],
      "AddressInsufficientBalance(address)": [
        {
          "details": "The ETH balance of the account is not enough to perform the operation."
        }
      ],
      "FailedInnerCall()": [
        {
          "details": "A call to an address target failed. The target may have reverted."
        }
      ],
      "ReentrancyGuardReentrantCall()": [
        {
          "details": "Unauthorized reentrant call."
        }
      ],
      "SafeERC20FailedOperation(address)": [
        {
          "details": "An operation with an ERC20 token failed."
        }
      ]
    },
    "kind": "dev",
    "methods": {
      "canCancel(bytes32)": {
        "params": {
          "swapId": "Unique swap identifier"
        },
        "returns": {
          "_0": "canCancel True if timelock expired and swap is still open"
        }
      },
      "cancelSwap(bytes32)": {
        "params": {
          "swapId": "Unique swap identifier"
        }
      },
      "completeSwap(bytes32,bytes32,address)": {
        "details": "Only the maker (original initiator on Ethereum) can claim to prevent front-running",
        "params": {
          "secret": "Preimage of secretHash",
          "swapId": "Unique swap identifier",
          "target": "Address to receive the tokens"
        }
      },
      "createNativeSwap(bytes32,bytes32,address,uint256)": {
        "params": {
          "maker": "Address of the maker (Ethereum initiator)",
          "secretHash": "Hash of the secret",
          "swapId": "Unique identifier for this swap",
          "timelock": "Duration before cancellation is allowed"
        }
      },
      "createSwap(bytes32,bytes32,address,address,uint256,uint256)": {
        "params": {
          "amount": "Amount of tokens",
          "maker": "Address of the maker",
          "secretHash": "Hash of the secret",
          "swapId": "Unique identifier for this swap",
          "timelock": "Duration before cancellation is allowed",
          "token": "Token to be swapped"
        }
      },
      "getSwap(bytes32)": {
        "params": {
          "swapId": "Unique swap identifier"
        },
        "returns": {
          "swap": "Full swap struct"
        }
      },
      "isValidSecret(bytes32,bytes32)": {
        "params": {
          "secret": "Preimage to test",
          "swapId": "Unique swap identifier"
        },
        "returns": {
          "_0": "isValid True if secret matches secretHash"
        }
      },
      "publicCancelSwap(bytes32)": {
        "params": {
          "swapId": "Unique swap identifier"
        }
      },
      "receiveSwap(bytes32,bytes32,address,uint256,bytes32)": {
        "details": "Called by the XCM bridge contract for backward compatibilityOther parameters are present for compatibility but not used",
        "params": {
          "secretHash": "Hash of the secret",
          "swapId": "Unique swap identifier (from Ethereum)"
        }
      },
      "rescueFunds(bytes32)": {
        "params": {
          "swapId": "Unique swap identifier"
        }
      }
    },
    "title": "DotFusion Polkadot Escrow (Destination)",
    "version": 1
  },
  "userdoc": {
    "kind": "user",
    "methods": {
      "canCancel(bytes32)": {
        "notice": "Check if swap can be cancelled"
      },
      "cancelSwap(bytes32)": {
        "notice": "Cancel a swap after timelock expires"
      },
      "completeSwap(bytes32,bytes32,address)": {
        "notice": "Complete a swap by revealing the secret"
      },
      "createNativeSwap(bytes32,bytes32,address,uint256)": {
        "notice": "Create a new swap with native DOT"
      },
      "createSwap(bytes32,bytes32,address,address,uint256,uint256)": {
        "notice": "Create a new swap with ERC20 tokens"
      },
      "getSwap(bytes32)": {
        "notice": "Get swap details"
      },
      "isValidSecret(bytes32,bytes32)": {
        "notice": "Check if secret is valid for a swap"
      },
      "publicCancelSwap(bytes32)": {
        "notice": "Public cancellation function (for access token holders)"
      },
      "receiveSwap(bytes32,bytes32,address,uint256,bytes32)": {
        "notice": "Receive a cross-chain swap message from Ethereum (XCM Bridge compatibility)"
      },
      "rescueFunds(bytes32)": {
        "notice": "Rescue funds from a swap after rescue delay"
      }
    },
    "notice": "Destination escrow contract for cross-chain atomic swaps on Polkadot",
    "version": 1
  },
  "storageLayout": {
    "storage": [
      {
        "astId": 667,
        "contract": "contracts/PolkadotEscrow.sol:DotFusionPolkadotEscrow",
        "label": "_status",
        "offset": 0,
        "slot": "0",
        "type": "t_uint256"
      },
      {
        "astId": 773,
        "contract": "contracts/PolkadotEscrow.sol:DotFusionPolkadotEscrow",
        "label": "swaps",
        "offset": 0,
        "slot": "1",
        "type": "t_mapping(t_bytes32,t_struct(Swap)768_storage)"
      }
    ],
    "types": {
      "t_address_payable": {
        "encoding": "inplace",
        "label": "address payable",
        "numberOfBytes": "20"
      },
      "t_bool": {
        "encoding": "inplace",
        "label": "bool",
        "numberOfBytes": "1"
      },
      "t_bytes32": {
        "encoding": "inplace",
        "label": "bytes32",
        "numberOfBytes": "32"
      },
      "t_contract(IERC20)77": {
        "encoding": "inplace",
        "label": "contract IERC20",
        "numberOfBytes": "20"
      },
      "t_enum(SwapState)745": {
        "encoding": "inplace",
        "label": "enum DotFusionPolkadotEscrow.SwapState",
        "numberOfBytes": "1"
      },
      "t_mapping(t_bytes32,t_struct(Swap)768_storage)": {
        "encoding": "mapping",
        "key": "t_bytes32",
        "label": "mapping(bytes32 => struct DotFusionPolkadotEscrow.Swap)",
        "numberOfBytes": "32",
        "value": "t_struct(Swap)768_storage"
      },
      "t_struct(Swap)768_storage": {
        "encoding": "inplace",
        "label": "struct DotFusionPolkadotEscrow.Swap",
        "members": [
          {
            "astId": 747,
            "contract": "contracts/PolkadotEscrow.sol:DotFusionPolkadotEscrow",
            "label": "secretHash",
            "offset": 0,
            "slot": "0",
            "type": "t_bytes32"
          },
          {
            "astId": 749,
            "contract": "contracts/PolkadotEscrow.sol:DotFusionPolkadotEscrow",
            "label": "maker",
            "offset": 0,
            "slot": "1",
            "type": "t_address_payable"
          },
          {
            "astId": 751,
            "contract": "contracts/PolkadotEscrow.sol:DotFusionPolkadotEscrow",
            "label": "taker",
            "offset": 0,
            "slot": "2",
            "type": "t_address_payable"
          },
          {
            "astId": 754,
            "contract": "contracts/PolkadotEscrow.sol:DotFusionPolkadotEscrow",
            "label": "token",
            "offset": 0,
            "slot": "3",
            "type": "t_contract(IERC20)77"
          },
          {
            "astId": 756,
            "contract": "contracts/PolkadotEscrow.sol:DotFusionPolkadotEscrow",
            "label": "amount",
            "offset": 0,
            "slot": "4",
            "type": "t_uint256"
          },
          {
            "astId": 758,
            "contract": "contracts/PolkadotEscrow.sol:DotFusionPolkadotEscrow",
            "label": "safetyDeposit",
            "offset": 0,
            "slot": "5",
            "type": "t_uint256"
          },
          {
            "astId": 760,
            "contract": "contracts/PolkadotEscrow.sol:DotFusionPolkadotEscrow",
            "label": "unlockTime",
            "offset": 0,
            "slot": "6",
            "type": "t_uint256"
          },
          {
            "astId": 763,
            "contract": "contracts/PolkadotEscrow.sol:DotFusionPolkadotEscrow",
            "label": "state",
            "offset": 0,
            "slot": "7",
            "type": "t_enum(SwapState)745"
          },
          {
            "astId": 765,
            "contract": "contracts/PolkadotEscrow.sol:DotFusionPolkadotEscrow",
            "label": "swapId",
            "offset": 0,
            "slot": "8",
            "type": "t_bytes32"
          },
          {
            "astId": 767,
            "contract": "contracts/PolkadotEscrow.sol:DotFusionPolkadotEscrow",
            "label": "isNative",
            "offset": 0,
            "slot": "9",
            "type": "t_bool"
          }
        ],
        "numberOfBytes": "320"
      },
      "t_uint256": {
        "encoding": "inplace",
        "label": "uint256",
        "numberOfBytes": "32"
      }
    }
  }
}